:100000000C947A000C94870A0C94600A0C94A20059
:100010000C94A2000C94A2000C94A2000C94A200D8
:100020000C94A2000C94A2000C94A2000C94A200C8
:100030000C94A2000C94A2000C94A2000C94A200B8
:100040000C94160A0C94A2000C94E4090C94BE09BA
:100050000C94A2000C94A2000C94A2000C94A20098
:100060000C94A2000C94A200FFE0FFD1AFFF32FF7E
:10007000D0FFFEFFE0FFD1AEFFD0FFFEFFE0FFD1DB
:100080001002FFFEFFD0FFE0FFC1FFD1AED580A878
:100090003FD300408D142002A1C8DA1281CFD9F1DC
:1000A000DB402EA4A6AFFFD0FFFE0000000025001D
:1000B00028002B0000000000240027002A00010275
:1000C00004081020408001020408102001020408E6
:1000D000102000000000230026002900040404046E
:1000E00004040404020202020202030303030303E2
:1000F000CD0DC50D11241FBECFEFD8E0DEBFCDBFA3
:1001000012E0A0E0B1E0E6E2F4E202C005900D9258
:10011000A234B107D9F724E0A2E4B2E001C01D92F5
:10012000A133B207E1F710E0C9E7D0E004C021979E
:10013000FE010E943E10C837D107C9F70E94C80BC4
:100140000C9406120C940000EF92FF920F931F93F1
:10015000CF93DF931F92CDB7DEB7DC011496ED90FD
:10016000FC901597F70107811085D70119968D919D
:100170009C911A9708171907A9F0D8011496ED91C8
:10018000FC91159780819181DC01ED91FC910480B7
:10019000F581E02DBE016F5F7F4F0995F801028167
:1001A0001381E3CF0F90DF91CF911F910F91FF90BB
:1001B000EF900895CB0108957F928F929F92AF9216
:1001C000BF92CF92DF92EF92FF920F931F93CF9344
:1001D000DF93EC0149015A018B01C12CD12C76012E
:1001E000C814D904EA04FB0484F5F80171908F0166
:1001F0008F8580FF0BC0E881F9810084F185E02DB7
:1002000020E144E060E070E0CE010995EB85FC85DB
:100210008D859E85E817F90738F470828B859C855B
:1002200001969C878B870BC0E881F981672D70E070
:10023000028CF38DE02DCE010995019649F02FEF48
:10024000C21AD20AE20AF20ACBCFB401C50102C037
:10025000B601C701DF91CF911F910F91FF90EF90F1
:10026000DF90CF90BF90AF909F908F907F90089538
:10027000CF93DF93EC01E881F9810288F389E02DC7
:1002800009958F3F2FEF920731F02D813E812F5F2F
:100290003F4F3E832D83DF91CF9108958FEF9FEFE6
:1002A000089560E070E0CB01089580E090E008954B
:1002B000CB010895CF93DF93EC0188899989DC0104
:1002C000ED91FC910480F581E02D0995892BA9F32E
:1002D00088899989DC01ED91FC910680F781E02DF8
:1002E000DF91CF910994CF93DF93EC0188899989AD
:1002F000DC01ED91FC910480F581E02D0995892BBD
:10030000A9F388899989DC01ED91FC910084F1853C
:10031000E02DDF91CF910994AF92BF92CF92DF92FF
:10032000EF92FF920F931F93CF93DF9300D000D0F3
:10033000CDB7DEB78C015B01C12CD12C7601F80161
:1003400080899189DC01ED91FC910680F781E02D97
:1003500029833A834B835C83099529813A814B81B8
:100360005C818F3F71F0C216D306E406F5064CF4AB
:10037000D5018D935D01BFEFCB1ADB0AEB0AFB0AB7
:10038000DECFC701B6010F900F900F900F90DF9155
:10039000CF911F910F91FF90EF90DF90CF90BF9082
:1003A000AF900895DC0150968D919C915197DC019E
:1003B000ED91FC910480F581E02D099480E090E0BE
:1003C000089580E090E0089580E090E0089580E056
:1003D00090E008950895CF93DF93C091B002D0913B
:1003E000B102E881F9810480F581E02DCE01099503
:1003F000892BB9F3E881F9810680F781E02DCE01E0
:10040000DF91CF9109941F93CF93DF93182FC09161
:10041000B002D091B1028A3041F4E881F9810190B3
:10042000F081E02D6DE0CE010995E881F981019020
:10043000F081E02D612FCE01099521E030E0019798
:1004400011F420E030E0C901DF91CF911F910895B0
:100450000895DC011696ED91FC91179712968C91F8
:10046000481B477081E090E001C0880F4A95EAF789
:10047000E60FF11D3081222311F0832B02C08095FD
:10048000832380830895FB014181DC0112962C9126
:100490001297421768F013962C911397241740F087
:1004A000608115962C91621718F424810C9429020E
:1004B0000895FC0180819281980F92832181921787
:1004C00060F494819F5F94839381890F821710F069
:1004D0008FEF820F838381E0089580E00895FC010F
:1004E00012828081815083831482089580E0089570
:1004F0000B96FC01849108950A96FC01849108955D
:10050000FC01849108950E948002882321F08230AA
:1005100011F083E0089586E00895FC01E60FF11DD7
:10052000849190E0982F88273196E4918E0F911D49
:10053000089568E00C948D0266E00C948D022EE91B
:100540003FE0009729F0F9013197F1F70197F9CFD2
:1005500008951092430210924202089580935D0222
:100560001092B90084FF02C08CE001C088E480933F
:10057000B8000C94A902DB011496ED91FC9115973B
:1005800020E030E065E00994DB011496ED91FC91E8
:10059000159720E030E062E00994DB011496ED91BC
:1005A000FC91159720E030E063E00994CF92DF9250
:1005B000EF92FF920F931F93CF93DF938C017B01F8
:1005C0006A0180E0F601C49181110BC0CF3F09F4AC
:1005D0004CC04C2FB701C8010E94BB02811143C01F
:1005E00049C0CF3F11F44FEFF5CFCE3F09F444C0DF
:1005F000C03FC8F5C03E38F04C2F4F70B701C8015E
:100600000E94C40230C0C03D38F04C2F4F70B7017B
:10061000C8010E94CD0227C0C03CF8F0D701149653
:10062000ED91FC91159720E030E040E064E0C801D6
:100630000995C295C07FCE5FD0E0CE010E949F0297
:10064000D7011496ED91FC91159720E030E041E040
:1006500064E0C8010995CE0104C0C7FD04C08C2F19
:1006600090E00E949F0280E001C081E0BFEFCB1AC2
:10067000DB0AA8CF80E001C081E0DF91CF911F911C
:100680000F91FF90EF90DF90CF9008958F929F92FF
:10069000AF92BF92CF92DF92FF920F931F93CF93AF
:1006A000DF9300D0CDB7DEB76C018B01F42E49018A
:1006B00020E1421709F467C0241700F13AE043171C
:1006C00029F18FE0481369C041E0C6010E94CD02C4
:1006D00040E0B801C6010E94C40241E8B801C60169
:1006E0000E94BB02F4014081B801C6010E94BB0216
:1006F00040E0B801C6010E94CD0208C1A1E14A173D
:1007000009F444C0B5E14B1791F047C0DB011496E2
:10071000ED91FC91159720E030E042E061E0099511
:1007200044E850E0B801C6010E94D60236C0FB0181
:10073000A280B3804CE750E00E94D602D501149607
:100740004C91406BB801C6010E94BB0241E0B80168
:10075000C6010E94C402F50126813781D801149692
:10076000ED91FC911597D50115964C9166E0C60167
:100770000995811102C080E0CAC040E0B801C601FD
:100780000E94CD020AC043E750E002C048E650E0B4
:10079000B801C6010E94D602B9C0D80112960D91C7
:1007A0001C911397B2E3FB1609F474C0BF15B8F09F
:1007B000E5E1FE1609F47BC0F7E1FF1609F48DC0F0
:1007C00024E1F212A3C0D8011696ED91FC9117977F
:1007D00015968C919F01280F311DC90160C036E428
:1007E000F31609F48AC087E4F81609F48AC0ABE36B
:1007F000FA128CC0F40181819381913029F09330F9
:1008000031F4482F885004C048E0480F01C0482FF9
:1008100021E0D80113963C91381708F420E031E02C
:10082000F8015281451708F430E051E0481708F00C
:1008300050E0822F852B382319F4252309F466C054
:10084000D4011296FC90913051F030F0923049F082
:10085000933051F42FEF09C020E031E007C021E0D0
:1008600004C020E03FEF02C020E030E0F7FE08C007
:10087000B401C8012A8339830E94430239812A8145
:10088000F4018081830F80838181820F8183FF0C3B
:1008900069F73CC0B401C8010E94430237C01192FD
:1008A000E817F907E1F7C8010E946F022FC0C801DD
:1008B0000E945902882309F45ECFD8011696ED9163
:1008C000FC91179715968C919F01280F311DC90136
:1008D0001192E817F907E1F719C0D4011C92F80149
:1008E000828111968C9311978581815012968C93F9
:1008F0001297838113968C9309C0D80115968C9119
:1009000003C0D80111968C91F401808381E00F908F
:100910000F90DF91CF911F910F91FF90DF90CF90BB
:10092000BF90AF909F908F9008950C9445110895BB
:1009300008950C944511DC01ED91FC9136972081CE
:100940003181820F931F0C949904FB012081318126
:10095000FC0131832083FB0142815381F9013697E9
:1009600020813181FC01E20FF31F51834083089500
:100970002EE731E0FC013183208328E831E0318F1C
:10098000208F6EE871E00C94A504DC01ED91FC91E0
:10099000369720813181820F931F0C94B804CF9336
:1009A000DF93EC010E94B804CE01DF91CF910C944B
:1009B0004511DC01ED91FC91369720813181820F48
:1009C000931F0C94CF040C944511089508950C9432
:1009D0004511DC01ED91FC91369720813181820F28
:1009E000931F0C94E704FB0120813181FC013183CA
:1009F0002083FB0142815381F901369720813181A7
:100A0000FC01E20FF31F51834083089526EF31E08C
:100A1000FC013183208320E032E0358B248B66E0BB
:100A200072E00C94F304DC01ED91FC913697208187
:100A30003181820F931F0C940605CF93DF93EC0155
:100A40000E940605CE01DF91CF910C944511DC0187
:100A5000ED91FC91369720813181820F931F0C9488
:100A60001D050C9445110F931F93CF93DF938C01B9
:100A7000EB016F3F8FEF780719F480E090E00FC033
:100A80006A3031F46DE0F801808991890E94630B2E
:100A90006C2FF801808991890E94630BCE01DF9150
:100AA000CF911F910F9108958F929F92BF92CF92F5
:100AB000DF92EF92FF920F931F93CF93DF9300D0BB
:100AC00000D0CDB7DEB78C014B01C12CD12C760103
:100AD000C216D306E406F50644F5F401B1904F01C1
:100AE000FAE0BF120EC06DE0F80180899189298378
:100AF0003A834B835C830E94630B5C814B813A8118
:100B000029816B2DF8018089918929833A834B8350
:100B10005C830E94630BFFEFCF1ADF0AEF0AFF0A24
:100B20005C814B813A812981D3CFCA01B9010F90F1
:100B30000F900F900F90DF91CF911F910F91FF9029
:100B4000EF90DF90CF90BF909F908F900895DC0141
:100B5000ED91FD918081ED91FD919081ED91FD915F
:100B60006C9163708E2309F064609F2309F06860C4
:100B7000E4ECF5E0E60FF11D659565956D936D91DB
:100B80007D918D919D91099423C01AC012C016C009
:100B900010C01EC009C014C013C006C019C009C0CF
:100BA0000DC007C00DC014C062507040804090401E
:100BB0000BC0615070408040904006C06E5F01C025
:100BC0006F5F7F4F8F4F9F4F9E938E937E936E9359
:100BD0000895CF93DF93EC018CE191E099838883B2
:100BE0008A859B85EE81FF81892BF1F00280F3815C
:100BF000E02DFF83EE830190F081E02D84819581CB
:100C00000E944511EE81FF8180819181009711F052
:100C10000E944511EE81FF81118210828A859B8599
:100C200001979B878A87DCCF848195810E9445113B
:100C30008E819F81009721F0DF91CF910C94451117
:100C4000DF91CF910895CF93DF93EC010E94E905E6
:100C5000CE01DF91CF910C94451108950895089528
:100C6000DB01ED91FC9109942F923F924F925F929C
:100C70006F927F928F929F92AF92BF92CF92DF92AC
:100C8000EF92FF920F931F93CF93DF931F92CDB7F5
:100C9000DEB71C01A62EDC01DC96BC90DC97DB964F
:100CA000EC906C01B4E0CB0ED11CDC015996ED91B7
:100CB000FC915A97C6010995F82EF101008511851E
:100CC000C8010E948002982ED10118968D919C91A6
:100CD00019970E948302682EB1E09B1203C02FE097
:100CE000922E02C099249A94F101808591850E94E8
:100CF0007C02882ED10118968D919C9119970E94A3
:100D00007802782EF101808591850E949902F0E6A3
:100D1000FA1538F4009729F0080F191F91E6892E6B
:100D200013C0D10118968D919C9119970E949C0235
:100D3000B0E4BA1538F4009729F0080F191F81E4C0
:100D4000882E02C00F5E1F4F7A1438F4F101148A06
:100D5000178A108E158A168A9EC07814B8F3262D2D
:100D600030E0F80184918F3F19F40F5F1F4F5AC094
:100D70008A104FC0D10118968D919C9119970E94AD
:100D8000800298012F5F3F4FF801882311F08230D5
:100D9000E1F48491D10157968C935797F9012491EE
:100DA00058962C935897F8013396E4915496EC9307
:100DB0005497F8013496E4915596EC935597F801C1
:100DC0003596E4915696EC9320C08491982F9F70AD
:100DD0009250D10156969C93569782958F70559656
:100DE0008C935597F9012491822F8F7058968C938C
:100DF000589722952F7057962C935797F801329653
:100E0000E491E295EF705496EC930115110579F495
:100E100042C0F8013296E491E921C9018E0F911D7B
:100E2000080F191F871409F491CF83949ACFF10109
:100E3000808591850E948302D10157963C915797F6
:100E400058962C91589755965C915597B21A56968C
:100E50009C915697B91AFB0C9FEF920F9F0DD89655
:100E60004C91D897DA966C916F1518F0941728F476
:100E700002C0941768F09F1558F4E50E9FEF930F8A
:100E80009E0DF10147A951AD5E1538F4941738F461
:100E9000F10184893FC080E03DC0941710F49E1595
:100EA000B8F7080F111D395F532E56945694569477
:100EB0004F2C420E4101F0E28F0E911C652C712CDB
:100EC000F41431F35E2D58018A2D801B8515F0F442
:100ED000F5018491D10116966D917C9117979096AA
:100EE0005C9390979196FC92919793961C9293970E
:100EF00092968C9394014BE3C60159830E9430066D
:100F0000BFEFAB1ABB0A5981585FDECF060D171D24
:100F1000F394D6CFD101DB962C91DB97082E000CF1
:100F2000990B820F911DDB968C9381E090E00F90DE
:100F3000DF91CF911F910F91FF90EF90DF90CF90B5
:100F4000BF90AF909F908F907F906F905F904F90E9
:100F50003F902F90089590914302911104C0809387
:100F600043026093420208951F93CF93DF9300D012
:100F7000CDB7DEB720ED37E03A8329839091BC00EE
:100F8000982399F429813A81232B51F480915D02B1
:100F9000182F127081FD09C081E00E94AB0706C0C6
:100FA00029813A8121503109E7CF11E0812F0F903B
:100FB0000F90DF91CF911F91089584E98093BC0039
:100FC00064E080E10C94B407CF938093BB0084E885
:100FD0008093BC0063E080E80E94B407C82F882398
:100FE00089F080915D02C82FC27081FD0AC0809196
:100FF000B900887F883229F063E082E00E94AB0765
:1010000001C0C1E08C2FCF910895CF93DF93FC01F5
:1010100023A5222379F0EC010E942C0B811102C040
:1010200080E009C08EA1811180E40E94E40788233A
:10103000B9F31BA681E0DF91CF9108950F931F9321
:10104000CF93C42F89016330C1F050F4613081F037
:10105000623009F048C0FC0146A321E023A743C049
:10106000663011F1673079F1653009F03CC00EC08F
:10107000FC0186A50E94AE0236C0FC0116A221E04A
:1010800023A7411130C00E94DD072DC00E94050832
:10109000811104C00E94DD0780E026C08C2F0E94D1
:1010A000E407811120C0F6CF0E940508882391F340
:1010B000CC23C9F0F80181918F010E94E4078823B5
:1010C00049F3C150F5CF0E940508882319F3CC23BA
:1010D00051F0F80184910E94E407882329F00F5F02
:1010E0001F4FC150F4CF81E0CF911F910F91089510
:1010F000FC01918D828D981761F0828DDF01A80F20
:10110000B11D5D968C91928D9F5F9F73928F90E041
:1011100008958FEF9FEF0895FC01918D828D9817B0
:1011200031F0828DE80FF11D858D90E008958FEFED
:101130009FEF0895FC01918D228D892F90E0805CB6
:101140009F4F821B91098F739927089582EB92E03C
:101150000E949A0821E0892B09F420E0822F08954B
:10116000FC01848DDF01A80FB11DA35ABF4F2C9144
:10117000848D90E001968F739927848FA689B78913
:101180002C93A089B1898C9180648C93938D848DEC
:10119000981306C00288F389E02D80818F7D8083BB
:1011A0000895EF92FF920F931F93CF93DF93EC017B
:1011B00081E0888F9B8D8C8D981305C0E889F98913
:1011C000808185FD24C0F62E0B8D10E00F5F1F4F30
:1011D0000F731127E02E8C8DE8120CC00FB607FCA0
:1011E000FACFE889F989808185FFF5CFCE010E9489
:1011F000B008F1CF8B8DFE01E80FF11DE35AFF4FD0
:10120000F0820B8FEA89FB898081806207C0EE89BA
:10121000FF896083E889F98980818064808381E027
:1012200090E0DF91CF911F910F91FF90EF90089583
:10123000CF93DF93EC01888D8823C9F0EA89FB897D
:10124000808185FD05C0A889B9898C9186FD0FC074
:101250000FB607FCF5CF808185FFF2CFA889B98949
:101260008C9185FFEDCFCE010E94B008E7CFDF91D2
:10127000CF91089580E090E0892B29F00E94A60884
:1012800081110C94000008953FB7F89480914D02AD
:1012900090914E02A0914F02B091500226B5A89BAA
:1012A00005C02F3F19F00196A11DB11D3FBFBA2FF8
:1012B000A92F982F8827820F911DA11DB11DBC0158
:1012C000CD0142E0660F771F881F991F4A95D1F71D
:1012D00008958F929F92AF92BF92CF92DF92EF923A
:1012E000FF926B017C010E9444094B015C01C11417
:1012F000D104E104F104F1F00E944409DC01CB01C6
:1013000088199909AA09BB09883E9340A105B1052E
:1013100070F321E0C21AD108E108F10888EE880EC6
:1013200083E0981EA11CB11CC114D104E104F10496
:1013300019F7DDCFFF90EF90DF90CF90BF90AF9087
:101340009F908F9008952FB7F89460914902709103
:101350004A0280914B0290914C022FBF089508954C
:101360000E94441080914602909147020C94A70578
:1013700080914402909145020C94A7051F920F9210
:101380000FB60F9211242F933F934F935F936F9358
:101390007F938F939F93AF93BF93EF93FF9382EBD2
:1013A00092E00E94B008FF91EF91BF91AF919F91A1
:1013B0008F917F916F915F914F913F912F910F90FE
:1013C0000FBE0F901F9018951F920F920FB60F929D
:1013D00011242F938F939F93EF93FF93E091C20279
:1013E000F091C3028081E091C802F091C90282FDB0
:1013F00012C090818091CB028F5F8F732091CC02BD
:10140000821751F0E091CB02F0E0EE54FD4F958F42
:101410008093CB0201C08081FF91EF919F918F91CA
:101420002F910F900FBE0F901F9018951F920F9243
:101430000FB60F9211242F933F938F939F93AF93E7
:10144000BF938091490290914A02A0914B02B091C2
:101450004C023091480223E0230F2D3720F40196EF
:10146000A11DB11D05C026E8230F0296A11DB11DC7
:10147000209348028093490290934A02A0934B0222
:10148000B0934C0280914D0290914E02A0914F0278
:10149000B09150020196A11DB11D80934D02909311
:1014A0004E02A0934F02B0935002BF91AF919F9113
:1014B0008F913F912F910F900FBE0F901F90189515
:1014C0001F920F920FB60F9211242F933F934F93B9
:1014D0005F936F937F938F939F93AF93BF93EF939C
:1014E000FF93E0910201F09103010995FF91EF91C3
:1014F000BF91AF919F918F917F916F915F914F912C
:101500003F912F910F900FBE0F901F9018951F9233
:101510000F920FB60F9211242F933F934F935F9327
:101520006F937F938F939F93AF93BF93EF93FF93AB
:10153000E0910001F09101010995FF91EF91BF91B8
:10154000AF919F918F917F916F915F914F913F915B
:101550002F910F900FBE0F901F9018958230A1F021
:10156000833029F5709347026093460282EB99E03D
:10157000909303018093020180916900837F8460CE
:1015800080936900E99A11C0709345026093440208
:1015900088EB99E0909301018093000180916900AC
:1015A0008C7F816080936900E89A81E0089580E0F3
:1015B0000895CF93DF9390E0FC01E254FF4F249114
:1015C000FC01E452FF4F84918823C1F090E0880F22
:1015D000991FFC01EC54FF4FC591D491FC01E655D5
:1015E000FF4FA591B4919FB7F8943881822F8095D1
:1015F00083238883EC91E22BEC939FBFDF91CF9103
:101600000895CF92DF92EF92FF920F931F93CF93A3
:10161000DF936C017A018B01C0E0D0E0CE15DF05CD
:1016200089F0D8016D918D01D601ED91FC91019069
:10163000F081E02DC6010995892B11F47E0102C0CD
:101640002196ECCFC701DF91CF911F910F91FF90B1
:10165000EF90DF90CF900895CF9384EA8093BC0001
:1016600061E080E80E94B407882359F08091B900B6
:10167000887F883041F0803131F061E082E00E9463
:10168000AB07C0E01DC088E78093BB0084E880936F
:10169000BC0062E080E80E94B407882391F3809147
:1016A0005D02C82FC27081FD0AC08091B900887F99
:1016B000883129F062E082E00E94AB0701C0C1E0FE
:1016C0008C2FCF910895DC01ED91FC910190F08178
:1016D000E02D09946115710579F0FB01019000205E
:1016E000E9F73197AF01461B570BDC01ED91FC91F7
:1016F0000280F381E02D099480E090E008954F92FC
:101700005F926F927F92EF92FF920F931F93CF930E
:10171000DF93CDB7DEB7A1970FB6F894DEBF0FBE4B
:10172000CDBF7C01FA01CB0119A2223008F42AE0D6
:101730008E010F5D1F4F422E512C612C712CBF0169
:10174000A30192010E94E411F901CA01015011099B
:101750006A3014F4605D01C0695CD8016C93232B7E
:10176000242B252B61F7B801C7010E946A0BA196B3
:101770000FB6F894DEBF0FBECDBFDF91CF911F91A2
:101780000F91FF90EF907F906F905F904F90089532
:10179000789484B5826084BD84B5816084BD85B54C
:1017A000826085BD85B5816085BD80916E00816058
:1017B00080936E00109281008091810082608093FE
:1017C0008100809181008160809381008091800000
:1017D0008160809380008091B10084608093B1002B
:1017E0008091B00081608093B00080917A00846025
:1017F00080937A0080917A00826080937A00809151
:101800007A00816080937A0080917A00806880936A
:101810007A001092C1001092A2021092A3021092BC
:10182000A4021092A502109260021092610210921E
:1018300062021092630260ED77E080E090E00E9427
:10184000690982EB92E09093A1028093A002E0915B
:10185000C202F091C30282E08083E091BE02F09167
:10186000BF021082E091C002F091C10280E180834A
:101870001092CA02E091C602F091C70286E080830E
:10188000E091C402F091C502808180618083E09183
:10189000C402F091C502808188608083E091C40217
:1018A000F091C502808180688083E091C402F0914C
:1018B000C50280818F7D80830E94A30960936002AE
:1018C0007093610280936202909363026CE172E014
:1018D0008091A0029091A1020E946A0B6AE070E0E0
:1018E00080E090E00E94690981E08093740282E0C8
:1018F00090E00E94B01006EA12E0FC011183008320
:1019000090935402809353028DE090E00E94B010B7
:10191000EC018CE191E0998388831B861A8686E02E
:1019200090E00E94B010FC0111821082138212829A
:10193000158214829F838E83998788871B830A83ED
:10194000D0935202C093510284EF882E992493942D
:10195000A12CB12C0E94A309672B682B692B41F4A1
:101960000E94A309623071058105910508F40AC13E
:101970000E94A3096093590270935A0280935B02FC
:1019800090935C02009155021091560220915702EB
:1019900030915802601771078207930740F46093F3
:1019A000550270935602809357029093580200910B
:1019B00055021091560220915702309158026B0146
:1019C0007C01C01AD10AE20AF30A970186010A3F94
:1019D00011052105310508F4D5C0609355027093B7
:1019E0005602809357029093580280926C02909214
:1019F0006D02A0926E02B0926F021092700210926D
:101A0000710210927202109273028091640290919E
:101A10006502A0916602B09167028093680290937C
:101A20006902A0936A02B0936B020E94A3096093BB
:101A300064027093650280936602909367020E942D
:101A4000A309609360027093610280936202909395
:101A500063020E94A3096B017C016EE272E0809137
:101A6000A0029091A1020E946A0B2AE041E050E09E
:101A700060E070E08091A0029091A1020E947F0B33
:101A800065E372E08091A0029091A1020E946A0B2E
:101A90002AE0B701A6018091A0029091A1020E94C4
:101AA0007F0B67E372E08091A0029091A1020E94F7
:101AB0006A0B8091640290916502A0916602B091D8
:101AC0006702B701A601481B590B6A0B7B0B2AE082
:101AD0008091A0029091A1020E947F0B67E372E0C7
:101AE0008091A0029091A1020E946A0B4091640231
:101AF0005091650260916602709167028091680260
:101B000090916902A0916A02B0916B02481B590B37
:101B10006A0B7B0B2AE08091A0029091A1020E94A7
:101B20007F0B69E372E08091A0029091A1020E9474
:101B30006A0B0E94A309AB01BC012AE08091A002BC
:101B40009091A1020E947F0BC091A002D091A102AE
:101B50006BE372E0CE010E946A0B6BE272E0CE0191
:101B60000E946A0B65E070E080E090E00E946909E5
:101B70000E94A309609364027093650280936602D9
:101B8000909367020E943A09E5CE8FEC93E00E94A1
:101B9000B8048DEF93E00C940605CF92DF92EF929C
:101BA000FF920F931F93CF93DF931F92CDB7DEB7B2
:101BB00082EB92E01092B5021092B40248EE53E02C
:101BC00060E070E04093B6025093B7026093B802B1
:101BD0007093B90228E531E03093B3022093B2024A
:101BE00025EC30E03093BF022093BE0224EC30E0BD
:101BF0003093C1022093C00220EC30E03093C30246
:101C00002093C20221EC30E03093C5022093C4023D
:101C100022EC30E03093C7022093C60226EC30E07D
:101C20003093C9022093C8021092CB021092CC02CA
:101C30001092CD021092CE021092640210926502B0
:101C40001092660210926702109268021092690266
:101C500010926A0210926B0210926C0210926D0246
:101C600010926E0210926F02109270021092710226
:101C7000109272021092730261E270E07093150488
:101C80006093140410921604109217041092180412
:101C900046E0C42ED12CE12CF12CC0921904D09234
:101CA0001A04E0921B04F0921C0410921D0410927E
:101CB0001E0410921F041092200440E2409321045D
:101CC0001092230410922204109226042FEF33E086
:101CD000309325042093240426EF31E03093FE0353
:101CE0002093FD0320E032E030931204209311048E
:101CF000109203041092020410920504109204043E
:101D0000109207041092060410920904109208041D
:101D100010920B0410920A0410920D0410920C04FD
:101D200024ED31E0309300042093FF0390931004DE
:101D300080930F0450E150930E047093EB03609373
:101D4000EA031092EC031092ED031092EE03C0929E
:101D5000EF03D092F003E092F103F092F2031092BD
:101D6000F3031092F4031092F5031092F6034093DC
:101D7000F7031092F9031092F8031092FC031092EB
:101D8000D1031092D2031092D3031092D40345EDE5
:101D900053E05093FB034093FA034EE751E0509316
:101DA000D0034093CF0348E851E05093E8034093B9
:101DB000E7031092D9031092D8031092DB0310921C
:101DC000DA031092DD031092DC031092DF0310920D
:101DD000DE031092E1031092E0031092E3031092ED
:101DE000E2033093D6032093D5039093E6038093C8
:101DF000E50328E02093E4039093B1028093B002BE
:101E00006BEE71E083E092E00E94491082E090E086
:101E10009093AB028093AA0283E090E09093AD028E
:101E20008093AC0287E090E09093AF028093AE0283
:101E30008EE390E00E94B0108C01DC0113961C929E
:101E40001E92129780E192E011969C938E93DB96FE
:101E50001C92DB97DC961C92DC97DD961C92780135
:101E6000B4E0EB0EF11CF801118610861386128681
:101E7000158681E0848782E28687138A128AB79664
:101E8000C801C5962FEF2193E817F907E1F781E024
:101E9000D80194968C93949726E732E05A963C9317
:101EA0002E9359975B968C935B975C961C925C97EC
:101EB0005D961C925D9780E45E968C935E975F962C
:101EC0001C925F9788E292E0D6969C938E93D5976A
:101ED0008CE091E017969C938E93169780E1D296B2
:101EE0008C9320E030E04AE06CE071E0C7010E9492
:101EF0003006D82ED801D596ED91FC91D69783E087
:101F00000995D801D596ED91FC91D69780E0099579
:101F1000DD20A1F1F801668177819E012F5F3F4F9F
:101F200046E4C7010E9430068981D80114968C933B
:101F3000149716966D917C9117979E012F5F3F4FD6
:101F400047E4C7010E9430068981F80185836681D4
:101F5000778120E030E048E4C7010E943006D801D4
:101F60001F968C931F9716966D917C9117979801E9
:101F7000295C3F4F47E1C7010E94300688E192E0AB
:101F8000F801918380831093A7020093A6028CE04E
:101F900090E00E94B0108C01E090AA02F090AB0299
:101FA000C090AC02D090AD028C2D0E94D90A8E2D2B
:101FB0000E94D90AC6019927FC01E452FF4FE4911F
:101FC000F0E0EE0FFF1FEE52FF4FA591B491F80124
:101FD000B183A083FC01E254FF4F2491F8012483D4
:101FE000C7019927FC01E452FF4FE491F0E0EE0FA6
:101FF000FF1FEE52FF4F45915491F80153834283E6
:10200000FC01E254FF4F8491F8018583178210860A
:10201000118612868BE39FE10197F1F78C912823BB
:1020200091E009F490E0DA012C91F8018581822396
:1020300009F09260D80116969C93B8018C2D0E94ED
:10204000AE0AF8018387B8018E2D0E94AE0AD8012E
:102050001B962C911B9790E0820F911D1B968C93E1
:102060001093A9020093A8020F90DF91CF911F91C6
:102070000F91FF90EF90DF90CF900895EE0FFF1F2C
:102080000590F491E02D099481E090E0F8940C948F
:1020900006120F931F93CF93DF93009731F46115CE
:1020A000710519F480E090E03AC08B01EC016EE01C
:1020B00070E081E090E00E949410FC01892B91F384
:1020C00080E883830115110571F01387028781E889
:1020D00083838091270490912804892B21F4F09325
:1020E0002804E09327042097C9F0D187C087838113
:1020F000826083838091290490912A04892B71F452
:10210000F0932A04E093290480912B0490912C04ED
:10211000892B21F4F0932C04E0932B04CF01DF9161
:10212000CF911F910F9108950F931F93CF93DF933A
:10213000869F8001879F100D969F100D1124C80166
:102140000E94B010EC01009729F0A80160E070E057
:102150000E94DD11CE01DF91CF911F910F91089563
:10216000CF93DF938230910510F482E090E0E0910C
:102170002F04F091300420E030E0C0E0D0E0309750
:1021800011F14081518148175907C0F0481759078C
:1021900061F482819381209719F09B838A832BC0FD
:1021A0009093300480932F0426C02115310519F037
:1021B0004217530718F49A01BE01DF01EF010280B4
:1021C000F381E02DDCCF2115310509F1281B390BF6
:1021D0002430310590F412968D919C9113976115DE
:1021E000710521F0FB019383828304C09093300436
:1021F00080932F04FD01329644C0FD01E20FF31FCE
:1022000081939193225031092D933C933AC02091B0
:102210002D0430912E04232B41F420911401309190
:10222000150130932E0420932D042091120130913A
:1022300013012115310541F42DB73EB74091160128
:1022400050911701241B350BE0912D04F0912E04C1
:10225000E217F307A0F42E1B3F0B2817390778F07D
:10226000AC014E5F5F4F2417350748F04E0F5F1FDC
:1022700050932E0440932D048193919302C0E0E08B
:10228000F0E0CF01DF91CF9108950F931F93CF938B
:10229000DF93009709F48CC0FC01329713821282FD
:1022A00000912F04109130040115110581F4208153
:1022B0003181820F931F20912D0430912E04281715
:1022C000390779F5F0932E04E0932D0471C0D801FD
:1022D00040E050E0AE17BF0750F412962D913C91AC
:1022E0001397AD012115310509F1D901F3CF9D01F6
:1022F000DA013383228360817181860F971F8217F1
:10230000930769F4EC0128813981260F371F2E5F6E
:102310003F4F318320838A819B8193838283452B26
:1023200029F4F0933004E0932F0442C01396FC93F9
:10233000EE931297ED01499159919E01240F351F9B
:10234000E217F30771F480819181840F951F029643
:1023500011969C938E938281938113969C938E9376
:102360001297E0E0F0E0D80112968D919C911397BE
:10237000009719F0F8018C01F6CF8D919C9198018E
:102380002E5F3F4F820F931F20912D0430912E041A
:102390002817390769F4309729F410923004109205
:1023A0002F0402C01382128210932E0400932D0476
:1023B000DF91CF911F910F910895DC0101C06D93C2
:1023C00041505040E0F70895A1E21A2EAA1BBB1B12
:1023D000FD010DC0AA1FBB1FEE1FFF1FA217B307F1
:1023E000E407F50720F0A21BB30BE40BF50B661F07
:1023F000771F881F991F1A9469F7609570958095CB
:1024000090959B01AC01BD01CF01089510E0C9E793
:10241000D0E004C0FE010E943E102196CA37D107C9
:06242000C9F7F894FFCF9C
:10242600AF09AF090840000000804F0346030401CE
:102436001E0800003104800000000000E9052306A4
:10244600A4000000000000000000B0091800000011
:10245600000000000000E8FFE8FF000000000000A8
:1024660014000000000000000000ECFFECFF00007C
:102476000000000000000000D108010B9A0878084F
:102486008C08180906000000000097049904FAFF5A
:10249600FAFF000098049B04180000000000B8042E
:1024A600CF04E8FFE8FF0000C504D9047E0132012D
:1024B6003C018801000000002D069504EA01E701B1
:1024C600E401E101DE01550151014E0138015801D7
:1024D600DC00DA00020000000000E504E704FEFF6D
:1024E600FEFF0000E604E904000000002F063105A7
:1024F600000000002E06E304EA01E701E401E10121
:10250600DE01D2018C0173015A01580154053305CD
:1025160014000000000006051D05ECFFECFF00009E
:1025260013052705F60146015001000200000000D0
:102536003406010B000000003406010B564D4450D2
:10254600565F317C315F564D4450560D0A00564D4C
:102556004450455F003A323A007C005F564D445085
:0225660045002E
:00000001FF
