:100000000C947A000C94740D0C944D0D0C94D70A3A
:100010000C947F0A0C94190A0C94A2000C94A20070
:100020000C94A2000C94A2000C94A2000C94A200C8
:100030000C94A2000C94A2000C94A2000C94A200B8
:100040000C94030D0C94A2000C94890C0C94630C7A
:100050000C94A2000C94A2000C94A2000C94A20098
:100060000C94A2000C94A200FFE0FFD1AFFF32FF7E
:10007000D0FFFEFFE0FFD1AEFFD0FFFEFFE0FFD1DB
:100080001002FFFEFFD0FFE0FFC1FFD1AED580A878
:100090003FD300408D142002A1C8DA1281CFD9F1DC
:1000A000DB402EA4A6AFFFD0FFFE0000000025001D
:1000B00028002B0000000000240027002A00010275
:1000C00004081020408001020408102001020408E6
:1000D000102000000000230026002900040404046E
:1000E00004040404020202020202030303030303E2
:1000F0000A12021211241FBECFEFD8E0DEBFCDBF1F
:1001000012E0A0E0B1E0E4EAFCE202C005900D924A
:10011000AA3AB107D9F724E0AAEAB2E001C01D92D9
:10012000A13AB207E1F710E0C9E7D0E004C0219797
:10013000FE010E947D14C837D107C9F70E94840EC2
:100140000C9445160C940000CF93DF93C0912003CC
:10015000D0912103E881F9810480F581E02DCE0161
:100160000995892BB9F3E881F9810680F781E02DA3
:10017000CE01DF91CF9109941F93CF93DF93182F76
:10018000C0912003D09121038A3041F4E881F981A4
:100190000190F081E02D6DE0CE010995E881F981B3
:1001A0000190F081E02D612FCE01099521E030E032
:1001B000019711F420E030E0C901DF91CF911F9148
:1001C00008950895DC011696ED91FC91179712960B
:1001D0008C91481B477081E090E001C0880F4A95E0
:1001E000EAF7E60FF11D3081222311F0832B02C0C4
:1001F0008095832380830895FB014181DC01129661
:100200002C911297421768F013962C91139724178C
:1002100040F0608115962C91621718F424810C949B
:10022000E2000895FC0180819281980F92832181E0
:10023000921760F494819F5F94839381890F821752
:1002400010F08FEF820F838381E0089580E008959E
:10025000FC0112828081815083831482089580E0A2
:100260000895FC01E60FF11D849190E0982F8827F6
:100270003196E4918E0F911D08952EE93FE000978D
:1002800029F0F9013197F1F70197F9CF089510920C
:10029000AB021092AA0208958093CD021092B90089
:1002A00084FF02C08CE001C088E48093B8000C9405
:1002B0004701DB011496ED91FC91159720E030E0A9
:1002C00065E00994DB011496ED91FC91159720E00F
:1002D00030E062E00994DB011496ED91FC911597F2
:1002E00020E030E063E00994CF92DF92EF92FF923A
:1002F0000F931F93CF93DF938C017B016A0180E002
:10030000F601C49181110BC0CF3F09F44CC04C2FB2
:10031000B701C8010E945901811143C049C0CF3FB4
:1003200011F44FEFF5CFCE3F09F444C0C03FC8F5FC
:10033000C03E38F04C2F4F70B701C8010E946201D7
:1003400030C0C03D38F04C2F4F70B701C8010E943B
:100350006B0127C0C03CF8F0D7011496ED91FC91D9
:10036000159720E030E040E064E0C8010995C295AF
:10037000C07FCE5FD0E0CE010E943D01D701149630
:10038000ED91FC91159720E030E041E064E0C80178
:100390000995CE0104C0C7FD04C08C2F90E00E94D7
:1003A0003D0180E001C081E0BFEFCB1ADB0AA8CF9E
:1003B00080E001C081E0DF91CF911F910F91FF900C
:1003C000EF90DF90CF9008958F929F92AF92BF925F
:1003D000CF92DF92FF920F931F93CF93DF9300D0C2
:1003E000CDB7DEB76C018B01F42E490120E1421735
:1003F00009F467C0241700F13AE0431729F18FE0B0
:10040000481369C041E0C6010E946B0140E0B80199
:10041000C6010E94620141E8B801C6010E9459016B
:10042000F4014081B801C6010E94590140E0B801C1
:10043000C6010E946B0108C1A1E14A1709F444C03A
:10044000B5E14B1791F047C0DB011496ED91FC919B
:10045000159720E030E042E061E0099544E850E083
:10046000B801C6010E94740136C0FB01A280B380AE
:100470004CE750E00E947401D50114964C91406BFA
:10048000B801C6010E94590141E0B801C6010E94AD
:100490006201F50126813781D8011496ED91FC9116
:1004A0001597D50115964C9166E0C6010995811105
:1004B00002C080E0CAC040E0B801C6010E946B01E2
:1004C0000AC043E750E002C048E650E0B801C60168
:1004D0000E947401B9C0D80112960D911C91139716
:1004E000B2E3FB1609F474C0BF15B8F0E5E1FE16DF
:1004F00009F47BC0F7E1FF1609F48DC024E1F21284
:10050000A3C0D8011696ED91FC91179715968C9182
:100510009F01280F311DC90160C036E4F31609F4AC
:100520008AC087E4F81609F48AC0ABE3FA128CC0DB
:10053000F40181819381913029F0933031F4482F77
:10054000885004C048E0480F01C0482F21E0D8017E
:1005500013963C91381708F420E031E0F8015281FD
:10056000451708F430E051E0481708F050E0822FBA
:10057000852B382319F4252309F466C0D40112967B
:10058000FC90913051F030F0923049F0933051F4BA
:100590002FEF09C020E031E007C021E004C020E0D7
:1005A0003FEF02C020E030E0F7FE08C0B401C80110
:1005B0002A8339830E94FC0039812A81F4018081D9
:1005C000830F80838181820F8183FF0C69F73CC098
:1005D000B401C8010E94FC0037C01192E817F90766
:1005E000E1F7C8010E9428012FC0C8010E94120132
:1005F000882309F45ECFD8011696ED91FC911797E8
:1006000015968C919F01280F311DC9011192E81791
:10061000F907E1F719C0D4011C92F8018281119603
:100620008C9311978581815012968C9312978381B8
:1006300013968C9309C0D80115968C9103C0D801EC
:1006400011968C91F401808381E00F900F90DF91DF
:10065000CF911F910F91FF90DF90CF90BF90AF90FF
:100660009F908F9008950C948415089508950C948C
:100670008415DC01ED91FC91369720813181820F48
:10068000931F0C943703FB0120813181FC013183DE
:100690002083FB0142815381F9013697208131810A
:1006A000FC01E20FF31F51834083089526EE31E0F1
:1006B000FC013183208320EF31E0318F208F66EF02
:1006C00071E00C944303DC01ED91FC91369720819D
:1006D0003181820F931F0C945603CF93DF93EC016B
:1006E0000E945603CE01DF91CF910C948415DC015A
:1006F000ED91FC91369720813181820F931F0C94EC
:100700006D030C948415089508950C948415DC01F0
:10071000ED91FC91369720813181820F931F0C94CB
:100720008503FB0120813181FC0131832083FB01A2
:1007300042815381F901369720813181FC01E20F1A
:10074000F31F5183408308952EE532E0FC0131838D
:10075000208328E632E0358B248B6EE672E00C9421
:1007600091030C948415CF92DF92EF92FF920F9336
:100770001F93CF93DF93EC016B01EC80FD8086E04B
:1007800090E0E114F10431F50E94EF148C01DC01DA
:100790001D921C9282E090E00E94EF14F6012081ED
:1007A0003181DC012D933C93F80195838483198377
:1007B0000883EA81FB8111830083D80111961C9282
:1007C0001E921396FC93EE93129781E090E09D8326
:1007D0008C832DC00E94EF148C01FC0111821082C9
:1007E00082E090E00E94EF14D6012D913C91FC0133
:1007F00031832083D80115969C938E931497EA81B8
:10080000FB818081918111969C938E931396FC932A
:10081000EE931297A081B18113961C930E931297B9
:1008200011830083BFEFEB1AFB0AFD82EC82DF919C
:10083000CF911F910F91FF90EF90DF90CF9008958F
:10084000CF93DF9300D0CDB7DEB77A836983BE0143
:100850006F5F7F4F0E960E94B3030F900F90DF9152
:10086000CF910895CF93DF9300D0CDB7DEB77A83D1
:100870006983BE016F5F7F4F40960E94B3030F9064
:100880000F90DF91CF910895CF92DF92EF92FF9278
:100890000F931F93CF93DF93EC016B01ED84FE84E4
:1008A00086E090E0E114F10421F50E94EF148C0140
:1008B000DC011D921C9282E090E00E94EF14FC018A
:1008C000D182C082D80115969C938E9314971A8773
:1008D0000987EB85FC851183008311961C921E927B
:1008E0001396FC93EE93129781E090E09E878D879C
:1008F00029C00E94EF148C01FC011182108282E059
:1009000090E00E94EF14DC01CD92DC92F801958317
:100910008483EB85FC8580819181D80111969C931D
:100920008E931396FC93EE931297A081B181139648
:100930001C930E93129711830083BFEFEB1AFB0AEF
:10094000FE86ED86DF91CF911F910F91FF90EF9082
:10095000DF90CF900895CF93DF93C091B602D091EE
:10096000B70281E088870E94F70C6C837D838E83B9
:100970009F83DF91CF910895089508950895DB0135
:10098000ED91FC9109940B96FC01849108950A96CF
:10099000FC018491089568E00C94310166E00C94A8
:1009A0003101FC01849108950E94D104882321F033
:1009B000823011F083E0089586E008959091AB02B3
:1009C000911104C08093AB026093AA0208951F9313
:1009D000CF93DF9300D0CDB7DEB720ED37E03A8379
:1009E00029839091BC00982399F429813A81232B83
:1009F00051F48091CD02182F127081FD09C081E061
:100A00000E94DE0406C029813A8121503109E7CFD6
:100A100011E0812F0F900F90DF91CF911F910895DA
:100A200084E98093BC0064E080E10C94E704CF93F8
:100A30008093BB0084E88093BC0063E080E80E9460
:100A4000E704C82F882389F08091CD02C82FC27097
:100A500081FD0AC08091B900887F883229F063E067
:100A600082E00E94DE0401C0C1E08C2FCF91089586
:100A7000CF93DF93FC0123A5222379F0EC010E94A0
:100A8000C60D811102C080E009C08EA1811180E4F1
:100A90000E9417058823B9F31BA681E0DF91CF914F
:100AA00008950F931F93CF93C42F89016330C1F032
:100AB00050F4613081F0623009F048C0FC0146A377
:100AC00021E023A743C0663011F1673079F165302A
:100AD00009F03CC00EC0FC0186A50E944C0136C046
:100AE000FC0116A221E023A7411130C00E9410058D
:100AF0002DC00E943805811104C00E94100580E0BD
:100B000026C08C2F0E941705811120C0F6CF0E94AD
:100B10003805882391F3CC23C9F0F80181918F0126
:100B20000E941705882349F3C150F5CF0E9438056C
:100B3000882319F3CC2351F0F80184910E94170502
:100B4000882329F00F5F1F4FC150F4CF81E0CF9170
:100B50001F910F910895EF92FF920F931F93CF93E0
:100B6000DF931F92CDB7DEB7DC011696ED90FC90B7
:100B70001797F70107811085D70119968D919C91E0
:100B80001A9708171907A9F0D8011496ED91FC914E
:100B9000159780819181DC01ED91FC910480F581B4
:100BA000E02DBE016F5F7F4F0995F801028113812F
:100BB000E3CF0F90DF91CF911F910F91FF90EF90B6
:100BC00008950895CB0108957F928F929F92AF92DE
:100BD000BF92CF92DF92EF92FF920F931F93CF932A
:100BE000DF93EC0149015A018B01C12CD12C760114
:100BF000C814D904EA04FB0484F5F80171908F014C
:100C00008F8580FF0BC0E881F9810084F185E02D9C
:100C100020E144E060E070E0CE010995EB85FC85C1
:100C20008D859E85E817F90738F470828B859C8541
:100C300001969C878B870BC0E881F981672D70E056
:100C4000028CF38DE02DCE010995019649F02FEF2E
:100C5000C21AD20AE20AF20ACBCFB401C50102C01D
:100C6000B601C701DF91CF911F910F91FF90EF90D7
:100C7000DF90CF90BF90AF909F908F907F9008951E
:100C8000CF93DF93EC01E881F9810288F389E02DAD
:100C900009958F3F2FEF920731F02D813E812F5F15
:100CA0003F4F3E832D83DF91CF9108958FEF9FEFCC
:100CB000089560E070E0CB01089580E090E0089531
:100CC000CB010895CF93DF93EC0188899989DC01EA
:100CD000ED91FC910480F581E02D0995892BA9F314
:100CE00088899989DC01ED91FC910680F781E02DDE
:100CF000DF91CF910994CF93DF93EC018889998993
:100D0000DC01ED91FC910480F581E02D0995892BA2
:100D1000A9F388899989DC01ED91FC910084F18522
:100D2000E02DDF91CF910994AF92BF92CF92DF92E5
:100D3000EF92FF920F931F93CF93DF9300D000D0D9
:100D4000CDB7DEB78C015B01C12CD12C7601F80147
:100D500080899189DC01ED91FC910680F781E02D7D
:100D600029833A834B835C83099529813A814B819E
:100D70005C818F3F71F0C216D306E406F5064CF491
:100D8000D5018D935D01BFEFCB1ADB0AEB0AFB0A9D
:100D9000DECFC701B6010F900F900F900F90DF913B
:100DA000CF911F910F91FF90EF90DF90CF90BF9068
:100DB000AF900895DC0150968D919C915197DC0184
:100DC000ED91FC910480F581E02D099480E090E0A4
:100DD000089580E090E0089580E090E0089580E03C
:100DE00090E0089508952F923F924F925F926F92F4
:100DF0007F928F929F92AF92BF92CF92DF92EF92AB
:100E0000FF920F931F93CF93DF931F92CDB7DEB75F
:100E10001C01A62EDC01DC96BC90DC97DB96EC90E6
:100E20006C01B4E0CB0ED11CDC015996ED91FC9124
:100E30005A97C6010995F82EF10100851185C80160
:100E40000E94D104982ED10118968D919C911997EA
:100E50000E94D404682EB1E09B1203C02FE0922EB2
:100E600002C099249A94F101808591850E94C7045B
:100E7000882ED10118968D919C9119970E94C304D8
:100E8000782EF101808591850E94CB04F0E6FA1559
:100E900038F4009729F0080F191F91E6892E13C026
:100EA000D10118968D919C9119970E94CE04B0E4BF
:100EB000BA1538F4009729F0080F191F81E4882E1D
:100EC00002C00F5E1F4F7A1438F4F101148A178A9A
:100ED000108E158A168A9EC07814B8F3262D30E03D
:100EE000F80184918F3F19F40F5F1F4F5AC08A1089
:100EF0004FC0D10118968D919C9119970E94D104F1
:100F000098012F5F3F4FF801882311F08230E1F400
:100F10008491D10157968C935797F9012491589653
:100F20002C935897F8013396E4915496EC93549788
:100F3000F8013496E4915596EC935597F80135965F
:100F4000E4915696EC9320C08491982F9F70925014
:100F5000D10156969C93569782958F7055968C9397
:100F60005597F9012491822F8F7058968C9358973A
:100F700022952F7057962C935797F8013296E4914B
:100F8000E295EF705496EC930115110579F442C087
:100F9000F8013296E491E921C9018E0F911D080FE5
:100FA000191F871409F491CF83949ACFF10180859A
:100FB00091850E94D404D10157963C915797589639
:100FC0002C91589755965C915597B21A56969C91CC
:100FD0005697B91AFB0C9FEF920F9F0DD8964C9124
:100FE000D897DA966C916F1518F0941728F402C010
:100FF000941768F09F1558F4E50E9FEF930F9E0D20
:10100000F10147A951AD5E1538F4941738F4F10198
:1010100084893FC080E03DC0941710F49E15B8F756
:10102000080F111D395F532E5694569456944F2C29
:10103000420E4101F0E28F0E911C652C712CF414CC
:1010400031F35E2D58018A2D801B8515F0F4F501D2
:101050008491D10116966D917C91179790965C932F
:1010600090979196FC92919793961C929397929653
:101070008C9394014BE3C60159830E94BF04BFEFD8
:10108000AB1ABB0A5981585FDECF060D171DF394CA
:10109000D6CFD101DB962C91DB97082E000C990B53
:1010A000820F911DDB968C9381E090E00F90DF9191
:1010B000CF911F910F91FF90EF90DF90CF90BF9055
:1010C000AF909F908F907F906F905F904F903F90E8
:1010D0002F9008950F931F93CF93DF938C01EB0113
:1010E0006F3F8FEF780719F480E090E00FC06A300F
:1010F00031F46DE0F801808991890E94FD0D6C2F1B
:10110000F801808991890E94FD0DCE01DF91CF9178
:101110001F910F9108958F929F92BF92CF92DF926D
:10112000EF92FF920F931F93CF93DF9300D000D0E5
:10113000CDB7DEB78C014B01C12CD12C7601C21684
:10114000D306E406F50644F5F401B1904F01FAE048
:10115000BF120EC06DE0F8018089918929833A831E
:101160004B835C830E94FD0D5C814B813A81298118
:101170006B2DF8018089918929833A834B835C83A5
:101180000E94FD0DFFEFCF1ADF0AEF0AFF0A5C8114
:101190004B813A812981D3CFCA01B9010F900F90B9
:1011A0000F900F90DF91CF911F910F91FF90EF90D3
:1011B000DF90CF90BF909F908F900895DC01ED91CC
:1011C000FC91369720813181820F931F0C94A403E8
:1011D000CF93DF93EC010E94A403CE01DF91CF9166
:1011E0000C948415DC01ED91FC91369720813181BE
:1011F000820F931F0C94E8088230A1F0833029F508
:101200007093AF026093AE028DE59CE09093030172
:101210008093020180916900837F846080936900DC
:10122000E99A11C07093AD026093AC0289E699E02F
:101230009093010180930001809169008C7F81600F
:1012400080936900E89A81E0089580E00895DC01C8
:10125000ED91FD918081ED91FD919081ED91FD9158
:101260006C9163708E2309F064609F2309F06860BD
:10127000E4E4F9E0E60FF11D659565956D936D91D8
:101280007D918D919D91099423C01AC012C016C002
:1012900010C01EC009C014C013C006C019C009C0C8
:1012A0000DC007C00DC014C0625070408040904017
:1012B0000BC0615070408040904006C06E5F01C01E
:1012C0006F5F7F4F8F4F9F4F9E938E937E936E9352
:1012D00008958091AC029091AD020C942709CF93B0
:1012E000DF93EC018EE691E0998388838AE791E0B1
:1012F0009B838A838C899D89E889F989892BF1F000
:101300000280F381E02DF98BE88B0190F081E02DD4
:10131000848195810E948415E889F9898081918171
:10132000009711F00E948415E889F98911821082D2
:101330008C899D8901979D8B8C8BDCCF84819581D5
:101340000E94841588899989009701F10E9484156B
:101350001DC00280F381E02DFA87E9870190F081BA
:10136000E02D848195810E948415E985FA8580812C
:101370009181009711F00E948415E985FA85118208
:1013800010828D859E8501979E878D878D859E8590
:10139000E985FA85892BE9F6848195810E94841577
:1013A00089859A85009721F0DF91CF910C9484155F
:1013B000DF91CF910895CF93DF93EC0184E491E026
:1013C0009983888380E591E09B838A838C859D85C2
:1013D000E885F985892BF1F00280F381E02DF9870A
:1013E000E8870190F081E02D848195810E94841529
:1013F000E885F98580819181009711F00E9484151C
:10140000E885F985118210828C859D8501979D87DD
:101410008C87DCCF848195810E948415888599858D
:10142000009721F0DF91CF910C948415DF91CF913B
:1014300008951F920F920FB60F9211242F933F938E
:101440004F935F936F937F938F939F93AF93BF93CC
:10145000CF93EF93FF9399B1C091B502C9238091C7
:10146000B2028927C8239093B202C4FF05C0E0915D
:101470000A01F0910B010995C5FF05C0E091080133
:10148000F09109010995C6FF05C0E0910601F091B0
:1014900007010995C7FF05C0E0910401F09105011E
:1014A0000995C0FF05C0E0911201F0911301099563
:1014B000C1FF05C0E0911001F09111010995C2FF33
:1014C00005C0E0910E01F0910F010995C3FF05C021
:1014D000E0910C01F0910D010995FF91EF91CF91F1
:1014E000BF91AF919F918F917F916F915F914F913C
:1014F0003F912F910F900FBE0F901F9018951F9244
:101500000F920FB60F9211242F933F934F935F9337
:101510006F937F938F939F93AF93BF93CF93EF93EB
:10152000FF9396B1C091B402C9238091B10289277B
:10153000C8239093B102C0FF05C0E0911E01F09155
:101540001F010995C1FF05C0E0911C01F0911D012B
:101550000995C2FF05C0E0911A01F0911B010995A0
:10156000C3FF05C0E0911801F09119010995C4FF6E
:1015700005C0E0911601F09117010995C5FF05C05E
:10158000E0911401F09115010995FF91EF91CF9130
:10159000BF91AF919F918F917F916F915F914F918B
:1015A0003F912F910F900FBE0F901F9018951F9293
:1015B0000F920FB60F9211242F933F934F935F9387
:1015C0006F937F938F939F93AF93BF93CF93EF933B
:1015D000FF9393B1C091B302C9238091B0028927D0
:1015E000C8239093B002C0FF05C0E0912A01F0919A
:1015F0002B010995C1FF05C0E0912801F091290157
:101600000995C2FF05C0E0912601F09127010995D7
:10161000C3FF05C0E0912401F09125010995C4FFA5
:1016200005C0E0912201F09123010995C5FF05C095
:10163000E0912001F09121010995FF91EF91CF9167
:10164000BF91AF919F918F917F916F915F914F91DA
:101650003F912F910F900FBE0F901F901895FC0196
:10166000918D828D981761F0828DDF01A80FB11DD9
:101670005D968C91928D9F5F9F73928F90E00895FD
:101680008FEF9FEF0895FC01918D828D981731F0B7
:10169000828DE80FF11D858D90E008958FEF9FEF0B
:1016A0000895FC01918D228D892F90E0805C9F4FE1
:1016B000821B91098F739927089582E293E00E941B
:1016C000510B21E0892B09F420E0822F0895FC01C1
:1016D000848DDF01A80FB11DA35ABF4F2C91848DBB
:1016E00090E001968F739927848FA689B7892C93F0
:1016F000A089B1898C9180648C93938D848D98138B
:1017000006C00288F389E02D80818F7D8083089553
:10171000EF92FF920F931F93CF93DF93EC0181E041
:10172000888F9B8D8C8D981305C0E889F9898081FD
:1017300085FD24C0F62E0B8D10E00F5F1F4F0F7339
:101740001127E02E8C8DE8120CC00FB607FCFACFE3
:10175000E889F989808185FFF5CFCE010E94670B6A
:10176000F1CF8B8DFE01E80FF11DE35AFF4FF082A0
:101770000B8FEA89FB898081806207C0EE89FF892F
:101780006083E889F98980818064808381E090E0CA
:10179000DF91CF911F910F91FF90EF900895CF931C
:1017A000DF93EC01888D8823C9F0EA89FB89808169
:1017B00085FD05C0A889B9898C9186FD0FC00FB63B
:1017C00007FCF5CF808185FFF2CFA889B9898C917C
:1017D00085FFEDCFCE010E94670BE7CFDF91CF9160
:1017E000089580E090E0892B29F00E945D0B811123
:1017F0000C94000008953FB7F8948091BD02909139
:10180000BE02A091BF02B091C00226B5A89B05C040
:101810002F3F19F00196A11DB11D3FBFBA2FA92F6F
:10182000982F8827820F911DA11DB11DBC01CD01EC
:1018300042E0660F771F881F991F4A95D1F70895D8
:101840008F929F92AF92BF92CF92DF92EF92FF92D0
:101850006B017C010E94FB0B4B015C01C114D104A4
:10186000E104F104F1F00E94FB0BDC01CB018819CB
:101870009909AA09BB09883E9340A105B10570F3F7
:1018800021E0C21AD108E108F10888EE880E83E051
:10189000981EA11CB11CC114D104E104F10419F774
:1018A000DDCFFF90EF90DF90CF90BF90AF909F90F3
:1018B0008F90089508950E9483148091AE029091B4
:1018C000AF020C9427091F920F920FB60F921124AA
:1018D0002F933F934F935F936F937F938F939F9338
:1018E000AF93BF93EF93FF9382E293E00E94670B65
:1018F000FF91EF91BF91AF919F918F917F916F91E8
:101900005F914F913F912F910F900FBE0F901F90BD
:1019100018951F920F920FB60F9211242F938F9349
:101920009F93EF93FF93E0913203F0913303808113
:10193000E0913803F091390382FD12C090818091CB
:101940003B038F5F8F7320913C03821751F0E0912E
:101950003B03F0E0EE5DFC4F958F80933B0301C0AD
:101960008081FF91EF919F918F912F910F900FBEEA
:101970000F901F901895CF93DF9390E0FC01E254F5
:10198000FF4F2491FC01E452FF4F8491882361F1C1
:1019900090E0880F991FFC01EC54FF4FC591D49142
:1019A000FC01E655FF4FA591B491611109C09FB7A5
:1019B000F8948881209582238883EC912E230BC094
:1019C000623061F49FB7F8943881822F8095832329
:1019D0008883EC912E2B2C939FBF06C08FB7F89471
:1019E000E8812E2B28838FBFDF91CF9108952FB7E9
:1019F000F8946091B9027091BA028091BB02909103
:101A0000BC022FBF08951F920F920FB60F921124A0
:101A10002F933F938F939F93AF93BF938091B9027E
:101A20009091BA02A091BB02B091BC023091B80271
:101A300023E0230F2D3720F40196A11DB11D05C011
:101A400026E8230F0296A11DB11D2093B8028093B2
:101A5000B9029093BA02A093BB02B093BC028091EA
:101A6000BD029091BE02A091BF02B091C00201964A
:101A7000A11DB11D8093BD029093BE02A093BF0231
:101A8000B093C002BF91AF919F918F913F912F91E1
:101A90000F900FBE0F901F9018951F920F920FB6C8
:101AA0000F9211242F933F934F935F936F937F93E4
:101AB0008F939F93AF93BF93EF93FF93E0910201B6
:101AC000F09103010995FF91EF91BF91AF919F9123
:101AD0008F917F916F915F914F913F912F910F90D7
:101AE0000FBE0F901F9018951F920F920FB60F9276
:101AF00011242F933F934F935F936F937F938F9313
:101B00009F93AF93BF93EF93FF93E0910001F09108
:101B100001010995FF91EF91BF91AF919F918F9135
:101B20007F916F915F914F913F912F910F900FBED9
:101B30000F901F901895CF92DF92EF92FF920F9324
:101B40001F93CF93DF936C017A018B01C0E0D0E04B
:101B5000CE15DF0589F0D8016D918D01D601ED918B
:101B6000FC910190F081E02DC6010995892B11F4BB
:101B70007E0102C02196ECCFC701DF91CF911F916A
:101B80000F91FF90EF90DF90CF900895CF9384EA6C
:101B90008093BC0061E080E80E94E704882359F04C
:101BA0008091B900887F883041F0803131F061E068
:101BB00082E00E94DE04C0E01DC088E78093BB0085
:101BC00084E88093BC0062E080E80E94E7048823F8
:101BD00091F38091CD02C82FC27081FD0AC080911F
:101BE000B900887F883129F062E082E00E94DE043B
:101BF00001C0C1E08C2FCF910895DC01ED91FC91E3
:101C00000190F081E02D09946115710579F0FB01D7
:101C100001900020E9F73197AF01461B570BDC011B
:101C2000ED91FC910280F381E02D099480E090E039
:101C300008954F925F926F927F92EF92FF920F936F
:101C40001F93CF93DF93CDB7DEB7A1970FB6F8946C
:101C5000DEBF0FBECDBF7C01FA01CB0119A222303D
:101C600008F42AE08E010F5D1F4F422E512C612C8B
:101C7000712CBF01A30192010E942316F901CA0130
:101C8000015011096A3014F4605D01C0695CD8012B
:101C90006C93232B242B252B61F7B801C7010E94DD
:101CA000040EA1960FB6F894DEBF0FBECDBFDF9134
:101CB000CF911F910F91FF90EF907F906F905F9069
:101CC0004F90089508950895CF93DF93EC010E94FB
:101CD0006F09CE01DF91CF910C94841502970C947B
:101CE000640E02970C946F09CF93DF93EC010E946E
:101CF000DB09CE01DF91CF910C94841502970C94EF
:101D0000740E02970C94DB09789484B5826084BDCC
:101D100084B5816084BD85B5826085BD85B58160EF
:101D200085BD80916E00816080936E00109281006D
:101D30008091810082608093810080918100816028
:101D400080938100809180008160809380008091E9
:101D5000B10084608093B1008091B0008160809375
:101D6000B00080917A00846080937A0080917A003C
:101D7000826080937A0080917A00816080937A00FB
:101D800080917A00806880937A001092C10010924E
:101D90001203109213031092140310921503109261
:101DA000D0021092D1021092D2021092D30260EDB2
:101DB00077E080E090E00E94200C82E293E0909334
:101DC000110380931003E0913203F091330382E01A
:101DD0008083E0912E03F0912F031082E091300375
:101DE000F091310380E1808310923A03E091360351
:101DF000F091370386E08083E0913403F09135035E
:101E0000808180618083E0913403F091350380818B
:101E100088608083E0913403F0913503808180688D
:101E20008083E0913403F091350380818F7D80833E
:101E30000E94F70C6093D0027093D1028093D2027B
:101E40009093D30264E872E08091100390911103A3
:101E50000E94040E6AE070E080E090E00E94200C96
:101E600081E08093E40282E090E00E94EF1406E1BA
:101E700013E0DC010D931C939093C4028093C30282
:101E80008FE090E00E94EF14EC0184E491E09983EC
:101E9000888380E591E09B838A831D861C8686E08B
:101EA00090E00E94EF14FC011182108213821282D2
:101EB00015821482998788879B878A871D830C8364
:101EC000D093C202C093C10289E190E00E94EF1456
:101ED000EC018EE691E0998388838AE791E09B8309
:101EE0008A831E861D8686E090E00E94EF14FC0126
:101EF0001182108213821282158214829A87898736
:101F00009C878B871D8A1C8A86E090E00E94EF14D4
:101F1000FC01118210821382128215821482998B25
:101F2000888B9B8B8A8B188F0F8B188660E0809133
:101F30001A030E94BB0C60E080911C030E94BB0C42
:101F400062E080911E030E94BB0CE0911803F091A7
:101F50001903F89488EC90E0A0E0B0E087839087C4
:101F6000A187B287789420911E0330911F032631F8
:101F7000310560F4283031050CF43FC22E303105B4
:101F80000CF43DC22E5088E0280F01C02FEF822FA5
:101F9000869586958695922F9770811137C021116D
:101FA00007C02BEA34E030932B0120932A01B1C003
:101FB000213039F42BEA34E03093290120932801B1
:101FC000A8C0223039F42BEA34E030932701209363
:101FD00026019FC0233039F42BEA34E030932501E9
:101FE0002093240196C0243039F42BEA34E0309356
:101FF0002301209322018DC0253009F08AC02BEAED
:1020000034E0309321012093200183C08130B9F561
:10201000283039F42BEA34E030931F0120931E015D
:1020200078C0293039F42BEA34E030931D01209335
:102030001C016FC02A3039F42BEA34E030931B01C5
:1020400020931A0166C02B3039F42BEA34E0309328
:102050001901209318015DC02C3039F42BEA34E0CB
:10206000309317012093160154C02D3009F051C050
:102070002BEA34E030931501209314014AC08230DA
:1020800009F077C0203139F42BEA34E030931301A2
:10209000209312013EC0213139F42BEA34E0309311
:1020A00011012093100135C0223139F42BEA34E0BC
:1020B00030930F0120930E012CC0233139F42BEA09
:1020C00034E030930D0120930C0123C0243139F406
:1020D0002BEA34E030930B0120930A011AC025311A
:1020E00039F42BEA34E0309309012093080111C040
:1020F000263139F42BEA34E03093070120930601AE
:1021000008C0273131F42BEA34E0309305012093E5
:10211000040141E050E001C0440F9A95EAF7282FEE
:1021200030E0F901ED54FD4F9081942B9083813084
:1021300039F020F0823049F499B103C093B101C065
:1021400096B1F901E055FD4F9083F901E559FF4F34
:102150009081492B40834091680021E030E0F901F3
:1021600002C0EE0FFF1F8A95E2F7CF01842B809308
:102170006800D093B702C093B602E881F9816091FC
:10218000C1027091C2020480F581E02DCE01099553
:102190008091B6029091B702DC01ED91FC9106802E
:1021A000F781E02D6091C1027091C2026115710545
:1021B00011F06E5F7F4F099584EF882E99249394D8
:1021C000A12CB12C0E94F70C672B682B692B41F4D2
:1021D0000E94F70C623071058105910508F40AC16F
:1021E0000E94F70C6093C9027093CA028093CB02DD
:1021F0009093CC020091C5021091C6022091C702B3
:102200003091C802601771078207930740F460930A
:10221000C5027093C6028093C7029093C8020091D2
:10222000C5021091C6022091C7023091C8026B010D
:102230007C01C01AD10AE20AF30A970186010A3F1B
:1022400011052105310508F4D5C06093C5027093CE
:10225000C6028093C7029093C8028092DC029092DB
:10226000DD02A092DE02B092DF021092E002109234
:10227000E1021092E2021092E3028091D402909166
:10228000D502A091D602B091D7028093D802909344
:10229000D902A093DA02B093DB020E94F70C60939C
:1022A000D4027093D5028093D6029093D7020E94F5
:1022B000F70C6093D0027093D1028093D202909376
:1022C000D3020E94F70C6B017C0166E972E08091F9
:1022D0001003909111030E94040E2AE041E050E0A7
:1022E00060E070E080911003909111030E94190E3C
:1022F0006DE972E080911003909111030E94040E29
:102300002AE0B701A60180911003909111030E9469
:10231000190E6FE972E080911003909111030E94F1
:10232000040E8091D4029091D502A091D602B09172
:10233000D702B701A601481B590B6A0B7B0B2AE099
:1023400080911003909111030E94190E6FE972E0C1
:1023500080911003909111030E94040E4091D402C9
:102360005091D5026091D6027091D7028091D80227
:102370009091D902A091DA02B091DB02481B590B6F
:102380006A0B7B0B2AE080911003909111030E944D
:10239000190E61EA72E080911003909111030E947E
:1023A000040E0E94F70CAB01BC012AE080911003DF
:1023B000909111030E94190EC0911003D091110346
:1023C00063EA72E0CE010E94040E63E972E0CE017E
:1023D0000E94040E65E070E080E090E00E94200C16
:1023E0000E94F70C6093D4027093D5028093D602BA
:1023F0009093D7020E94F10BE5CE80E1C5CD285025
:1024000080E0C2CD8FE394E00E9456038DE694E015
:102410000C94A403CF92DF92EF92FF920F931F933D
:10242000CF93DF931F92CDB7DEB782E293E0109295
:1024300025031092240348EE53E060E070E04093DF
:10244000260350932703609328037093290320ECFD
:1024500031E0309323032093220325EC30E03093C6
:102460002F0320932E0324EC30E03093310320938C
:10247000300320EC30E0309333032093320321EC1F
:1024800030E0309335032093340322EC30E0309376
:1024900037032093360326EC30E030933903209342
:1024A000380310923B0310923C0310923D031092AC
:1024B0003E031092D4021092D5021092D6021092CE
:1024C000D7021092D8021092D9021092DA0210921A
:1024D000DB021092DC021092DD021092DE021092FA
:1024E000DF021092E0021092E1021092E2021092DA
:1024F000E30261E270E070938504609384041092BB
:102500008604109287041092880446E0C42ED12CD1
:10251000E12CF12CC0928904D0928A04E0928B04C1
:10252000F0928C0410928D0410928E0410928F04FD
:102530001092900440E24093910410929304109200
:102540009204109296042FE634E030939504209381
:1025500094042EE532E030936E0420936D0428E657
:1025600032E030938204209381041092730410921D
:1025700072041092750410927404109277041092F1
:102580007604109279041092780410927B041092D1
:102590007A0410927D0410927C042CE332E0309394
:1025A000700420936F049093800480937F0450E123
:1025B00050937E0470935B0460935A0410925C0401
:1025C00010925D0410925E04C0925F04D092600489
:1025D000E0926104F0926204109263041092640429
:1025E0001092650410926604409367041092690487
:1025F0001092680410926C041092410410924204EC
:10260000109243041092440445E454E050936B0448
:1026100040936A0446EE51E05093400440933F04D7
:1026200040EF51E0509358044093570410924904EE
:102630001092480410924B0410924A0410924D04D8
:1026400010924C0410924F0410924E0410925104B8
:102650001092500410925304109252043093460486
:1026600020934504909356048093550428E02093CA
:102670005404909321038093200364EA70E08CEB70
:1026800090E00E94881482E090E090931B03809376
:102690001A0383E090E090931D0380931C0387E06E
:1026A00090E090931F0380931E038EE390E00E94BE
:1026B000EF148C01DC0113961C921E92129788E78E
:1026C00092E011969C938E93DB961C92DB97DC969E
:1026D0001C92DC97DD961C927801B4E0EB0EF11CA5
:1026E000F8011186108613861286158681E084878C
:1026F00082E28687138A128AB796C801C5962FEFA1
:102700002193E817F907E1F781E0D80194968C93BB
:1027100094972FE231E05A963C932E9359975B960B
:102720008C935B975C961C925C975D961C925D9770
:1027300080E45E968C935E975F961C925F9781EE25
:1027400090E0D6969C938E93D59784E391E017966C
:102750009C938E93169780E1D2968C9320E030E084
:102760004AE064E371E0C7010E94BF04D82ED8019B
:10277000D596ED91FC91D69783E00995D801D59631
:10278000ED91FC91D69780E00995DD20A1F1F8014B
:10279000668177819E012F5F3F4F46E4C7010E940B
:1027A000BF048981D80114968C93149716966D9165
:1027B0007C9117979E012F5F3F4F47E4C7010E940E
:1027C000BF048981F80185836681778120E030E04C
:1027D00048E4C7010E94BF04D8011F968C931F973D
:1027E00016966D917C9117979801295C3F4F47E1B0
:1027F000C7010E94BF0480E892E0F80191838083C2
:1028000010931703009316038CE090E00E94EF14DE
:102810008C01E0901A03F0901B03C0901C03D09031
:102820001D0362E08C2D0E94BB0C62E08E2D0E9485
:10283000BB0CC6019927FC01E452FF4FE491F0E084
:10284000EE0FFF1FEE52FF4FA591B491F801B18337
:10285000A083FC01E254FF4F2491F8012483C701B7
:102860009927FC01E452FF4FE491F0E0EE0FFF1FC7
:10287000EE52FF4F45915491F80153834283FC017E
:10288000E254FF4F8491F8018583178210861186E8
:1028900012868BE39FE10197F1F78C91282391E059
:1028A00009F490E0DA012C91F8018581822309F086
:1028B0009260D80116969C93B8018C2D0E94FC085A
:1028C000F8018387B8018E2D0E94FC08D8011B9661
:1028D0002C911B9790E0820F911D1B968C93109367
:1028E0001903009318030F90DF91CF911F910F915F
:1028F000FF90EF90DF90CF900895EE0FFF1F0590AF
:10290000F491E02D099481E090E0F8940C94451640
:102910000F931F93CF93DF93009731F461157105E7
:1029200019F480E090E03AC08B01EC016EE070E0B9
:1029300081E090E00E94D314FC01892B91F380E8A0
:1029400083830115110571F01387028781E8838362
:102950008091970490919804892B21F4F093980426
:10296000E09397042097C9F0D187C0878381826064
:1029700083838091990490919A04892B71F4F09348
:102980009A04E093990480919B0490919C04892B74
:1029900021F4F0939C04E0939B04CF01DF91CF914D
:1029A0001F910F9108950F931F93CF93DF93869FED
:1029B0008001879F100D969F100D1124C8010E9461
:1029C000EF14EC01009729F0A80160E070E00E948C
:1029D0001C16CE01DF91CF911F910F910895CF93D7
:1029E000DF938230910510F482E090E0E0919F0443
:1029F000F091A00420E030E0C0E0D0E0309711F189
:102A00004081518148175907C0F04817590761F4B0
:102A100082819381209719F09B838A832BC09093A6
:102A2000A00480939F0426C02115310519F0421798
:102A3000530718F49A01BE01DF01EF010280F38110
:102A4000E02DDCCF2115310509F1281B390B24308D
:102A5000310590F412968D919C9113976115710533
:102A600021F0FB019383828304C09093A0048093A0
:102A70009F04FD01329644C0FD01E20FF31F8193D4
:102A80009193225031092D933C933AC020919D049B
:102A900030919E04232B41F420913C0130913D0163
:102AA00030939E0420939D0420913A0130913B0184
:102AB0002115310541F42DB73EB740913E015091AB
:102AC0003F01241B350BE0919D04F0919E04E21719
:102AD000F307A0F42E1B3F0B2817390778F0AC0141
:102AE0004E5F5F4F2417350748F04E0F5F1F50931E
:102AF0009E0440939D048193919302C0E0E0F0E036
:102B0000CF01DF91CF9108950F931F93CF93DF9360
:102B1000009709F48CC0FC01329713821282009155
:102B20009F041091A0040115110581F420813181C9
:102B3000820F931F20919D0430919E04281739071E
:102B400079F5F0939E04E0939D0471C0D80140E0B4
:102B500050E0AE17BF0750F412962D913C91139799
:102B6000AD012115310509F1D901F3CF9D01DA013C
:102B70003383228360817181860F971F82179307A9
:102B800069F4EC0128813981260F371F2E5F3F4FF2
:102B9000318320838A819B8193838283452B29F40F
:102BA000F093A004E0939F0442C01396FC93EE932D
:102BB0001297ED01499159919E01240F351FE2179B
:102BC000F30771F480819181840F951F029611960D
:102BD0009C938E938281938113969C938E931297EC
:102BE000E0E0F0E0D80112968D919C911397009748
:102BF00019F0F8018C01F6CF8D919C9198012E5F10
:102C00003F4F820F931F20919D0430919E042817FF
:102C1000390769F4309729F41092A00410929F04A8
:102C200002C01382128210939E0400939D04DF91D0
:102C3000CF911F910F910895DC0101C06D93415018
:102C40005040E0F70895A1E21A2EAA1BBB1BFD011C
:102C50000DC0AA1FBB1FEE1FFF1FA217B307E4077B
:102C6000F50720F0A21BB30BE40BF50B661F771FD3
:102C7000881F991F1A9469F76095709580959095B3
:102C80009B01AC01BD01CF01089510E0C9E7D0E080
:102C900004C0FE010E947D142196CA37D107C9F7EE
:042CA000F894FFCFD6
:102CA4005A0C5A0CE105E105E105E105E105E105F0
:102CB400E105E105E105E105E105E105E105E105E0
:102CC400E105E105E105E105E105E1050840000054
:102CD4000080BF03E4012C0151050000A104800021
:102CE40000000000DB09740EAB05630EFEFF00005C
:102CF400810E7E0E620E00000000000000005B0CDE
:102D040000000000000000005B0C000000006F09E0
:102D1400640E44043204FEFF0000710E6E0E2004A3
:102D240000000000000000005B0C00000000000038
:102D340000005B0C18000000000000000000E8FF29
:102D4400E8FF000000000000140000000000000084
:102D54000000ECFFECFF0000000000000000000099
:102D6400880B9B0D510B2F0B430BCF0B0600000060
:102D7400000035033703FAFFFAFF00003603390376
:102D840018000000000056036D03E8FFE8FF000090
:102D940063037703E6019A01A401F0010000000037
:102DA400BC043303F206EF06EC06E906E6065D060C
:102DB4005906560640066006E405E20502000000D6
:102DC400000083038503FEFFFEFF000084038703E6
:102DD40000000000BE04B10300000000BD04810334
:102DE400F206EF06EC06E906E606DA0694067B062A
:102DF400620660068B086A08140000000000A40341
:102E0400E808ECFFECFF0000DE08F2085E02AE0109
:102E1400B801680200000000F3069B0D00000000EA
:102E2400F3069B0D564D4450565F317C315F564D31
:102E34004450560D0A00564D4450455F003A323A0C
:0A2E4400007C005F564D445045002D
:00000001FF
