:100000000C9484000C94CF0B0C94A80B0C94890DC9
:100010000C94310D0C94CB0C0C94AC000C94AC00F3
:100020000C94AC000C94AC000C94AC000C94AC00A0
:100030000C94AC000C94AC000C94AC000C94AC0090
:100040000C945E0B0C94AC000C9486070C94600727
:100050000C94AC000C94AC000C94AC000C94AC0070
:100060000C94AC000C94AC00FFE0FFD1AFFF32FF6A
:10007000D0FFFEFFE0FFD1AEFFD0FFFEFFE0FFD1DB
:100080001002FFFEFFD0FFE0FFC1FFD1AED580A878
:100090003FD300408D142002A1C8DA1281CFD9F1DC
:1000A000DB402EA4A6AFFFD0FFFE0000000025001D
:1000B00028002B0000000000240027002A00000078
:1000C0000008000201000003040700000000000017
:1000D00000000102040810204080010204081020E2
:1000E000010204081020000000002300260029005F
:1000F00004040404040404040202020202020303CE
:100100000303030333132B1311241FBECFEFD8E0D7
:10011000DEBFCDBF12E0A0E0B1E0E6EFFEE202C03C
:1001200005900D92AA3AB107D9F724E0AAEAB2E005
:1001300001C01D92A33AB207E1F710E0C3E8D0E096
:1001400004C02197FE010E94A615C238D107C9F745
:100150000E94A80E0C946E170C940000CF93DF93AE
:10016000C0912203D0912303E881F9810480F581B5
:10017000E02DCE010995892BB9F3E881F98106803C
:10018000F781E02DCE01DF91CF9109941F93CF939A
:10019000DF93182FC0912203D09123038A3041F4BA
:1001A000E881F9810190F081E02D6DE0CE010995A3
:1001B000E881F9810190F081E02D612FCE01099550
:1001C00021E030E0019711F420E030E0C901DF9137
:1001D000CF911F9108950895DC011696ED91FC9141
:1001E000179712968C91481B477081E090E001C0F0
:1001F000880F4A95EAF7E60FF11D3081222311F0AE
:10020000832B02C08095832380830895FB01418165
:10021000DC0112962C911297421768F013962C91DC
:100220001397241740F0608115962C91621718F4EB
:1002300024810C94EC000895FC0180819281980F38
:1002400092832181921760F494819F5F94839381BC
:10025000890F821710F08FEF820F838381E008955A
:1002600080E00895FC011282808181508383148292
:10027000089580E00895FC01E60FF11D849190E05F
:10028000982F88273196E4918E0F911D08952EE9BD
:100290003FE0009729F0F9013197F1F70197F9CF85
:1002A00008951092AB021092AA0208958093CF0293
:1002B0001092B90084FF02C08CE001C088E48093F2
:1002C000B8000C945101DB011496ED91FC91159747
:1002D00020E030E065E00994DB011496ED91FC919B
:1002E000159720E030E062E00994DB011496ED916F
:1002F000FC91159720E030E063E00994CF92DF9203
:10030000EF92FF920F931F93CF93DF938C017B01AA
:100310006A0180E0F601C49181110BC0CF3F09F45E
:100320004CC04C2FB701C8010E946301811143C02A
:1003300049C0CF3F11F44FEFF5CFCE3F09F444C091
:10034000C03FC8F5C03E38F04C2F4F70B701C80110
:100350000E946C0130C0C03D38F04C2F4F70B70187
:10036000C8010E94750127C0C03CF8F0D70114965F
:10037000ED91FC91159720E030E040E064E0C80189
:100380000995C295C07FCE5FD0E0CE010E944701A3
:10039000D7011496ED91FC91159720E030E041E0F3
:1003A00064E0C8010995CE0104C0C7FD04C08C2FCC
:1003B00090E00E94470180E001C081E0BFEFCB1ACE
:1003C000DB0AA8CF80E001C081E0DF91CF911F91CF
:1003D0000F91FF90EF90DF90CF9008958F929F92B2
:1003E000AF92BF92CF92DF92FF920F931F93CF9362
:1003F000DF9300D0CDB7DEB76C018B01F42E49013D
:1004000020E1421709F467C0241700F13AE04317CE
:1004100029F18FE0481369C041E0C6010E947501CF
:1004200040E0B801C6010E946C0141E8B801C60174
:100430000E946301F4014081B801C6010E9463017A
:1004400040E0B801C6010E94750108C1A1E14A1748
:1004500009F444C0B5E14B1791F047C0DB01149695
:10046000ED91FC91159720E030E042E061E00995C4
:1004700044E850E0B801C6010E947E0136C0FB018D
:10048000A280B3804CE750E00E947E01D501149613
:100490004C91406BB801C6010E94630141E0B80174
:1004A000C6010E946C01F50126813781D80114969E
:1004B000ED91FC911597D50115964C9166E0C6011A
:1004C0000995811102C080E0CAC040E0B801C601B0
:1004D0000E9475010AC043E750E002C048E650E0C0
:1004E000B801C6010E947E01B9C0D80112960D91D3
:1004F0001C911397B2E3FB1609F474C0BF15B8F052
:10050000E5E1FE1609F47BC0F7E1FF1609F48DC0A2
:1005100024E1F212A3C0D8011696ED91FC91179731
:1005200015968C919F01280F311DC90160C036E4DA
:10053000F31609F48AC087E4F81609F48AC0ABE31D
:10054000FA128CC0F40181819381913029F09330AB
:1005500031F4482F885004C048E0480F01C0482FAC
:1005600021E0D80113963C91381708F420E031E0DF
:10057000F8015281451708F430E051E0481708F0BF
:1005800050E0822F852B382319F4252309F466C007
:10059000D4011296FC90913051F030F0923049F035
:1005A000933051F42FEF09C020E031E007C021E083
:1005B00004C020E03FEF02C020E030E0F7FE08C0BA
:1005C000B401C8012A8339830E94060139812A8136
:1005D000F4018081830F80838181820F8183FF0CEE
:1005E00069F73CC0B401C8010E94060137C01192EE
:1005F000E817F907E1F7C8010E9432012FC0C801CE
:100600000E941C01882309F45ECFD8011696ED9153
:10061000FC91179715968C919F01280F311DC901E8
:100620001192E817F907E1F719C0D4011C92F801FB
:10063000828111968C9311978581815012968C93AB
:100640001297838113968C9309C0D80115968C91CB
:1006500003C0D80111968C91F401808381E00F9042
:100660000F90DF91CF911F910F91FF90DF90CF906E
:10067000BF90AF909F908F9008950C94AD16089501
:1006800008950C94AD16DC01ED91FC913697208114
:100690003181820F931F0C944103FB012081318132
:1006A000FC0131832083FB0142815381F90136979C
:1006B00020813181FC01E20FF31F518340830895B3
:1006C00026EE31E0FC013183208320EF31E0318FD1
:1006D000208F66EF71E00C944D03DC01ED91FC91ED
:1006E000369720813181820F931F0C946003CF9342
:1006F000DF93EC010E946003CE01DF91CF910C9457
:10070000AD16DC01ED91FC91369720813181820F8D
:10071000931F0C9477030C94AD16089508950C94D0
:10072000AD16DC01ED91FC91369720813181820F6D
:10073000931F0C948F03FB0120813181FC013183D5
:100740002083FB0142815381F90136972081318159
:10075000FC01E20FF31F5183408308952EE532E040
:10076000FC013183208328E632E0358B248B6EE652
:1007700072E00C949B030C94AD16CF92DF92EF9233
:10078000FF920F931F93CF93DF93EC016B01EC80EB
:10079000FD8086E090E0E114F10431F50E94181626
:1007A0008C01DC011D921C9282E090E00E941816E0
:1007B000F60120813181DC012D933C93F801958372
:1007C000848319830883EA81FB8111830083D80124
:1007D00011961C921E921396FC93EE93129781E051
:1007E00090E09D838C832DC00E9418168C01FC0123
:1007F0001182108282E090E00E941816D6012D919D
:100800003C91FC0131832083D80115969C938E93F3
:100810001497EA81FB818081918111969C938E933C
:100820001396FC93EE931297A081B18113961C93BB
:100830000E93129711830083BFEFEB1AFB0AFD8220
:10084000EC82DF91CF911F910F91FF90EF90DF909D
:10085000CF900895CF93DF9300D0CDB7DEB77A83E2
:100860006983BE016F5F7F4F44960E94BD030F9066
:100870000F90DF91CF910895CF93DF9300D0CDB744
:10088000DEB77A836983BE016F5F7F4F46960E9411
:10089000BD030F900F90DF91CF910895CF92DF921B
:1008A000EF92FF920F931F93CF93DF93EC016B01B5
:1008B000EB88FC8886E090E0E114F10421F50E94C9
:1008C00018168C01DC011D921C9282E090E00E94BF
:1008D0001816FC01D182C082D80115969C938E9384
:1008E0001497188B0F87E989FA8911830083119671
:1008F0001C921E921396FC93EE93129781E090E067
:100900009C8B8B8B29C00E9418168C01FC011182D4
:10091000108282E090E00E941816DC01CD92DC92F9
:10092000F80195838483E989FA8980819181D801CE
:1009300011969C938E931396FC93EE931297A0813D
:10094000B18113961C930E93129711830083BFEF0E
:10095000EB1AFB0AFC8AEB8ADF91CF911F910F9172
:10096000FF90EF90DF90CF900895CF93DF93C091E9
:10097000BA02D091BB0281E08E870E94F4076A8799
:100980007B878C879D87DF91CF9108950895089587
:100990000895DB01ED91FC9109940B96FC01849183
:1009A00008950A96FC018491089568E00C943B0137
:1009B00066E00C943B01FC01849108950E94DB04E5
:1009C000882321F0823011F083E0089586E00895B5
:1009D0009091AB02911104C08093AB026093AA0284
:1009E00008951F93CF93DF9300D0CDB7DEB720EDEE
:1009F00037E03A8329839091BC00982399F42981A8
:100A00003A81232B51F48091CF02182F127081FD6F
:100A100009C081E00E94E80406C029813A81215082
:100A20003109E7CF11E0812F0F900F90DF91CF9127
:100A30001F91089584E98093BC0064E080E10C94E8
:100A4000F104CF938093BB0084E88093BC0063E003
:100A500080E80E94F104C82F882389F08091CF029A
:100A6000C82FC27081FD0AC08091B900887F88328A
:100A700029F063E082E00E94E80401C0C1E08C2F0D
:100A8000CF910895CF93DF93FC0123A5222379F022
:100A9000EC010E940C0E811102C080E009C08EA101
:100AA000811180E40E9421058823B9F31BA681E00F
:100AB000DF91CF9108950F931F93CF93C42F890196
:100AC0006330C1F050F4613081F0623009F048C009
:100AD000FC0146A321E023A743C0663011F1673033
:100AE00079F1653009F03CC00EC0FC0186A50E947A
:100AF000560136C0FC0116A221E023A7411130C0E7
:100B00000E941A052DC00E944205811104C00E9456
:100B10001A0580E026C08C2F0E942105811120C07B
:100B2000F6CF0E944205882391F3CC23C9F0F80147
:100B300081918F010E942105882349F3C150F5CF8F
:100B40000E944205882319F3CC2351F0F8018491C7
:100B50000E942105882329F00F5F1F4FC150F4CF59
:100B600081E0CF911F910F910895CF92DF92EF9284
:100B7000FF920F931F93CF93DF9300D0CDB7DEB7D3
:100B80007C016B01DC0156960D911C915797D701A2
:100B900058968D919C91599708171907B9F0D8016B
:100BA0001496ED91FC91159780819181DC01ED9176
:100BB000FC910480F581E02DDA82C982BE016F5F6D
:100BC0007F4F0995F80102811381E1CF0F900F90BB
:100BD000DF91CF911F910F91FF90EF90DF90CF9019
:100BE0000895DC01ED91FD918081ED91FD91908161
:100BF000ED91FD916C9163708E2309F064609F23E9
:100C000009F06860EEE0F6E0E60FF11D6595659588
:100C10006D936D917D918D919D91099423C01AC022
:100C200012C016C010C01EC009C014C013C006C038
:100C300019C009C00DC007C00DC014C0625070407B
:100C4000804090400BC0615070408040904006C092
:100C50006E5F01C06F5F7F4F8F4F9F4F9E938E934C
:100C60007E936E930895FC01918D828D981761F0AB
:100C7000828DDF01A80FB11D5D968C91928D9F5FD3
:100C80009F73928F90E008958FEF9FEF0895FC017E
:100C9000918D828D981731F0828DE80FF11D858D31
:100CA00090E008958FEF9FEF0895FC01918D228DC4
:100CB000892F90E0805C9F4F821B91098F73992749
:100CC000089584E293E00E94550621E0892B09F4FF
:100CD00020E0822F0895FC01848DDF01A80FB11D53
:100CE000A35ABF4F2C91848D90E001968F73992762
:100CF000848FA689B7892C93A089B1898C9180644F
:100D00008C93938D848D981306C00288F389E02D0F
:100D100080818F7D80830895EF92FF920F931F93C0
:100D2000CF93DF93EC0181E0888F9B8D8C8D98139E
:100D300005C0E889F989808185FD24C0F62E0B8DD8
:100D400010E00F5F1F4F0F731127E02E8C8DE812FC
:100D50000CC00FB607FCFACFE889F989808185FFBE
:100D6000F5CFCE010E946B06F1CF8B8DFE01E80F0F
:100D7000F11DE35AFF4FF0820B8FEA89FB898081D6
:100D8000806207C0EE89FF896083E889F9898081E4
:100D90008064808381E090E0DF91CF911F910F917B
:100DA000FF90EF900895CF93DF93EC01888D882317
:100DB000C9F0EA89FB89808185FD05C0A889B989C8
:100DC0008C9186FD0FC00FB607FCF5CF808185FFA3
:100DD000F2CFA889B9898C9185FFEDCFCE010E9411
:100DE0006B06E7CFDF91CF91089580E090E0892BEB
:100DF00029F00E94610681110C94000008953FB70C
:100E0000F8948091B0029091B102A091B202B09199
:100E1000B30226B5A89B05C02F3F19F00196A11D6E
:100E2000B11D3FBFBA2FA92F982F8827820F911D80
:100E3000A11DB11DBC01CD0142E0660F771F881FC7
:100E4000991F4A95D1F708958F929F92AF92BF92C2
:100E5000CF92DF92EF92FF926B017C010E94FF061E
:100E60004B015C01C114D104E104F104F1F00E94D2
:100E7000FF06DC01CB0188199909AA09BB09883E44
:100E80009340A105B10570F321E0C21AD108E10831
:100E9000F10888EE880E83E0981EA11CB11CC114D5
:100EA000D104E104F10419F7DDCFFF90EF90DF905A
:100EB000CF90BF90AF909F908F9008950E94AC15F7
:100EC0001F920F920FB60F9211242F933F934F93BF
:100ED0005F936F937F938F939F93AF93BF93EF93A2
:100EE000FF9384E293E00E946B06FF91EF91BF9124
:100EF000AF919F918F917F916F915F914F913F91B2
:100F00002F910F900FBE0F901F9018951F920F9268
:100F10000FB60F9211242F938F939F93EF93FF930C
:100F2000E0913403F09135038081E0913A03F09130
:100F30003B0382FD12C0908180913D038F5F8F73D0
:100F400020913E03821751F0E0913D03F0E0EC5D0B
:100F5000FC4F958F80933D0301C08081FF91EF91FD
:100F60009F918F912F910F900FBE0F901F9018950A
:100F7000CF93DF9390E0FC01EE52FF4F2491FC01F0
:100F8000E051FF4F8491882361F190E0880F991F11
:100F9000FC01EC54FF4FC591D491FC01E655FF4F85
:100FA000A591B491611109C09FB7F89488812095EB
:100FB00082238883EC912E230BC0623061F49FB7AB
:100FC000F8943881822F809583238883EC912E2B8F
:100FD0002C939FBF06C08FB7F894E8812E2B2883EF
:100FE0008FBFDF91CF9108952FB7F8946091AC0235
:100FF0007091AD028091AE029091AF022FBF089523
:101000000895EF92FF920F931F93CF93DF931F9258
:10101000CDB7DEB7DC011696ED90FC901797F7017F
:1010200007811085D70119968D919C911A97081701
:101030001907A9F0D8011496ED91FC9115978081BC
:101040009181DC01ED91FC910480F581E02DBE01E0
:101050006F5F7F4F0995F80102811381E3CF0F90F5
:10106000DF91CF911F910F91FF90EF900895089518
:10107000CB0108957F928F929F92AF92BF92CF92B1
:10108000DF92EF92FF920F931F93CF93DF93EC01C8
:1010900049015A018B01C12CD12C7601C814D90405
:1010A000EA04FB0484F5F80171908F018F8580FFBD
:1010B0000BC0E881F9810084F185E02D20E144E056
:1010C00060E070E0CE010995EB85FC858D859E85FD
:1010D000E817F90738F470828B859C8501969C8708
:1010E0008B870BC0E881F981672D70E0028CF38D4E
:1010F000E02DCE010995019649F02FEFC21AD20AD0
:10110000E20AF20ACBCFB401C50102C0B601C701A1
:10111000DF91CF911F910F91FF90EF90DF90CF90D3
:10112000BF90AF909F908F907F900895CF93DF9363
:10113000EC01E881F9810288F389E02D09958F3F60
:101140002FEF920731F02D813E812F5F3F4F3E837D
:101150002D83DF91CF9108958FEF9FEF089560E089
:1011600070E0CB01089580E090E00895CB010895F0
:10117000CF93DF93EC0188899989DC01ED91FC9193
:101180000480F581E02D0995892BA9F38889998937
:10119000DC01ED91FC910680F781E02DDF91CF918C
:1011A0000994CF93DF93EC0188899989DC01ED9153
:1011B000FC910480F581E02D0995892BA9F388899C
:1011C0009989DC01ED91FC910084F185E02DDF919E
:1011D000CF910994AF92BF92CF92DF92EF92FF929C
:1011E0000F931F93CF93DF9300D000D0CDB7DEB71E
:1011F0008C015B01C12CD12C7601F8018089918989
:10120000DC01ED91FC910680F781E02D29833A8382
:101210004B835C83099529813A814B815C818F3FA7
:1012200071F0C216D306E406F5064CF4D5018D9391
:101230005D01BFEFCB1ADB0AEB0AFB0ADECFC70169
:10124000B6010F900F900F900F90DF91CF911F91EB
:101250000F91FF90EF90DF90CF90BF90AF900895E7
:10126000DC0150968D919C915197DC01ED91FC91A0
:101270000480F581E02D099480E090E0089580E0FD
:1012800090E0089580E090E0089580E090E0089577
:1012900008958091CC029091CD020C94F10580913B
:1012A000CA029091CB020C94F1052F923F924F927B
:1012B0005F926F927F928F929F92AF92BF92CF92E6
:1012C000DF92EF92FF920F931F93CF93DF931F92C2
:1012D000CDB7DEB71C01A62EDC01DC96BC90DC97F6
:1012E000DB96EC906C01B4E0CB0ED11CDC0159967E
:1012F000ED91FC915A97C6010995F82EF1010085F0
:101300001185C8010E94DB04982ED10118968D9199
:101310009C9119970E94DE04682EB1E09B1203C0D5
:101320002FE0922E02C099249A94F1018085918534
:101330000E94D104882ED10118968D919C91199705
:101340000E94CD04782EF101808591850E94D504FC
:10135000F0E6FA1538F4009729F0080F191F91E606
:10136000892E13C0D10118968D919C9119970E94D6
:10137000D804B0E4BA1538F4009729F0080F191F03
:1013800081E4882E02C00F5E1F4F7A1438F4F101F9
:10139000148A178A108E158A168A9EC07814B8F39C
:1013A000262D30E0F80184918F3F19F40F5F1F4F15
:1013B0005AC08A104FC0D10118968D919C911997EF
:1013C0000E94DB0498012F5F3F4FF801882311F042
:1013D0008230E1F48491D10157968C935797F901AB
:1013E000249158962C935897F8013396E49154968B
:1013F000EC935497F8013496E4915596EC935597F5
:10140000F8013596E4915696EC9320C08491982F7C
:101410009F709250D10156969C93569782958F70EB
:1014200055968C935597F9012491822F8F70589679
:101430008C93589722952F7057962C935797F801B5
:101440003296E491E295EF705496EC9301151105F4
:1014500079F442C0F8013296E491E921C9018E0F76
:10146000911D080F191F871409F491CF83949ACF07
:10147000F101808591850E94DE04D10157963C914F
:10148000579758962C91589755965C915597B21A44
:1014900056969C915697B91AFB0C9FEF920F9F0D91
:1014A000D8964C91D897DA966C916F1518F09417DE
:1014B00028F402C0941768F09F1558F4E50E9FEFCA
:1014C000930F9E0DF10147A951AD5E1538F49417A5
:1014D00038F4F10184893FC080E03DC0941710F4D6
:1014E0009E15B8F7080F111D395F532E5694569468
:1014F00056944F2C420E4101F0E28F0E911C652C48
:10150000712CF41431F35E2D58018A2D801B851542
:10151000F0F4F5018491D10116966D917C911797A5
:1015200090965C9390979196FC92919793961C92CB
:10153000939792968C9394014BE3C60159830E9432
:10154000C904BFEFAB1ABB0A5981585FDECF060D45
:10155000171DF394D6CFD101DB962C91DB97082E83
:10156000000C990B820F911DDB968C9381E090E02B
:101570000F90DF91CF911F910F91FF90EF90DF902F
:10158000CF90BF90AF909F908F907F906F905F9023
:101590004F903F902F9008950F931F93CF93DF9319
:1015A0008C01EB016F3F8FEF780719F480E090E03A
:1015B0000FC06A3031F46DE0F801808991890E9492
:1015C000430E6C2FF801808991890E94430ECE0151
:1015D000DF91CF911F910F9108958F929F92BF92AB
:1015E000CF92DF92EF92FF920F931F93CF93DF93EF
:1015F00000D000D0CDB7DEB78C014B01C12CD12C6F
:101600007601C216D306E406F50644F5F401B1905E
:101610004F01FAE0BF120EC06DE0F8018089918998
:1016200029833A834B835C830E94430E5C814B8108
:101630003A8129816B2DF8018089918929833A8328
:101640004B835C830E94430EFFEFCF1ADF0AEF0A41
:10165000FF0A5C814B813A812981D3CFCA01B9014C
:101660000F900F900F900F90DF91CF911F910F91DE
:10167000FF90EF90DF90CF90BF909F908F90089554
:10168000DC01ED91FC91369720813181820F931F0F
:101690000C94AE03CF93DF93EC010E94AE03CE0116
:1016A000DF91CF910C94AD16DC01ED91FC91369752
:1016B00020813181820F931F0C944A0B1F920F924D
:1016C0000FB60F9211242F933F938F939F93AF9355
:1016D000BF938091AC029091AD02A091AE02B09107
:1016E000AF023091CE0223E0230F2D3720F4019674
:1016F000A11DB11D05C026E8230F0296A11DB11D35
:101700002093CE028093AC029093AD02A093AE02E0
:10171000B093AF028091B0029091B102A091B20259
:10172000B091B3020196A11DB11D8093B0029093B8
:10173000B102A093B202B093B302BF91AF919F9157
:101740008F913F912F910F900FBE0F901F90189582
:101750001F920F920FB60F9211242F933F934F9326
:101760005F936F937F938F939F93AF93BF93EF9309
:10177000FF93E0912A01F0912B010995FF91EF91E0
:10178000BF91AF919F918F917F916F915F914F9199
:101790003F912F910F900FBE0F901F9018951F92A1
:1017A0000F920FB60F9211242F933F934F935F9395
:1017B0006F937F938F939F93AF93BF93EF93FF9319
:1017C000E0912801F09129010995FF91EF91BF91D6
:1017D000AF919F918F917F916F915F914F913F91C9
:1017E0002F910F900FBE0F901F9018958230A1F08F
:1017F000833029F57093CD026093CC0289E499E09F
:1018000090932B0180932A0180916900837F8460EB
:1018100080936900E99A11C07093CB026093CA0269
:101820008FE499E0909329018093280180916900C9
:101830008C7F816080936900E89A81E0089580E060
:101840000895CF93DF93EC018EE691E0998388832E
:101850008AE791E09B838A838A8D9B8DEE89FF893D
:10186000892BF1F00280F381E02DFF8BEE8B01904C
:10187000F081E02D848195810E94AD16EE89FF896B
:1018800080819181009711F00E94AD16EE89FF8949
:10189000118210828A8D9B8D01979B8F8A8FDCCF5E
:1018A000848195810E94AD168E899F89009701F1F0
:1018B0000E94AD161DC00280F381E02DF88BEF87EA
:1018C0000190F081E02D848195810E94AD16EF8515
:1018D000F88980819181009711F00E94AD16EF8503
:1018E000F889118210828B899C8901979C8B8B8B44
:1018F0008B899C89EF85F889892BE9F6848195810C
:101900000E94AD168F859889009721F0DF91CF91C5
:101910000C94AD16DF91CF910895CF93DF93EC0136
:1019200084E491E09983888380E591E09B838A83B6
:101930008C859D85E885F985892BF1F00280F381FE
:10194000E02DF987E8870190F081E02D8481958171
:101950000E94AD16E885F98580819181009711F08C
:101960000E94AD16E885F985118210828C859D85CF
:1019700001979D878C87DCCF848195810E94AD166D
:1019800088859985009721F0DF91CF910C94AD1651
:10199000DF91CF9108951F920F920FB60F921124ED
:1019A0002F933F934F935F936F937F938F939F9367
:1019B000AF93BF93CF93EF93FF9399B1C091B902C7
:1019C000C9238091B6028927C8239093B602C4FF29
:1019D00005C0E0910601F09107010995C5FF05C01A
:1019E000E0910401F09105010995C6FF05C0E09161
:1019F0000201F09103010995C7FF05C0E0910001C4
:101A0000F09101010995C0FF05C0E0910E01F09130
:101A10000F010995C1FF05C0E0910C01F0910D0186
:101A20000995C2FF05C0E0910A01F0910B010995EB
:101A3000C3FF05C0E0910801F09109010995FF91EC
:101A4000EF91CF91BF91AF919F918F917F916F91C6
:101A50005F914F913F912F910F900FBE0F901F906C
:101A600018951F920F920FB60F9211242F933F9348
:101A70004F935F936F937F938F939F93AF93BF9396
:101A8000CF93EF93FF9396B1C091B802C923809191
:101A9000B5028927C8239093B502C0FF05C0E09125
:101AA0001A01F0911B010995C1FF05C0E0911801D1
:101AB000F09119010995C2FF05C0E0911601F0915E
:101AC00017010995C3FF05C0E0911401F0911501BC
:101AD0000995C4FF05C0E0911201F0911301099529
:101AE000C5FF05C0E0911001F09111010995FF912A
:101AF000EF91CF91BF91AF919F918F917F916F9116
:101B00005F914F913F912F910F900FBE0F901F90BB
:101B100018951F920F920FB60F9211242F933F9397
:101B20004F935F936F937F938F939F93AF93BF93E5
:101B3000CF93EF93FF9393B1C091B702C9238091E4
:101B4000B4028927C8239093B402C0FF05C0E09176
:101B50002601F09127010995C1FF05C0E0912401FC
:101B6000F09125010995C2FF05C0E0912201F09195
:101B700023010995C3FF05C0E0912001F0912101E7
:101B80000995C4FF05C0E0911E01F0911F01099560
:101B9000C5FF05C0E0911C01F0911D010995FF9161
:101BA000EF91CF91BF91AF919F918F917F916F9165
:101BB0005F914F913F912F910F900FBE0F901F900B
:101BC0001895CF92DF92EF92FF920F931F93CF93CE
:101BD000DF936C017A018B01C0E0D0E0CE15DF0508
:101BE00089F0D8016D918D01D601ED91FC910190A4
:101BF000F081E02DC6010995892B11F47E0102C008
:101C00002196ECCFC701DF91CF911F910F91FF90EB
:101C1000EF90DF90CF900895CF9384EA8093BC003B
:101C200061E080E80E94F104882359F08091B900B6
:101C3000887F883041F0803131F061E082E00E949D
:101C4000E804C0E01DC088E78093BB0084E880936F
:101C5000BC0062E080E80E94F104882391F3809147
:101C6000CF02C82FC27081FD0AC08091B900887F61
:101C7000883129F062E082E00E94E80401C0C1E0FE
:101C80008C2FCF910895DC01ED91FC910190F081B2
:101C9000E02D09946115710579F0FB010190002098
:101CA000E9F73197AF01461B570BDC01ED91FC9131
:101CB0000280F381E02D099480E090E008954F9236
:101CC0005F926F927F92EF92FF920F931F93CF9349
:101CD000DF93CDB7DEB7A1970FB6F894DEBF0FBE86
:101CE000CDBF7C01FA01CB0119A2223008F42AE011
:101CF0008E010F5D1F4F422E512C612C712CBF01A4
:101D0000A30192010E944C17F901CA010150110967
:101D10006A3014F4605D01C0695CD8016C93232BB8
:101D2000242B252B61F7B801C7010E944A0EA1960A
:101D30000FB6F894DEBF0FBECDBFDF91CF911F91DC
:101D40000F91FF90EF907F906F905F904F9008956C
:101D5000CF93DF931F92CDB7DEB7789484B58260BE
:101D600084BD84B5816084BD85B5826085BD85B53F
:101D7000816085BD80916E00816080936E001092BD
:101D80008100809181008260809381008091810038
:101D900081608093810080918000816080938000C9
:101DA0008091B10084608093B1008091B000816027
:101DB0008093B00080917A00846080937A00809153
:101DC0007A00826080937A0080917A0081608093AB
:101DD0007A0080917A00806880937A001092C10026
:101DE0001092140310921503109216031092170309
:101DF0001092D2021092D3021092D4021092D50205
:101E000060ED77E080E090E00E94240784E293E0B8
:101E10009093130380931203E0913403F091350300
:101E200082E08083E0913003F09131031082E091F1
:101E30003203F091330380E1808310923C03E09100
:101E40003803F091390386E08083E0913603F09106
:101E50003703808180618083E0913603F0913703FE
:101E6000808188608083E0913603F0913703808120
:101E700080688083E0913603F091370380818F7D05
:101E800080830E94F4076093D2027093D302809300
:101E9000D4029093D50264E872E08091120390918D
:101EA00013030E944A0E6AE070E080E090E00E9416
:101EB000240781E08093E60282E090E00E941816F9
:101EC00038E1E32E33E0F32EDC01ED92FC929093A7
:101ED000C1028093C0028FE090E00E9418168C012E
:101EE00084E491E0F8019183808380E591E093831D
:101EF00082831586148686E090E00E941816FC0105
:101F0000118210821382128215821482D8011996CE
:101F10009C938E9318971B969C938E931A97159665
:101F2000FC92EE9214971093BF020093BE028FE1D1
:101F300090E00E9418168C018EE691E0F8019183E2
:101F400080838AE791E093838283148215821682CC
:101F50001782148A138A86E090E00E941816FC010A
:101F6000118210821382128215821482D801509637
:101F70009C938E931F9752969C938E9351975B964A
:101F80001C921E925A9786E090E00E941816FC015F
:101F9000118210821382128215821482D801579600
:101FA0009C938E93569759969C938E9358975E96D2
:101FB000FC92EE925D971E961C9260E080911C034D
:101FC0000E94B80760E080911E030E94B80762E09B
:101FD000809120030E94B807E0911A03F0911B033F
:101FE000F89488EC90E0A0E0B0E087839087A18728
:101FF000B287789420911C0330911D033327F90197
:10200000E254FF4F8491F901EE52FF4F9491F90190
:10201000E051FF4FE491EE23B9F1882339F1833089
:1020200091F038F48130A9F0823001F584B58F7DCC
:1020300012C0873091F08830A1F08430B9F48091DB
:1020400080008F7D03C0809180008F778093800017
:102050000DC084B58F7784BD09C08091B0008F77A3
:1020600003C08091B0008F7D8093B000F0E0EE0F50
:10207000FF1FEA51FF4FA591B491EC91E92391E044
:1020800080E021F490E002C090E080E0F8019087C9
:10209000818720912003309121032631310560F49E
:1020A000283031050CF4B0C22E3031050CF0AEC230
:1020B000285080E0280F01C02FEF822F869586954B
:1020C0008695922F9770811137C0211107C025EB9B
:1020D00034E03093270120932601B1C0213039F438
:1020E00025EB34E03093250120932401A8C0223051
:1020F00039F425EB34E030932301209322019FC073
:10210000233039F425EB34E0309321012093200172
:1021100096C0243039F425EB34E030931F0120932E
:102120001E018DC0253009F08AC025EB34E03093C4
:102130001D0120931C0183C08130B9F5283039F48A
:1021400025EB34E030931B0120931A0178C029302D
:1021500039F425EB34E030931901209318016FC056
:102160002A3039F425EB34E030931701209316011F
:1021700066C02B3039F425EB34E030931501209301
:1021800014015DC02C3039F425EB34E03093130199
:102190002093120154C02D3009F051C025EB34E0DA
:1021A00030931101209310014AC0823009F077C0AA
:1021B000203139F425EB34E030930F0120930E01E8
:1021C0003EC0213139F425EB34E030930D012093EA
:1021D0000C0135C0223139F425EB34E030930B018A
:1021E00020930A012CC0233139F425EB34E03093DD
:1021F00009012093080123C0243139F425EB34E090
:1022000030930701209306011AC0253139F425EBDC
:1022100034E0309305012093040111C0263139F4D4
:1022200025EB34E0309303012093020108C02731ED
:1022300031F425EB34E0309301012093000141E0BB
:1022400050E001C0440F9A95EAF7282F30E0F901D9
:10225000E954FD4F9081942B9083813039F020F028
:10226000823049F499B103C093B101C096B1F9012C
:10227000EC54FD4F9083F901E559FF4F9081492BB4
:1022800040834091680021E030E0690102C0CC0C3D
:10229000DD1C8A95E2F7C601842B809368001093B9
:1022A000BB020093BA0282E090E00E94181628E177
:1022B00033E0DC012D933C939093BD028093BC02EC
:1022C000D801ED91FC916091BE027091BF02048033
:1022D000F581E02DC80109958091BA029091BB0269
:1022E000DC01ED91FC910680F781E02D6091BE024A
:1022F0007091BF026115710511F06E5F7F4F0995F6
:1023000084EF882E99249394A12CB12C0E94F40779
:10231000672B682B692B41F40E94F407623071052A
:102320008105910508F40AC10E94F4076093C60272
:102330007093C7028093C8029093C9020091C202B1
:102340001091C3022091C4023091C5026017710739
:102350008207930740F46093C2027093C302809394
:10236000C4029093C5020091C2021091C302209151
:10237000C4023091C5026B017C01C01AD10AE20A85
:10238000F30A970186010A3F11052105310508F47A
:10239000D5C06093C2027093C3028093C40290932D
:1023A000C5028092DE029092DF02A092E002B0921B
:1023B000E1021092E2021092E3021092E402109203
:1023C000E5028091D6029091D702A091D802B091F7
:1023D000D9028093DA029093DB02A093DC02B093DF
:1023E000DD020E94F4076093D6027093D7028093B7
:1023F000D8029093D9020E94F4076093D20270939E
:10240000D3028093D4029093D5020E94F4076B010B
:102410007C0166E972E080911203909113030E949F
:102420004A0E2AE041E050E060E070E08091120343
:10243000909113030E945F0E6DE972E08091120388
:10244000909113030E944A0E2AE0B701A6018091E1
:102450001203909113030E945F0E6FE972E0809166
:102460001203909113030E944A0E8091D60290911C
:10247000D702A091D802B091D902B701A601481B9A
:10248000590B6A0B7B0B2AE0809112039091130386
:102490000E945F0E6FE972E0809112039091130326
:1024A0000E944A0E4091D6025091D7026091D80204
:1024B0007091D9028091DA029091DB02A091DC0246
:1024C000B091DD02481B590B6A0B7B0B2AE080910F
:1024D0001203909113030E945F0E61EA72E08091F3
:1024E0001203909113030E944A0E0E94F407AB015D
:1024F000BC012AE080911203909113030E945F0EA9
:10250000009112031091130363EA72E0C8010E9464
:102510004A0E63E972E0C8010E944A0E65E070E06D
:1025200080E090E00E9424070E94F4076093D602A6
:102530007093D7028093D8029093D9020091BA0287
:102540001091BB02D8011E968C91811110C0D80148
:102550005D96ED91FC915E97E280F380F7018385B3
:10256000823050F5F894C7010E94F10526C0D801C9
:102570001E961C921E971F96ED90FC905097D801C6
:1025800051968D919C915297E816F90601F3D70167
:102590001496ED91FC91159780819181DC01ED916C
:1025A000FC910480F581E02DBE016F5F7F4F09959E
:1025B000F701E280F380E3CFF894F701C780D0847D
:1025C000E184F2847894F80184819581A681B781B1
:1025D000C816D906EA06FB06A1F0C816D906EA060F
:1025E000FB061CF460E070E002C061E070E0C8012E
:1025F0000E94B505D8011496CD92DD92ED92FC9221
:1026000017970E94F50682CE80E154CD2E5088E0C7
:1026100051CD08950895CF93DF93EC010E94210CD2
:10262000CE01DF91CF910C94AD1602970C940B1351
:1026300002970C94210CCF93DF93EC010E948D0C38
:10264000CE01DF91CF910C94AD1602970C941B1321
:1026500002970C948D0C81E494E00E9460038FE655
:1026600094E00C94AE03CF92DF92EF92FF920F931F
:102670001F93CF93DF931F92CDB7DEB784E293E031
:10268000109227031092260348EE53E060E070E0BA
:10269000409328035093290360932A0370932B03DC
:1026A00020EC31E0309325032093240325EC30E027
:1026B000309331032093300324EC30E03093330324
:1026C0002093320320EC30E0309335032093340321
:1026D00021EC30E0309337032093360322EC30E0D6
:1026E000309339032093380326EC30E030933B03DA
:1026F00020933A0310923D0310923E0310923F0341
:10270000109240031092D6021092D7021092D80273
:102710001092D9021092DA021092DB021092DC02BF
:102720001092DD021092DE021092DF021092E0029F
:102730001092E1021092E2021092E3021092E4027F
:102740001092E50261E270E0709387046093860462
:10275000109288041092890410928A0446E0C42ED4
:10276000D12CE12CF12CC0928B04D0928C04E092FD
:102770008D04F0928E0410928F04109290041092A7
:1027800091041092920440E24093930410929504B5
:10279000109294041092980421E734E03093970447
:1027A000209396042EE532E03093700420936F045A
:1027B00028E632E030938404209383041092750459
:1027C0001092740410927704109276041092790497
:1027D0001092780410927B0410927A0410927D0477
:1027E00010927C0410927F0410927E042CE332E05D
:1027F0003093720420937104909382048093810437
:1028000050E15093800470935D0460935C041092D7
:102810005E0410925F0410926004C0926104D09232
:102820006204E0926304F0926404109265041092D2
:102830006604109267041092680440936904109231
:102840006B0410926A0410926E041092430410926A
:102850004404109245041092460447E454E0509317
:102860006D0440936C0446EE51E050934204409353
:10287000410440EF51E050935A04409359041092A0
:102880004B0410924A0410924D0410924C04109282
:102890004F0410924E041092510410925004109262
:1028A0005304109252041092550410925404309321
:1028B000480420934704909358048093570428E0D9
:1028C0002093560490932303809322036EEA70E0D2
:1028D00086EC90E00E94B11582E090E090931D0399
:1028E00080931C0383E090E090931F0380931E036A
:1028F00087E090E090932103809320038EE390E0A3
:102900000E9418168C01DC0113961C921E921297DD
:1029100088E792E011969C938E93DB961C92DB974E
:10292000DC961C92DC97DD961C927801B4E0EB0EED
:10293000F11CF8011186108613861286158681E037
:10294000848782E28687138A128AB796C801C59661
:102950002FEF2193E817F907E1F781E0D80194966A
:102960008C93949729E331E05A963C932E93599790
:102970005B968C935B975C961C925C975D961C9221
:102980005D9780E45E968C935E975F961C925F974E
:102990008BEE90E0D6969C938E93D59784E391E04E
:1029A00017969C938E93169780E1D2968C9320E095
:1029B00030E04AE064E371E0C7010E94C904D82E08
:1029C000D801D596ED91FC91D69783E00995D80171
:1029D000D596ED91FC91D69780E00995DD20A1F187
:1029E000F801668177819E012F5F3F4F46E4C70162
:1029F0000E94C9048981D80114968C931497169665
:102A00006D917C9117979E012F5F3F4F47E4C7015F
:102A10000E94C9048981F80185836681778120E05D
:102A200030E048E4C7010E94C904D8011F968C9386
:102A30001F9716966D917C9117979801295C3F4FCF
:102A400047E1C7010E94C90480E892E0F801918340
:102A5000808310931903009318038CE090E00E9488
:102A600018168C01E0901C03F0901D03C0901E030B
:102A7000D0901F0362E08C2D0E94B80762E08E2D7B
:102A80000E94B807C6019927FC01E051FF4FE4916D
:102A9000F0E0EE0FFF1FEA51FF4FA591B491F8014E
:102AA000B183A083FC01EE52FF4F2491F8012483EF
:102AB000C7019927FC01E051FF4FE491F0E0EE0FD0
:102AC000FF1FEA51FF4F45915491F8015383428310
:102AD000FC01EE52FF4F8491F80185831782108626
:102AE000118612868BE39FE10197F1F78C912823E1
:102AF00091E009F490E0DA012C91F80185818223BC
:102B000009F09260D80116969C93B8018C2D0E9412
:102B1000F60BF8018387B8018E2D0E94F60BD801C1
:102B20001B962C911B9790E0820F911D1B968C9306
:102B300010931B0300931A030F90DF91CF911F9105
:102B40000F91FF90EF90DF90CF900895EE0FFF1F51
:102B50000590F491E02D099481E090E0F8940C94B4
:102B60006E170F931F93CF93DF93009731F4611586
:102B7000710519F480E090E03AC08B01EC016EE041
:102B800070E081E090E00E94FC15FC01892B91F33C
:102B900080E883830115110571F01387028781E8AE
:102BA00083838091990490919A04892B21F4F09366
:102BB0009A04E09399042097C9F0D187C087838154
:102BC0008260838380919B0490919C04892B71F493
:102BD000F0939C04E0939B0480919D0490919E044B
:102BE000892B21F4F0939E04E0939D04CF01DF91A3
:102BF000CF911F910F9108950F931F93CF93DF9360
:102C0000869F8001879F100D969F100D1124C8018B
:102C10000E941816EC01009729F0A80160E070E00E
:102C20000E944517CE01DF91CF911F910F9108951A
:102C3000CF93DF938230910510F482E090E0E09131
:102C4000A104F091A20420E030E0C0E0D0E0309791
:102C500011F14081518148175907C0F048175907B1
:102C600061F482819381209719F09B838A832BC022
:102C70009093A2048093A10426C02115310519F078
:102C80004217530718F49A01BE01DF01EF010280D9
:102C9000F381E02DDCCF2115310509F1281B390B1B
:102CA0002430310590F412968D919C911397611503
:102CB000710521F0FB019383828304C09093A204E9
:102CC0008093A104FD01329644C0FD01E20FF31F81
:102CD00081939193225031092D933C933AC02091D6
:102CE0009F043091A004232B41F420913C013091AA
:102CF0003D013093A00420939F0420913A0130912C
:102D00003B012115310541F42DB73EB740913E01FD
:102D100050913F01241B350BE0919F04F091A004DA
:102D2000E217F307A0F42E1B3F0B2817390778F0A2
:102D3000AC014E5F5F4F2417350748F04E0F5F1F01
:102D40005093A00440939F048193919302C0E0E0CC
:102D5000F0E0CF01DF91CF9108950F931F93CF93B0
:102D6000DF93009709F48CC0FC0132971382128222
:102D70000091A1041091A2040115110581F4208194
:102D80003181820F931F20919F043091A004281756
:102D9000390779F5F093A004E0939F0471C0D8013E
:102DA00040E050E0AE17BF0750F412962D913C91D1
:102DB0001397AD012115310509F1D901F3CF9D011B
:102DC000DA013383228360817181860F971F821716
:102DD000930769F4EC0128813981260F371F2E5F94
:102DE0003F4F318320838A819B8193838283452B4C
:102DF00029F4F093A204E093A10442C01396FC933B
:102E0000EE931297ED01499159919E01240F351FC0
:102E1000E217F30771F480819181840F951F029668
:102E200011969C938E938281938113969C938E939B
:102E30001297E0E0F0E0D80112968D919C911397E3
:102E4000009719F0F8018C01F6CF8D919C919801B3
:102E50002E5F3F4F820F931F20919F043091A0045B
:102E60002817390769F4309729F41092A2041092B8
:102E7000A10402C0138212821093A00400939F0445
:102E8000DF91CF911F910F910895DC0101C06D93E7
:102E900041505040E0F70895A1E21A2EAA1BBB1B37
:102EA000FD010DC0AA1FBB1FEE1FFF1FA217B30716
:102EB000E407F50720F0A21BB30BE40BF50B661F2C
:102EC000771F881F991F1A9469F7609570958095F0
:102ED00090959B01AC01BD01CF01089510E0C3E8BE
:102EE000D0E004C0FE010E94A6152196C438D10787
:062EF000C9F7F894FFCFC2
:102EF60037083708370837083708370837083708D4
:102F060037083708370837083708370837083708C3
:102F16003708370837083708000800080840000057
:102F26000080C103EE012C015B050000A3048000B4
:102F3600000000008D0C1B1301080A13FEFF0000A1
:102F460028132513091300000000000000005E0787
:102F560000000000000000005E0700000000210CD9
:102F66000B134E043C04FEFF0000181315132A042D
:102F760000000000000000005E07000000000000E6
:102F860000005E0718000000000000000000E8FFD7
:102F9600E8FF000000000000140000000000000030
:102FA6000000ECFFECFF0000000000000000000045
:102FB6008C06E10D550633064706D30606000000CB
:102FC60000003F034103FAFFFAFF000040034303FA
:102FD60018000000000060037703E8FFE8FF000028
:102FE6006D038103E6019A01A401F00100000000CF
:102FF600C6043D034809450942093F093C09B3088F
:10300600AF08AC089608B6083A083808020000006F
:1030160000008D038F03FEFFFEFF00008E03910369
:1030260000000000C804BB0300000000C7048B03B7
:103036004809450942093F093C093009EA08D1080F
:10304600B808B608ED0ACC0A140000000000AE036A
:103056004A0BECFFECFF0000400B540B5E02AE0186
:10306600B8016802000000005509E10D00000000EB
:103076005509E10D564D4450565F317C315F564D32
:103086004450560D0A00564D4450455F003A323AB8
:0A309600007C005F564D44504500D9
:00000001FF
