:100000000C948F000C9431100C940A100C94210C59
:100010000C94C90B0C94630B0C94B7000C94B700B0
:100020000C94B7000C94B7000C94B7000C94B70074
:100030000C94B7000C94B7000C94B7000C94B70064
:100040000C94C00F0C94B7000C94BC080C94960848
:100050000C94B7000C94B7000C94B7000C94B70044
:100060000C94B7000C94B700FFE0FFD1AFFF32FF54
:10007000D0FFFEFFE0FFD1AEFFD0FFFEFFE0FFD1DB
:100080001002FFFEFFD0FFE0FFC1FFD1AED580A878
:100090003FD300408D142002A1C8DA1281CFD9F1DC
:1000A000DB402EA4A6AFFFD0FFFE00000008000238
:1000B0000100000304070000000000000000486584
:1000C0006174203A0054656D70203A0053657420C5
:1000D000203A0001020408102040800102040810A8
:1000E000200102040810200000000023002600293F
:1000F00000040404040404040402020202020203D1
:10010000030303030300000000250028002B000068
:10011000000000240027002A000068156015112443
:100120001FBECFEFD8E0DEBFCDBF12E0A0E0B1E050
:10013000E2ECF5E302C005900D92A43BB107D9F7BC
:1001400024E0A4EBB2E001C01D92AD3AB207E1F7A2
:1001500010E0CEE8D0E004C02197FE010E94EB172A
:10016000CD38D107C9F70E9483100C94D41A0C948F
:100170000000CB010895CF93DF93EC018889998922
:10018000DC01ED91FC910480F581E02D0995892B2E
:10019000A9F388899989DC01ED91FC910680F781AA
:1001A000E02DDF91CF910994CF93DF93EC01888903
:1001B0009989DC01ED91FC910480F581E02D099590
:1001C000892BA9F388899989DC01ED91FC91008440
:1001D000F185E02DDF91CF910994AF92BF92CF923C
:1001E000DF92EF92FF920F931F93CF93DF9300D094
:1001F00000D0CDB7DEB78C015B01C12CD12C7601CC
:10020000F80180899189DC01ED91FC910680F781EC
:10021000E02D29833A834B835C83099529813A81B8
:100220004B815C818F3F71F0C216D306E406F50660
:100230004CF4D5018D935D01BFEFCB1ADB0AEB0ABD
:10024000FB0ADECFC701B6010F900F900F900F9001
:10025000DF91CF911F910F91FF90EF90DF90CF90A2
:10026000BF90AF900895DC0150968D919C9151976D
:10027000DC01ED91FC910480F581E02D099480E092
:1002800090E0089580E090E0089580E090E0089587
:1002900080E090E008950895CF93DF93C0911F030D
:1002A000D0912003E881F9810480F581E02DCE0111
:1002B0000995892BB9F3E881F9810680F781E02D52
:1002C000CE01DF91CF9109941F93CF93DF93182F25
:1002D000C0911F03D09120038A3041F4E881F98155
:1002E0000190F081E02D6DE0CE010995E881F98162
:1002F0000190F081E02D612FCE01099521E030E0E1
:10030000019711F420E030E0C901DF91CF911F91F6
:1003100008950895DC011696ED91FC9117971296B9
:100320008C91481B477081E090E001C0880F4A958E
:10033000EAF7E60FF11D3081222311F0832B02C072
:100340008095832380830895FB014181DC0112960F
:100350002C911297421768F013962C91139724173B
:1003600040F0608115962C91621718F424810C944A
:100370008A010895FC0180819281980F92832181E6
:10038000921760F494819F5F94839381890F821701
:1003900010F08FEF820F838381E0089580E008954D
:1003A000FC0112828081815083831482089580E051
:1003B0000895FC01E60FF11D849190E0982F8827A5
:1003C0003196E4918E0F911D08952EE93FE000973C
:1003D00029F0F9013197F1F70197F9CF08951092BB
:1003E000B5021092B40208958093CC021092B90025
:1003F00084FF02C08CE001C088E48093B8000C94B4
:10040000EF01DB011496ED91FC91159720E030E0AF
:1004100065E00994DB011496ED91FC91159720E0BD
:1004200030E062E00994DB011496ED91FC911597A0
:1004300020E030E063E00994CF92DF92EF92FF92E8
:100440000F931F93CF93DF938C017B016A0180E0B0
:10045000F601C49181110BC0CF3F09F44CC04C2F61
:10046000B701C8010E940102811143C049C0CF3FBA
:1004700011F44FEFF5CFCE3F09F444C0C03FC8F5AB
:10048000C03E38F04C2F4F70B701C8010E940A02DD
:1004900030C0C03D38F04C2F4F70B701C8010E94EA
:1004A000130227C0C03CF8F0D7011496ED91FC91DF
:1004B000159720E030E040E064E0C8010995C2955E
:1004C000C07FCE5FD0E0CE010E94E501D701149637
:1004D000ED91FC91159720E030E041E064E0C80127
:1004E0000995CE0104C0C7FD04C08C2F90E00E9486
:1004F000E50180E001C081E0BFEFCB1ADB0AA8CFA5
:1005000080E001C081E0DF91CF911F910F91FF90BA
:10051000EF90DF90CF9008958F929F92AF92BF920D
:10052000CF92DF92FF920F931F93CF93DF9300D070
:10053000CDB7DEB76C018B01F42E490120E14217E3
:1005400009F467C0241700F13AE0431729F18FE05E
:10055000481369C041E0C6010E94130240E0B8019F
:10056000C6010E940A0241E8B801C6010E940102C8
:10057000F4014081B801C6010E94010240E0B801C7
:10058000C6010E94130208C1A1E14A1709F444C040
:10059000B5E14B1791F047C0DB011496ED91FC914A
:1005A000159720E030E042E061E0099544E850E032
:1005B000B801C6010E941C0236C0FB01A280B380B4
:1005C0004CE750E00E941C02D50114964C91406B00
:1005D000B801C6010E94010241E0B801C6010E94B3
:1005E0000A02F50126813781D8011496ED91FC911C
:1005F0001597D50115964C9166E0C60109958111B4
:1006000002C080E0CAC040E0B801C6010E941302E7
:100610000AC043E750E002C048E650E0B801C60116
:100620000E941C02B9C0D80112960D911C9113971B
:10063000B2E3FB1609F474C0BF15B8F0E5E1FE168D
:1006400009F47BC0F7E1FF1609F48DC024E1F21232
:10065000A3C0D8011696ED91FC91179715968C9131
:100660009F01280F311DC90160C036E4F31609F45B
:100670008AC087E4F81609F48AC0ABE3FA128CC08A
:10068000F40181819381913029F0933031F4482F26
:10069000885004C048E0480F01C0482F21E0D8012D
:1006A00013963C91381708F420E031E0F8015281AC
:1006B000451708F430E051E0481708F050E0822F69
:1006C000852B382319F4252309F466C0D40112962A
:1006D000FC90913051F030F0923049F0933051F469
:1006E0002FEF09C020E031E007C021E004C020E086
:1006F0003FEF02C020E030E0F7FE08C0B401C801BF
:100700002A8339830E94A40139812A81F4018081DE
:10071000830F80838181820F8183FF0C69F73CC046
:10072000B401C8010E94A40137C01192E817F9076B
:10073000E1F7C8010E94D0012FC0C8010E94BA0190
:10074000882309F45ECFD8011696ED91FC91179796
:1007500015968C919F01280F311DC9011192E81740
:10076000F907E1F719C0D4011C92F80182811196B2
:100770008C9311978581815012968C931297838167
:1007800013968C9309C0D80115968C9103C0D8019B
:1007900011968C91F401808381E00F900F90DF918E
:1007A000CF911F910F91FF90DF90CF90BF90AF90AE
:1007B0009F908F9008958F929F92BF92CF92DF92D9
:1007C000EF92FF920F931F93CF93DF9300D000D04F
:1007D000CDB7DEB78C014B01C12CD12C7601C216EE
:1007E000D306E406F50644F5F401B1904F01FAE0B2
:1007F000BF120EC06DE0F8018089918929833A8388
:100800004B835C830E948F085C814B813A812981F4
:100810006B2DF8018089918929833A834B835C830E
:100820000E948F08FFEFCF1ADF0AEF0AFF0A5C81F0
:100830004B813A812981D3CFCA01B9010F900F9022
:100840000F900F90DF91CF911F910F91FF90EF903C
:10085000DF90CF90BF909F908F9008950C94DC19FB
:10086000089508950C94DC19DC01ED91FC91369704
:1008700020813181820F931F0C943204FB0120816F
:100880003181FC0131832083FB0142815381F901D5
:10089000369720813181FC01E20FF31F51834083A1
:1008A000089520EF31E0FC01318320832AEF31E00D
:1008B000318F208F60E072E00C943E04DC01ED91FA
:1008C000FC91369720813181820F931F0C94510443
:1008D000CF93DF93EC010E945104CE01DF91CF91C1
:1008E0000C94DC19DC01ED91FC913697208131816B
:1008F000820F931F0C9468040C94DC1908950895DA
:100900000C94DC19DC01ED91FC913697208131814A
:10091000820F931F0C948004FB0120813181FC0124
:1009200031832083FB0142815381F9013697208175
:100930003181FC01E20FF31F51834083089528E6C3
:1009400032E0FC013183208322E732E0358B248BB7
:1009500068E772E00C948C04DC01ED91FC91369711
:1009600020813181820F931F0C949F04CF93DF93DA
:10097000EC010E949F04CE01DF91CF910C94DC1911
:10098000DC01ED91FC91369720813181820F931F1C
:100990000C94B6040C94DC19CF92DF92EF92FF9284
:1009A0000F931F93CF93DF93EC016B01EC80FD80DD
:1009B00086E090E0E114F10431F50E9447198C01C2
:1009C000DC011D921C9282E090E00E944719F60122
:1009D00020813181DC012D933C93F8019583848340
:1009E00019830883EA81FB8111830083D801119662
:1009F0001C921E921396FC93EE93129781E090E066
:100A00009D838C832DC00E9447198C01FC011182AB
:100A1000108282E090E00E944719D6012D913C910E
:100A2000FC0131832083D80115969C938E931497F3
:100A3000EA81FB818081918111969C938E9313961C
:100A4000FC93EE931297A081B18113961C930E93A1
:100A5000129711830083BFEFEB1AFB0AFD82EC8231
:100A6000DF91CF911F910F91FF90EF90DF90CF908A
:100A70000895CF93DF9300D0CDB7DEB77A83698333
:100A8000BE016F5F7F4F44960E94CC040F900F9081
:100A9000DF91CF910895CF93DF9300D0CDB7DEB72C
:100AA0007A836983BE016F5F7F4F46960E94CC04B4
:100AB0000F900F90DF91CF910895CF92DF92EF9238
:100AC000FF920F931F93CF93DF93EC016B01EB88A1
:100AD000FC8886E090E0E114F10421F50E944719BA
:100AE0008C01DC011D921C9282E090E00E9447196B
:100AF000FC01D182C082D80115969C938E931497E5
:100B0000188B0F87E989FA891183008311961C924B
:100B10001E921396FC93EE93129781E090E09C8BCB
:100B20008B8B29C00E9447198C01FC011182108215
:100B300082E090E00E944719DC01CD92DC92F8013E
:100B400095838483E989FA8980819181D8011196FE
:100B50009C938E931396FC93EE931297A081B18190
:100B600013961C930E93129711830083BFEFEB1A19
:100B7000FB0AFC8AEB8ADF91CF911F910F91FF90C6
:100B8000EF90DF90CF900895CF93DF93C091BC0298
:100B9000D091BD0281E08E870E94B40F6A877B8767
:100BA0008C879D87DF91CF910895089508950895CA
:100BB000DB01ED91FC9109940B96FC018491089561
:100BC0000A96FC018491089568E00C94D90166E0CE
:100BD0000C94D901FC01849108950E94EA058823B0
:100BE00021F0823011F083E0089586E0089590911D
:100BF000B502911104C08093B5026093B4020895C8
:100C00001F93CF93DF9300D0CDB7DEB720ED37E051
:100C10003A8329839091BC00982399F429813A81E1
:100C2000232B51F48091CC02182F127081FD09C042
:100C300081E00E94F70506C029813A8121503109DF
:100C4000E7CF11E0812F0F900F90DF91CF911F918F
:100C5000089584E98093BC0064E080E10C94000670
:100C6000CF938093BB0084E88093BC0063E080E86E
:100C70000E940006C82F882389F08091CC02C82FDB
:100C8000C27081FD0AC08091B900887F883229F046
:100C900063E082E00E94F70501C0C1E08C2FCF9194
:100CA0000895CF93DF93FC0123A5222379F0EC0173
:100CB0000E94790C811102C080E009C08EA18111CF
:100CC00080E40E9430068823B9F31BA681E0DF91FF
:100CD000CF9108950F931F93CF93C42F8901633051
:100CE000C1F050F4613081F0623009F048C0FC017D
:100CF00046A321E023A743C0663011F1673079F1A4
:100D0000653009F03CC00EC0FC0186A50E94F401CC
:100D100036C0FC0116A221E023A7411130C00E9479
:100D200029062DC00E945106811104C00E94290687
:100D300080E026C08C2F0E943006811120C0F6CFA3
:100D40000E945106882391F3CC23C9F0F8018191C8
:100D50008F010E943006882349F3C150F5CF0E94CD
:100D60005106882319F3CC2351F0F80184910E9495
:100D70003006882329F00F5F1F4FC150F4CF81E068
:100D8000CF911F910F910895CF92DF92EF92FF9232
:100D90000F931F93CF93DF9300D0CDB7DEB77C01C5
:100DA0006B01DC0156960D911C915797D70158960F
:100DB0008D919C91599708171907B9F0D80114968D
:100DC000ED91FC91159780819181DC01ED91FC9171
:100DD0000480F581E02DDA82C982BE016F5F7F4F0A
:100DE0000995F80102811381E1CF0F900F90DF91F7
:100DF000CF911F910F91FF90EF90DF90CF900895CA
:100E0000DC01ED91FD918081ED91FD919081ED915D
:100E1000FD916C9163708E2309F064609F2309F04B
:100E20006860EDE1F7E0E60FF11D659565956D935E
:100E30006D917D918D919D91099423C01AC012C02E
:100E400016C010C01EC009C014C013C006C019C00F
:100E500009C00DC007C00DC014C062507040804072
:100E600090400BC0615070408040904006C06E5F63
:100E700001C06F5F7F4F8F4F9F4F9E938E937E93E6
:100E80006E930895CF92DF92EF92FF920F931F938C
:100E9000CF93DF936C017A018B01C0E0D0E0CE15D7
:100EA000DF0589F0D8016D918D01D601ED91FC919E
:100EB0000190F081E02DC6010995892B11F47E0186
:100EC00002C02196ECCFC701DF91CF911F910F9106
:100ED000FF90EF90DF90CF900895EF92FF920F93E5
:100EE0001F93CF93DF93EC01198218821B821A8221
:100EF0001D821C826115710509F18B01CB010E94D5
:100F0000D7187C01BC01CE010E94B00C811109C030
:100F1000CE01DF91CF911F910F91FF90EF900C9434
:100F2000D70CFD82EC82B80188819981DF91CF9145
:100F30001F910F91FF90EF900C94D018DF91CF91FB
:100F40001F910F91FF90EF9008956115710579F051
:100F5000FB0101900020E9F73197AF01461B570BC9
:100F6000DC01ED91FC910280F381E02D099480E099
:100F700090E008954F925F926F927F92EF92FF926E
:100F80000F931F93CF93DF93CDB7DEB7A1970FB623
:100F9000F894DEBF0FBECDBF7C01FA01CB0119A2D0
:100FA000223008F42AE08E010F5D1F4F422E512C93
:100FB000612C712CBF01A30192010E947B1AF901DF
:100FC000CA01015011096A3014F4605D01C0695C06
:100FD000D8016C93232B242B252B61F7B801C70173
:100FE0000E94A507A1960FB6F894DEBF0FBECDBF35
:100FF000DF91CF911F910F91FF90EF907F906F90B5
:101000005F904F90089581E293E00E943A0D21E0B5
:10101000892B09F420E0822F0895EF92FF920F931D
:101020001F93CF93DF93EC0181E0888F9B8D8C8D94
:10103000981305C0E889F989808185FD24C0F62EC2
:101040000B8D10E00F5F1F4F0F731127E02E8C8D5B
:10105000E8120CC00FB607FCFACFE889F989808145
:1010600085FFF5CFCE010E94FB0EF1CF8B8DFE01E7
:10107000E80FF11DE35AFF4FF0820B8FEA89FB89DD
:101080008081806207C0EE89FF896083E889F989E1
:1010900080818064808381E090E0DF91CF911F9117
:1010A0000F91FF90EF900895EF92FF920F931F938F
:1010B000CF93DF93EC01198218821B821A821D8262
:1010C0001C826115710521F18B01FB01019000204B
:1010D000E9F731977F01E61AF70AB7010E94B00CD1
:1010E000811109C0CE01DF91CF911F910F91FF9027
:1010F000EF900C94D70CFD82EC82B8018881998125
:10110000DF91CF911F910F91FF90EF900C94C91830
:10111000DF91CF911F910F91FF90EF900895DC0127
:10112000ED91FC910190F081E02D09941F920F92B6
:101130000FB60F9211242F933F934F935F936F93AA
:101140007F938F939F93AF93BF93EF93FF9381E22E
:1011500093E00E94FB0EFF91EF91BF91AF919F91A1
:101160008F917F916F915F914F913F912F910F9050
:101170000FBE0F901F9018951F920F920FB60F92EF
:1011800011242F938F939F93EF93FF93E09131035B
:10119000F09132038081E0913703F091380382FDB2
:1011A00012C0908180913A038F5F8F7320913B032F
:1011B000821751F0E0913A03F0E0EF5DFC4F958F1C
:1011C00080933A0301C08081FF91EF919F918F91AD
:1011D0002F910F900FBE0F901F901895EF92FF92D6
:1011E0000F931F93CF93DF931F92CDB7DEB7DC0130
:1011F0001A96ED90FC901B97F70103891489D7018B
:1012000055968D919C91569708171907A9F0D8010A
:101210001496ED91FC91159780819181DC01ED91FF
:10122000FC910480F581E02DBE016F5F7F4F099531
:10123000F80102811381E3CF0F90DF91CF911F91CD
:101240000F91FF90EF9008950895CB0108957F923C
:101250008F929F92AF92BF92CF92DF92EF92FF92C6
:101260000F931F93CF93DF93EC0149015A018B0138
:10127000C12CD12C7601C814D904EA04FB0484F5EE
:10128000F80171908F018F8580FF0BC0E881F98193
:101290000084F185E02D20E144E060E070E0CE01C3
:1012A0000995EB85FC858D859E85E817F90738F44F
:1012B00070828B859C8501969C878B870BC0E8810B
:1012C000F981672D70E0028CF38DE02DCE01099538
:1012D000019649F02FEFC21AD20AE20AF20ACBCFE6
:1012E000B401C50102C0B601C701DF91CF911F91C2
:1012F0000F91FF90EF90DF90CF90BF90AF909F90B5
:101300008F907F900895CF93DF93EC01E881F9816E
:101310000288F389E02D09958F3F2FEF920731F076
:101320002D813E812F5F3F4F3E832D83DF91CF91F3
:1013300008958FEF9FEF089560E070E0CB0108956E
:1013400080E090E00895CF93DF93EC0184E491E096
:101350009983888380E591E09B838A838A8D9B8D26
:10136000EE89FF89892BF1F00280F381E02DFF8B5C
:10137000EE8B0190F081E02D848195810E94DC1933
:10138000EE89FF8980819181009711F00E94DC191C
:10139000EE89FF89118210828A8D9B8D01979B8F28
:1013A0008A8FDCCF848195810E94DC198E899F8988
:1013B000009701F10E94DC191DC00280F381E02D2D
:1013C000F88BEF870190F081E02D848195810E9458
:1013D000DC19EF85F88980819181009711F00E94D6
:1013E000DC19EF85F889118210828B899C8901971D
:1013F0009C8B8B8B8B899C89EF85F889892BE9F6EF
:10140000848195810E94DC198F859889009721F04D
:10141000DF91CF910C94DC19DF91CF910895CF9398
:10142000DF93EC0188E991E0998388838F89988D17
:10143000EB89FC89892BF1F00280F381E02DFC8B94
:10144000EB8B0190F081E02D848195810E94DC1965
:10145000EB89FC8980819181009711F00E94DC1951
:10146000EB89FC89118210828F89988D0197988F62
:101470008F8BDCCF848195810E94DC198B899C89BC
:10148000009711F00E94DC19CE010B960E94130DFB
:10149000CE010596DF91CF910C94130DCF93DF937E
:1014A000EC010E940F0ACE01DF91CF910C94DC1960
:1014B000CF92DF92EF92FF920F931F93CF93DF9320
:1014C000EC016B01EF88F88C86E090E0E114F10408
:1014D00021F50E9447198C01DC011D921C9282E0CB
:1014E00090E00E944719FC01D182C082D801159674
:1014F0009C938E9314971C8B0B8BED89FE89118323
:10150000008311961C921E921396FC93EE931297F1
:1015100081E090E0988F8F8B29C00E9447198C0141
:10152000FC011182108282E090E00E944719DC01E8
:10153000CD92DC92F80195838483ED89FE898081C8
:101540009181D80111969C938E931396FC93EE9300
:101550001297A081B18113961C930E931297118359
:101560000083BFEFEB1AFB0AF88EEF8ADF91CF9171
:101570001F910F91FF90EF90DF90CF9008950F9300
:101580001F93CF93DF938C01EB016F3F8FEF7807B1
:1015900019F480E090E00FC06A3031F46DE0F8019A
:1015A000808991890E948F086C2FF8018089918928
:1015B0000E948F08CE01DF91CF911F910F91089566
:1015C000AF92BF92CF92DF92EF92FF920F931F9351
:1015D000CF93DF93EC015B016A0188E991E0998385
:1015E00088837E0185E0E80EF11C6FE972E0C70197
:1015F0000E9454088E01055F1F4F6FE972E0C80119
:101600000E945408188E1F8A86E090E00E944719B5
:10161000FC011182108213821282158214829C8B2B
:101620008B8B9E8B8D8BB501C7010E94E90CB60197
:10163000C801DF91CF911F910F91FF90EF90DF9044
:10164000CF90BF90AF900C94E90CCF93DF93EC0157
:101650008EE691E0998388838AE791E09B838A8371
:1016600088899989EC85FD85892BF1F00280F381C9
:10167000E02DFD87EC870190F081E02D848195813C
:101680000E94DC19EC85FD8580819181009711F025
:101690000E94DC19EC85FD85118210828889998968
:1016A0000197998B888BDCCF848195810E94DC190E
:1016B0008C859D85009721F0DF91CF910C94DC19EA
:1016C000DF91CF9108951F920F920FB60F921124C0
:1016D0002F933F934F935F936F937F938F939F933A
:1016E000AF93BF93CF93EF93FF9399B1C091BB0298
:1016F000C9238091B8028927C8239093B802C4FFF8
:1017000005C0E0910601F09107010995C5FF05C0EC
:10171000E0910401F09105010995C6FF05C0E09133
:101720000201F09103010995C7FF05C0E091000196
:10173000F09101010995C0FF05C0E0910E01F09103
:101740000F010995C1FF05C0E0910C01F0910D0159
:101750000995C2FF05C0E0910A01F0910B010995BE
:10176000C3FF05C0E0910801F09109010995FF91BF
:10177000EF91CF91BF91AF919F918F917F916F9199
:101780005F914F913F912F910F900FBE0F901F903F
:1017900018951F920F920FB60F9211242F933F931B
:1017A0004F935F936F937F938F939F93AF93BF9369
:1017B000CF93EF93FF9396B1C091BA02C923809162
:1017C000B7028927C8239093B702C0FF05C0E091F4
:1017D0001A01F0911B010995C1FF05C0E0911801A4
:1017E000F09119010995C2FF05C0E0911601F09131
:1017F00017010995C3FF05C0E0911401F09115018F
:101800000995C4FF05C0E0911201F09113010995FB
:10181000C5FF05C0E0911001F09111010995FF91FC
:10182000EF91CF91BF91AF919F918F917F916F91E8
:101830005F914F913F912F910F900FBE0F901F908E
:1018400018951F920F920FB60F9211242F933F936A
:101850004F935F936F937F938F939F93AF93BF93B8
:10186000CF93EF93FF9393B1C091B902C9238091B5
:10187000B6028927C8239093B602C0FF05C0E09145
:101880002601F09127010995C1FF05C0E0912401CF
:10189000F09125010995C2FF05C0E0912201F09168
:1018A00023010995C3FF05C0E0912001F0912101BA
:1018B0000995C4FF05C0E0911E01F0911F01099533
:1018C000C5FF05C0E0911C01F0911D010995FF9134
:1018D000EF91CF91BF91AF919F918F917F916F9138
:1018E0005F914F913F912F910F900FBE0F901F90DE
:1018F0001895CF9384EA8093BC0061E080E80E9451
:101900000006882359F08091B900887F883041F023
:10191000803131F061E082E00E94F705C0E01DC037
:1019200088E78093BB0084E88093BC0062E080E895
:101930000E940006882391F38091CC02C82FC270C8
:1019400081FD0AC08091B900887F883129F062E06A
:1019500082E00E94F70501C0C1E08C2FCF9108956D
:101960000F931F93CF93DF93EC01888199810097A8
:1019700029F02A813B812617370788F48B016F5F96
:101980007F4F0E94F117009761F0998388831B8332
:101990000A832C813D81232B11F4FC01108281E00C
:1019A00001C080E0DF91CF911F910F910895CF93F7
:1019B000DF93EC0188819981009711F00E94DC1976
:1019C000198218821D821C821B821A82DF91CF919C
:1019D0000895EF92FF920F931F93CF93DF93EC0143
:1019E000FB0186179707B9F00081118101151105D8
:1019F00039F0E480F580B7010E94B00C811104C079
:101A0000CE010E94D70C07C0FD82EC82B80188810C
:101A100099810E94C918CE01DF91CF911F910F913A
:101A2000FF90EF900895FC01808191810C94DC1966
:101A3000FC01918D828D981761F0828DDF01A80FD6
:101A4000B11D5D968C91928D9F5F9F73928F90E0F8
:101A500008958FEF9FEF0895FC01918D828D981767
:101A600031F0828DE80FF11D858D90E008958FEFA4
:101A70009FEF0895FC01918D228D892F90E0805C6D
:101A80009F4F821B91098F739927089580E090E002
:101A9000892B29F00E94030881110C9400000895FD
:101AA0003FB7F89480919F049091A004A091A10465
:101AB000B091A20426B5A89B05C02F3F19F001964E
:101AC000A11DB11D3FBFBA2FA92F982F8827820FC4
:101AD000911DA11DB11DBC01CD0142E0660F771F14
:101AE000881F991F4A95D1F7089508950E94BB1841
:101AF00080919804909199040C9400078091960429
:101B0000909197040C9400072F923F924F925F920E
:101B10006F927F928F929F92AF92BF92CF92DF92FD
:101B2000EF92FF920F931F93CF93DF931F92CDB746
:101B3000DEB71C01A62EDC01DC96BC90DC97DB96A0
:101B4000EC906C01B4E0CB0ED11CDC015996ED9108
:101B5000FC915A97C6010995F82EF101008511856F
:101B6000C8010E94EA05982ED10118968D919C918A
:101B700019970E94ED05682EB1E09B1203C02FE07B
:101B8000922E02C099249A94F101808591850E9439
:101B9000E005882ED10118968D919C9119970E948D
:101BA000DC05782EF101808591850E94E405F0E640
:101BB000FA1538F4009729F0080F191F91E6892EBD
:101BC00013C0D10118968D919C9119970E94E70539
:101BD000B0E4BA1538F4009729F0080F191F81E412
:101BE000882E02C00F5E1F4F7A1438F4F101148A58
:101BF000178A108E158A168A9EC07814B8F3262D7F
:101C000030E0F80184918F3F19F40F5F1F4F5AC0E5
:101C10008A104FC0D10118968D919C9119970E94FE
:101C2000EA0598012F5F3F4FF801882311F08230B9
:101C3000E1F48491D10157968C935797F90124913F
:101C400058962C935897F8013396E4915496EC9358
:101C50005497F8013496E4915596EC935597F80112
:101C60003596E4915696EC9320C08491982F9F70FE
:101C70009250D10156969C93569782958F705596A7
:101C80008C935597F9012491822F8F7058968C93DD
:101C9000589722952F7057962C935797F8013296A4
:101CA000E491E295EF705496EC930115110579F4E7
:101CB00042C0F8013296E491E921C9018E0F911DCD
:101CC000080F191F871409F491CF83949ACFF1015B
:101CD000808591850E94ED05D10157963C915797DB
:101CE00058962C91589755965C915597B21A5696DE
:101CF0009C915697B91AFB0C9FEF920F9F0DD896A7
:101D00004C91D897DA966C916F1518F0941728F4C7
:101D100002C0941768F09F1558F4E50E9FEF930FDB
:101D20009E0DF10147A951AD5E1538F4941738F4B2
:101D3000F10184893FC080E03DC0941710F49E15E6
:101D4000B8F7080F111D395F532E569456945694C8
:101D50004F2C420E4101F0E28F0E911C652C712C2C
:101D6000F41431F35E2D58018A2D801B8515F0F493
:101D7000F5018491D10116966D917C9117979096FB
:101D80005C9390979196FC92919793961C9293975F
:101D900092968C9394014BE3C60159830E94D80517
:101DA000BFEFAB1ABB0A5981585FDECF060D171D76
:101DB000F394D6CFD101DB962C91DB97082E000C43
:101DC000990B820F911DDB968C9381E090E00F9030
:101DD000DF91CF911F910F91FF90EF90DF90CF9007
:101DE000BF90AF909F908F907F906F905F904F903B
:101DF0003F902F900895FC01848DDF01A80FB11D45
:101E0000A35ABF4F2C91848D90E001968F73992730
:101E1000848FA689B7892C93A089B1898C9180641D
:101E20008C93938D848D981306C00288F389E02DDE
:101E300080818F7D80830895CF93DF93EC01888D1F
:101E40008823C9F0EA89FB89808185FD05C0A889BE
:101E5000B9898C9186FD0FC00FB607FCF5CF808144
:101E600085FFF2CFA889B9898C9185FFEDCFCE018E
:101E70000E94FB0EE7CFDF91CF910895CF93DF93C0
:101E800090E0FC01ED52FF4F2491FC01EF50FF4F19
:101E90008491882361F190E0880F991FFC01E15F34
:101EA000FE4FC591D491FC01EB5FFE4FA591B4911B
:101EB000611109C09FB7F894888120958223888397
:101EC000EC912E230BC0623061F49FB7F8943881F7
:101ED000822F809583238883EC912E2B2C939FBF98
:101EE00006C08FB7F894E8812E2B28838FBFDF912F
:101EF000CF9108958F929F92AF92BF92CF92DF922F
:101F0000EF92FF926B017C010E94500D4B015C012E
:101F1000C114D104E104F104F1F00E94500DDC0180
:101F2000CB0188199909AA09BB09883E9340A105EC
:101F3000B10570F321E0C21AD108E108F10888EE7A
:101F4000880E83E0981EA11CB11CC114D104E104C9
:101F5000F10419F7DDCFFF90EF90DF90CF90BF90A5
:101F6000AF909F908F9008952FB7F89460919B0445
:101F700070919C0480919D0490919E042FBF0895C0
:101F80001F920F920FB60F9211242F933F938F93AE
:101F90009F93AF93BF9380919B0490919C04A091D9
:101FA0009D04B0919E0430919A0423E0230F2D37B5
:101FB00020F40196A11DB11D05C026E8230F02964D
:101FC000A11DB11D20939A0480939B0490939C04BF
:101FD000A0939D04B0939E0480919F049091A004CF
:101FE000A091A104B091A2040196A11DB11D8093FE
:101FF0009F049093A004A093A104B093A204BF9166
:10200000AF919F918F913F912F910F900FBE0F90A5
:102010001F9018951F920F920FB60F9211242F93B5
:102020003F934F935F936F937F938F939F93AF9360
:10203000BF93EF93FF93E0913801F0913901099537
:10204000FF91EF91BF91AF919F918F917F916F9190
:102050005F914F913F912F910F900FBE0F901F9066
:1020600018951F920F920FB60F9211242F933F9342
:102070004F935F936F937F938F939F93AF93BF9390
:10208000EF93FF93E0913601F09137010995FF91AD
:10209000EF91BF91AF919F918F917F916F915F91E0
:1020A0004F913F912F910F900FBE0F901F90189559
:1020B0008230A1F0833029F57093990460939804DD
:1020C00088E79DE090933901809338018091690001
:1020D000837F846080936900E99A11C070939704AC
:1020E000609396048EE79DE09093370180933601CC
:1020F000809169008C7F816080936900E89A81E01B
:10210000089580E00895CF93DF93CDB7DEB72C9785
:102110000FB6F894DEBF0FBECDBF789484B5826051
:1021200084BD84B5816084BD85B5826085BD85B57B
:10213000816085BD80916E00816080936E001092F9
:102140008100809181008260809381008091810074
:102150008160809381008091800081608093800005
:102160008091B10084608093B1008091B000816063
:102170008093B00080917A00846080937A0080918F
:102180007A00826080937A0080917A0081608093E7
:102190007A0080917A00806880937A001092C10062
:1021A0001092110310921203109213031092140351
:1021B0001092CF021092D0021092D1021092D2024D
:1021C00060ED77E080E090E00E947A0F81E293E09A
:1021D0009093100380930F03E0913103F091320349
:1021E00082E08083E0912D03F0912E031082E09134
:1021F0002F03F091300380E1808310923903E09146
:102200003503F091360386E08083E0913303F0914B
:102210003403808180618083E0913303F091340343
:10222000808188608083E0913303F0913403808162
:1022300080688083E0913303F091340380818F7D47
:1022400080830E94B40F6093CF027093D00280937A
:10225000D1029093D2026EE872E080910F039091C8
:1022600010030E94A5076AE070E080E090E00E9401
:102270007A0F81E08093E30282E090E00E944719A8
:1022800045E1E42E43E0F42EDC01ED92FC929093C4
:10229000C3028093C2028FE190E00E9447198C0133
:1022A00084E491E0F8019183808380E591E0938359
:1022B00082831482158216821782148A138A86E01A
:1022C00090E00E944719FC01118210821382128251
:1022D00015821482D80150969C938E931F97529624
:1022E0009C938E9351975B961C921E925A9786E010
:1022F00090E00E944719FC01118210821382128221
:1023000015821482D80157969C938E9356975996AE
:102310009C938E9358975E96FC92EE925D971E96D4
:102320001C9260E0809119030E943E0F60E0809152
:102330001B030E943E0F62E080911D030E943E0F2E
:10234000E0911703F0911803F89488EC90E0A0E076
:10235000B0E087839087A187B28778942091190392
:1023600030911A033327F901E655FF4F8491F901A3
:10237000ED52FF4F9491F901EF50FF4FE491EE239E
:10238000B9F1882339F1833091F038F48130A9F024
:10239000823001F584B58F7D12C0873091F088308E
:1023A000A1F08430B9F4809180008F7D03C08091CA
:1023B00080008F77809380000DC084B58F7784BDB7
:1023C00009C08091B0008F7703C08091B0008F7DED
:1023D0008093B000F0E0EE0FFF1FE951FF4FA59191
:1023E000B491EC91E92391E080E021F490E002C007
:1023F00090E080E0F8019087818720911D03309163
:102400001E032631310560F4283031050CF441C338
:102410002E3031050CF03FC3285080E0280F01C05A
:102420002FEF822F869586958695922F9770811132
:1024300037C0211107C024EC35E0309327012093E9
:102440002601B1C0213039F424EC35E03093250168
:1024500020932401A8C0223039F424EC35E03093D5
:102460002301209322019FC0233039F424EC35E06E
:10247000309321012093200196C0243039F424ECBC
:1024800035E030931F0120931E018DC0253009F0E7
:102490008AC024EC35E030931D0120931C0183C0D9
:1024A0008130B9F5283039F424EC35E030931B0144
:1024B00020931A0178C0293039F424EC35E03093A8
:1024C0001901209318016FC02A3039F424EC35E04B
:1024D000309317012093160166C02B3039F424EC99
:1024E00035E030931501209314015DC02C3039F490
:1024F00024EC35E0309313012093120154C02D30A9
:1025000009F051C024EC35E0309311012093100103
:102510004AC0823009F077C0203139F424EC35E02C
:1025200030930F0120930E013EC0213139F424EC89
:1025300035E030930D0120930C0135C0223139F480
:1025400024EC35E030930B0120930A012CC0233199
:1025500039F424EC35E0309309012093080123C0BD
:10256000243139F424EC35E030930701209306013F
:102570001AC0253139F424EC35E03093050120935D
:10258000040111C0263139F424EC35E03093030105
:102590002093020108C0273131F424EC35E0309358
:1025A00001012093000141E050E001C0440F9A95E1
:1025B000EAF7282F30E0F901E754FD4F9081942B82
:1025C0009083813039F020F0823049F499B103C012
:1025D00093B101C096B1F901EA54FD4F9083F9011E
:1025E000E559FF4F9081492B40834091680021E0DD
:1025F00030E0690102C0CC0CDD1C8A95E2F7C6010F
:10260000842B809368001093BD020093BC0282E08B
:1026100090E00E94471925E1E22E23E0F22EDC0132
:10262000ED92FC929093C1028093C00283E190E00E
:102630000E9447198C018EE691E0F8019183808316
:102640008AE791E093838283118A108A86E090E082
:102650000E944719FC011182108213821282158296
:102660001482D8011D969C938E931C971F969C9361
:102670008E931E971596FC92EE9214971093BF02BC
:102680000093BE026CEC70E0CE0101960E946D07D3
:102690006FE972E0CE0107960E9454088AE190E04B
:1026A0000E944719AE01495F5F4FBE016F5F7F4FC8
:1026B0000E94E00ACE0107960E94130DCE010196FA
:1026C0000E94130D65EC70E0CE0101960E946D072B
:1026D0006FE972E0CE0107960E9454088AE190E00B
:1026E0000E944719AE01495F5F4FBE016F5F7F4F88
:1026F0000E94E00ACE0107960E94130DCE010196BA
:102700000E94130D6EEB70E0CE0101960E946D07E2
:102710006FE972E0CE0107960E9454088AE190E0CA
:102720000E944719AE01495F5F4FBE016F5F7F4F47
:102730000E94E00ACE0107960E94130DCE01019679
:102740000E94130D8091BC029091BD02DC01ED91BD
:10275000FC916091BE027091BF020480F581E02D72
:1027600009958091BC029091BD02DC01ED91FC9134
:102770000680F781E02D6091BE027091BF02611565
:10278000710511F06E5F7F4F099584EF882E9924B3
:102790009394A12CB12C0E94B40F672B682B692B4A
:1027A00041F40E94B40F623071058105910508F46F
:1027B0000AC10E94B40F6093C8027093C90280934B
:1027C000CA029093CB020091C4021091C5022091DD
:1027D000C6023091C702601771078207930740F461
:1027E0006093C4027093C5028093C6029093C7029F
:1027F0000091C4021091C5022091C6023091C70217
:102800006B017C01C01AD10AE20AF30A9701860122
:102810000A3F11052105310508F4D5C06093C402B3
:102820007093C5028093C6029093C7028092DB0228
:102830009092DC02A092DD02B092DE021092DF02E2
:102840001092E0021092E1021092E2028091D30213
:102850009091D402A091D502B091D6028093D70274
:102860009093D802A093D902B093DA020E94B40FD9
:102870006093D3027093D4028093D5029093D602D2
:102880000E94B40F6093CF027093D0028093D10264
:102890009093D2020E94B40F6B017C0160EA72E057
:1028A00080910F03909110030E94A5072AE041E058
:1028B00050E060E070E080910F03909110030E945F
:1028C000BA0767EA72E080910F03909110030E94AB
:1028D000A5072AE0B701A60180910F03909110038C
:1028E0000E94BA0769EA72E080910F039091100389
:1028F0000E94A5078091D3029091D402A091D502A5
:10290000B091D602B701A601481B590B6A0B7B0B8D
:102910002AE080910F03909110030E94BA0769EAA0
:1029200072E080910F03909110030E94A5074091DF
:10293000D3025091D4026091D5027091D602809159
:10294000D7029091D802A091D902B091DA02481B27
:10295000590B6A0B7B0B2AE080910F0390911003B7
:102960000E94BA076BEA72E080910F039091100306
:102970000E94A5070E94B40FAB01BC012AE0809120
:102980000F03909110030E94BA0700910F0310915A
:1029900010036DEA72E0C8010E94A5076DE972E0BC
:1029A000C8010E94A50765E070E080E090E00E9409
:1029B0007A0F0E94B40F6093D3027093D402809375
:1029C000D5029093D6020091BC021091BD02D801AD
:1029D0001E968C91811110C0D8015D96ED91FC91ED
:1029E0005E97E280F380F7018385823050F5F8949A
:1029F000C7010E94000726C0D8011E961C921E9790
:102A00001F96ED90FC905097D80151968D919C9116
:102A10005297E816F90601F3D7011496ED91FC914F
:102A2000159780819181DC01ED91FC910480F58105
:102A3000E02DBE016F5F7F4F0995F701E280F380C3
:102A4000E3CFF894F701C780D084E184F2847894CE
:102A5000F80184819581A681B781C816D906EA0656
:102A6000FB06A1F0C816D906EA06FB061CF460E0D6
:102A700070E002C061E070E0C8010E94C406D801A5
:102A80001496CD92DD92ED92FC9217970E94460D1E
:102A900082CE80E1C3CC2E5088E0C0CC089508954A
:102AA000CF93DF93EC010E94250BCE01DF91CF91F4
:102AB0000C94DC1902970C94501502970C94250B7A
:102AC0008EE394E00E9451048CE694E00C949F0401
:102AD000CF92DF92EF92FF920F931F93CF93DF93EA
:102AE0001F92CDB7DEB781E293E0109224031092DB
:102AF000230348EE53E060E070E0409325035093D9
:102B0000260360932703709328032AEC31E0309367
:102B100022032093210325EC30E030932E032093F1
:102B20002D0324EC30E03093300320932F0320EC6E
:102B300030E0309332032093310321EC30E03093C6
:102B400034032093330322EC30E030933603209398
:102B5000350326EC30E0309338032093370310928E
:102B60003A0310923B0310923C0310923D031092E3
:102B7000D3021092D4021092D5021092D602109273
:102B8000D7021092D8021092D9021092DA02109253
:102B9000DB021092DC021092DD021092DE02109233
:102BA000DF021092E0021092E1021092E20261E272
:102BB00070E07093840460938304109285041092F3
:102BC00086041092870446E0C42ED12CE12CF12C0F
:102BD000C0928804D0928904E0928A04F0928B0417
:102BE00010928C0410928D0410928E0410928F0417
:102BF00040E240939004109292041092910410923B
:102C000095042EE634E0309394042093930428E650
:102C100032E030936D0420936C0422E732E030936D
:102C20008104209380041092720410927104109217
:102C3000740410927304109276041092750410922A
:102C400078041092770410927A041092790410920A
:102C50007C0410927B0426E432E030936F042093CE
:102C60006E0490937F0480937E0450E150937D0422
:102C700070935A046093590410925B0410925C04A0
:102C800010925D04C0925E04D0925F04E0926004F2
:102C9000F092610410926204109263041092640432
:102CA00010926504409366041092680410926704C1
:102CB00010926B041092400410924104109242044E
:102CC0001092430444E454E050936A04409369042E
:102CD00040EF51E050933F0440933E044AEF51E0EF
:102CE000509357044093560410924804109247049E
:102CF00010924A041092490410924C0410924B0412
:102D000010924E0410924D041092500410924F04F1
:102D100010925204109251043093450420934404BD
:102D2000909355048093540428E020935304909387
:102D3000200380931F036CE471E084E691E00E941D
:102D4000E01882E090E090931A038093190383E0E7
:102D500090E090931C0380931B0387E090E0909396
:102D60001E0380931D038EE390E00E9447198C019F
:102D7000DC0113961C921E92129782E892E0119643
:102D80009C938E93DB961C92DB97DC961C92DC97CF
:102D9000DD961C927801B4E0EB0EF11CF80111866F
:102DA000108613861286158681E0848782E28687E4
:102DB000138A128AB796C801C5962FEF2193E81798
:102DC000F907E1F781E0D80194968C93949727ED69
:102DD00031E05A963C932E9359975B968C935B9770
:102DE0005C961C925C975D961C925D9780E45E9663
:102DF0008C935E975F961C925F9789E891E0D696D8
:102E00009C938E93D59780E391E017969C938E9335
:102E1000169780E1D2968C9320E030E04AE060E3A0
:102E200071E0C7010E94D805D82ED801D596ED9142
:102E3000FC91D69783E00995D801D596ED91FC9148
:102E4000D69780E00995DD20A1F1F80166817781B0
:102E50009E012F5F3F4F46E4C7010E94D80589813C
:102E6000D80114968C93149716966D917C911797B0
:102E70009E012F5F3F4F47E4C7010E94D80589811B
:102E8000F80185836681778120E030E048E4C7015E
:102E90000E94D805D8011F968C931F9716966D91A6
:102EA0007C9117979801295C3F4F47E1C7010E9429
:102EB000D8058AE892E0F801918380831093160385
:102EC000009315038CE090E00E9447198C01E0907C
:102ED0001903F0901A03C0901B03D0901C0362E00A
:102EE0008C2D0E943E0F62E08E2D0E943E0FC60187
:102EF0009927FC01EF50FF4FE491F0E0EE0FFF1F28
:102F0000E951FF4FA591B491F801B183A083FC0171
:102F1000ED52FF4F2491F8012483C7019927FC014A
:102F2000EF50FF4FE491F0E0EE0FFF1FE951FF4F2C
:102F300045915491F80153834283FC01ED52FF4FB8
:102F40008491F801858317821086118612868BE39F
:102F50009FE10197F1F78C91282391E009F490E02B
:102F6000DA012C91F8018581822309F09260D80161
:102F700016969C93B8018C2D0E945810F8018387F7
:102F8000B8018E2D0E945810D8011B962C911B97CA
:102F900090E0820F911D1B968C9310931803009361
:102FA00017030F90DF91CF911F910F91FF90EF903A
:102FB000DF90CF90089502970C94A309CF93DF93ED
:102FC000EC010E94A309CE01DF91CF910C94DC1992
:102FD00002970C94DE17EE0FFF1F0590F491E02D81
:102FE0000994A0E0B0E0E7EFF7E10C94A11AEC013E
:102FF000009721F4CB010E944719B8C0FC01E60FED
:10300000F71F9C0122503109E217F30708F4ACC006
:10301000D9010D911C91119706171707B0F00530D3
:10302000110508F49FC0C80104978617970708F494
:1030300099C002501109061B170B019311936D9350
:103040007C93CF010E94DC198DC05B01A01AB10AEC
:103050004C01800E911EA091AB04B091AC0440E0F5
:1030600050E0E12CF12C109709F44AC0A815B905DD
:10307000D1F56D907C901197630182E0C80ED11C50
:10308000CA14DB0480F1A3014A195B096A0182E0DA
:10309000C80ED11C1296BC9012971396AC91B5E055
:1030A000CB16D10440F0B282A38351834083D9016F
:1030B0006D937C930AC00E5F1F4FC301800F911F59
:1030C000F90191838083EB2DFA2FE114F10431F0A3
:1030D000D7011396FC93EE93129744C0F093AC047F
:1030E000E093AB043FC08D919C911197481759070D
:1030F00008F4AC017D0112960D90BC91A02DB3CFC8
:103100008091A9049091AA0488159905E1F44617C5
:103110005707C8F480913A0190913B01009741F420
:103120008DB79EB740913E0150913F01841B950B96
:10313000E817F907C8F4F093AA04E093A904F90189
:10314000718360830FC0CB010E9447197C010097F7
:1031500059F0A801BE010E94C018CE010E94DC19DE
:10316000C70104C0CE0102C080E090E0CDB7DEB759
:10317000EEE00C94BD1A81E090E0F8940C94D41A1F
:10318000FB01DC0102C001900D9241505040D8F784
:103190000895FB01DC0101900D920020E1F70895F4
:1031A000FB01DC0105900D920020E1F70895FC0180
:1031B00005900020E9F7809590958E0F9F1F089548
:1031C0000F931F93CF93DF93009731F4611571052F
:1031D00019F480E090E03AC08B01EC016EE070E001
:1031E00081E090E00E942B19FC01892B91F380E88B
:1031F00083830115110571F01387028781E88383AA
:103200008091A3049091A404892B21F4F093A40449
:10321000E093A3042097C9F0D187C087838182609F
:1032200083838091A5049091A604892B71F4F09377
:10323000A604E093A5048091A7049091A804892B8B
:1032400021F4F093A804E093A704CF01DF91CF917C
:103250001F910F9108950F931F93CF93DF93869F34
:103260008001879F100D969F100D1124C8010E94A8
:103270004719EC01009729F0A80160E070E00E9476
:10328000741ACE01DF91CF911F910F910895CF93C2
:10329000DF938230910510F482E090E0E091AB047E
:1032A000F091AC0420E030E0C0E0D0E0309711F1C4
:1032B0004081518148175907C0F04817590761F4F8
:1032C00082819381209719F09B838A832BC09093EE
:1032D000AC048093AB0426C02115310519F04217C8
:1032E000530718F49A01BE01DF01EF010280F38158
:1032F000E02DDCCF2115310509F1281B390B2430D5
:10330000310590F412968D919C911397611571057A
:1033100021F0FB019383828304C09093AC048093DB
:10332000AB04FD01329644C0FD01E20FF31F81930F
:103330009193225031092D933C933AC02091A904D6
:103340003091AA04232B41F420913C0130913D019E
:103350003093AA042093A90420913A0130913B01B3
:103360002115310541F42DB73EB740913E015091F2
:103370003F01241B350BE091A904F091AA04E21748
:10338000F307A0F42E1B3F0B2817390778F0AC0188
:103390004E5F5F4F2417350748F04E0F5F1F509365
:1033A000AA044093A9048193919302C0E0E0F0E065
:1033B000CF01DF91CF9108950F931F93CF93DF93A8
:1033C000009709F48CC0FC0132971382128200919D
:1033D000AB041091AC040115110581F420813181F9
:1033E000820F931F2091A9043091AA04281739074E
:1033F00079F5F093AA04E093A90471C0D80140E0E4
:1034000050E0AE17BF0750F412962D913C911397E0
:10341000AD012115310509F1D901F3CF9D01DA0183
:103420003383228360817181860F971F82179307F0
:1034300069F4EC0128813981260F371F2E5F3F4F39
:10344000318320838A819B8193838283452B29F456
:10345000F093AC04E093AB0442C01396FC93EE935C
:103460001297ED01499159919E01240F351FE217E2
:10347000F30771F480819181840F951F0296119654
:103480009C938E938281938113969C938E93129733
:10349000E0E0F0E0D80112968D919C91139700978F
:1034A00019F0F8018C01F6CF8D919C9198012E5F57
:1034B0003F4F820F931F2091A9043091AA0428172F
:1034C000390769F4309729F41092AC041092AB04D8
:1034D00002C0138212821093AA040093A904DF9100
:1034E000CF911F910F910895DC0101C06D93415060
:1034F0005040E0F70895A1E21A2EAA1BBB1BFD0164
:103500000DC0AA1FBB1FEE1FFF1FA217B307E407C2
:10351000F50720F0A21BB30BE40BF50B661F771F1A
:10352000881F991F1A9469F76095709580959095FA
:103530009B01AC01BD01CF0108952F923F924F92A4
:103540005F926F927F928F929F92AF92BF92CF9233
:10355000DF92EF92FF920F931F93CF93DF93CDB73C
:10356000DEB7CA1BDB0B0FB6F894DEBF0FBECDBFB4
:1035700009942A88398848885F846E847D848C8485
:103580009B84AA84B984C884DF80EE80FD800C818E
:103590001B81AA81B981CE0FD11D0FB6F894DEBF71
:1035A0000FBECDBFED01089510E0CEE8D0E004C01D
:1035B000FE010E94EB172196CF38D107C9F7F89486
:0235C000FFCF3B
:1035C2002409240924092409240924092409240991
:1035D2002409240924092409240924092409240981
:1035E2002409240924092409084000000080BE039C
:1035F2008C0228016A06750D750D0000AD0480006D
:1036020000000000A309DE175D054B05FEFF000068
:10361200DB17E81739050000000000000000760DF6
:103622000000000000000000760D00000000250BE5
:103632005015EE084F15FEFF00005D155A154E1588
:103642000000000000000000760D000000000000F5
:103652000000760D000000000F0A4E0A580A1800FA
:103662000000000000000000E8FFE8FF000000008A
:10367200000014000000000000000000ECFFECFF5E
:10368200000000000000000000000D0842073A0D93
:10369200180D2C0D1C0F060000000000300432042F
:1036A200FAFFFAFF000031043404180000000000A1
:1036B20051046804E8FFE8FF00005E047204F001B0
:1036C200A401AE01FA0100000000D5052E044B0151
:1036D2004801450142013F01A0099C09990983095A
:1036E200B900270925090200000000007E048004B9
:1036F200FEFFFEFF00007F04820400000000D705E9
:10370200CA0400000000D6057C044B0148014501B3
:1037120042013F013301ED00D400BB00B900DB03DD
:10372200BF0A1400000000009F04B604ECFFECFF87
:103732000000AC04C0046802B801C20172020000B9
:103742000000840D420700000000840D4207564D20
:103752004450565F317C315F564D4450560D0A003D
:10376200564D4450455F003A323A007C005F564D58
:04377200445045007A
:107800000C94343C0C94513C0C94513C0C94513CE1
:107810000C94513C0C94513C0C94513C0C94513CB4
:107820000C94513C0C94513C0C94513C0C94513CA4
:107830000C94513C0C94513C0C94513C0C94513C94
:107840000C94513C0C94513C0C94513C0C94513C84
:107850000C94513C0C94513C0C94513C0C94513C74
:107860000C94513C0C94513C11241FBECFEFD8E036
:10787000DEBFCDBF11E0A0E0B1E0ECE9FFE702C060
:1078800005900D92A230B107D9F712E0A2E0B1E065
:1078900001C01D92AD30B107E1F70E942D3D0C945F
:1078A000CC3F0C94003C982F959595959595959582
:1078B000905D8F708A307CF0282F295A8091C0000B
:1078C00085FFFCCF9093C6008091C00085FFFCCF60
:1078D0002093C6000895282F205DF0CF982F809127
:1078E000C00085FFFCCF9093C6000895EF92FF92F1
:1078F0000F931F93EE24FF2487018091C00087FD22
:1079000017C00894E11CF11C011D111D81E4E8164B
:1079100082E4F8068FE0080780E0180770F3E09132
:107920000401F091050109958091C00087FFE9CF1E
:107930008091C6001F910F91FF90EF9008950E94D3
:10794000763C982F8091C00085FFFCCF9093C600B5
:1079500091362CF490330CF09053892F089597555D
:10796000892F08951F930E949F3C182F0E949F3CCF
:107970001295107F810F1F9108951F93182F882350
:1079800021F00E94763C1150E1F71F9108951F935A
:10799000182F0E94763C803249F0809103018F5F5E
:1079A000809303018530C1F01F9108958091C0003C
:1079B00085FFFCCF84E18093C6008091C00085FFE5
:1079C000FCCF1093C6008091C00085FFFCCF80E102
:1079D0008093C6001F910895E0910401F091050184
:1079E00009951F9108950E94763C803241F0809164
:1079F00003018F5F80930301853081F008958091AA
:107A0000C00085FFFCCF84E18093C6008091C00058
:107A100085FFFCCF80E18093C6000895E0910401CA
:107A2000F09105010995089540E951E08823A1F0FE
:107A30002D9A28EE33E0FA013197F1F721503040CA
:107A4000D1F72D9828EE33E0FA013197F1F7215064
:107A50003040D1F7815061F708953F924F925F9285
:107A60006F927F928F929F92AF92BF92CF92DF924E
:107A7000EF92FF920F931F93CF93DF93000080E16B
:107A80008093C4001092C50088E18093C10086E015
:107A90008093C2005098589A259A81E00E94143D24
:107AA00024E1F22E9EE1E92E85E9D82E0FE0C02ECA
:107AB00010E1B12EAA24A394B1E49B2EA6E58A2E50
:107AC000F2E57F2EE0E26E2E79E4572E63E5462E36
:107AD00050E5352E0E94763C8033B1F18133B9F107
:107AE000803409F46FC0813409F476C0823409F41B
:107AF00085C0853409F488C0803531F1823521F1A3
:107B0000813511F1853509F485C0863509F48DC0BC
:107B1000843609F496C0843709F403C1853709F423
:107B200072C1863709F466C0809103018F5F80932C
:107B30000301853079F6E0910401F0910501099582
:107B40000E94763C803351F60E94F33CC3CF0E94E2
:107B5000763C803249F78091C00085FFFCCFF092DF
:107B6000C6008091C00085FFFCCF9092C600809136
:107B7000C00085FFFCCF8092C6008091C00085FFC9
:107B8000FCCF7092C6008091C00085FFFCCF609250
:107B9000C6008091C00085FFFCCF5092C600809146
:107BA000C00085FFFCCF4092C6008091C00085FFD9
:107BB000FCCF3092C6008091C00085FFFCCFB09210
:107BC000C60088CF0E94763C863808F4BDCF0E945C
:107BD000763C0E94F33C7ECF0E94763C803809F4CC
:107BE0009CC0813809F40BC1823809F43CC1883942
:107BF00009F48FC080E00E94C73C6CCF84E10E94F2
:107C0000BD3C0E94F33C66CF85E00E94BD3C0E94D3
:107C1000F33C60CF0E94763C809306010E94763C44
:107C2000809307010E94F33C55CF0E94763C80333D
:107C300009F41DC183E00E94BD3C80E00E94C73C66
:107C400049CF0E94763C809309020E94763C809343
:107C5000080280910C028E7F80930C020E94763C79
:107C6000853409F415C18091080290910902892B8D
:107C700089F000E010E00E94763CF801E85FFE4FDA
:107C800080830F5F1F4F80910802909109020817AF
:107C9000190788F30E94763C803209F045CF809125
:107CA0000C0280FF01C16091060170910701660F0F
:107CB000771F7093070160930601A0910802B091AD
:107CC00009021097C9F0E8E0F1E09B01AD014E0F09
:107CD0005F1FF999FECF32BD21BD819180BDFA9A17
:107CE000F99A2F5F3F4FE417F50799F76A0F7B1F4B
:107CF00070930701609306018091C00085FFFCCF5F
:107D0000F092C6008091C00085FFFCCFB092C60003
:107D1000E1CE83E00E94C73CDDCE82E00E94C73CFA
:107D2000D9CE0E94763C809309020E94763C8093D3
:107D300008028091060190910701880F991F909386
:107D40000701809306010E94763C853409F4A6C0A1
:107D500080910C028E7F80930C020E94763C8032D0
:107D600009F0B8CE8091C00085FFFCCFF092C6002C
:107D7000609108027091090261157105B9F140E046
:107D800050E080910C02A82FA170B82FB27011C0E2
:107D9000BB2309F45CC0E0910601F0910701319624
:107DA000F0930701E09306014F5F5F4F46175707B7
:107DB000E8F4AA2369F3F999FECF209106013091E6
:107DC000070132BD21BDF89A90B58091C00085FFB2
:107DD000FCCF9093C6002F5F3F4F30930701209355
:107DE00006014F5F5F4F4617570718F38091C00099
:107DF00085FDE5CE8091C00085FFF8CFE0CE81E023
:107E00000E94C73C67CE0E94763C803209F08CCE3F
:107E10008091C00085FFFCCFF092C6008091C00029
:107E200085FFFCCFE092C6008091C00085FFFCCFAB
:107E3000D092C6008091C00085FFFCCFC092C600E2
:107E40008091C00085FFFCCFB092C60043CEE09188
:107E50000601F091070194918091C00085FFFCCF4D
:107E60009093C6009CCF80E10E94C73C33CE0E9415
:107E7000763C0E94763C182F0E94763C112309F430
:107E800083C0113009F484C08FE00E94C73C22CE29
:107E900080910C02816080930C02E5CE80910C02EF
:107EA000816080930C0259CF809107018823880F4D
:107EB000880B8A2180930B02809106019091070123
:107EC000880F991F90930701809306018091080203
:107ED00080FF09C080910802909109020196909359
:107EE000090280930802F894F999FECF1127E091D6
:107EF0000601F0910701C8E0D1E08091080290915D
:107F00000902103091F40091570001700130D9F34B
:107F100003E000935700E89500915700017001308D
:107F2000D9F301E100935700E89509901990009169
:107F3000570001700130D9F301E000935700E89534
:107F40001395103498F011270091570001700130FB
:107F5000D9F305E000935700E895009157000170B0
:107F60000130D9F301E100935700E895329602976A
:107F700009F0C7CF103011F00296E5CF112480919F
:107F8000C00085FFB9CEBCCE8EE10E94C73CA2CD19
:0C7F900085E90E94C73C9ECDF894FFCF0D
:027F9C00800063
:040000030000780081
:00000001FF