:100000000C947A000C94F60B0C94CF0B0C94A20079
:100010000C94A2000C94A2000C94A2000C94A200D8
:100020000C94A2000C94A2000C94A2000C94A200C8
:100030000C94A2000C94A2000C94A2000C94A200B8
:100040000C94850B0C94A2000C94530B0C942D0B68
:100050000C94A2000C94A2000C94A2000C94A20098
:100060000C94A2000C94A200FFE0FFD1AFFF32FF7E
:10007000D0FFFEFFE0FFD1AEFFD0FFFEFFE0FFD1DB
:100080001002FFFEFFD0FFE0FFC1FFD1AED580A878
:100090003FD300408D142002A1C8DA1281CFD9F1DC
:1000A000DB402EA4A6AFFFD0FFFE0000000025001D
:1000B00028002B0000000000240027002A00010275
:1000C00004081020408001020408102001020408E6
:1000D000102000000000230026002900040404046E
:1000E00004040404020202020202030303030303E2
:1000F000B50FAD0F11241FBECFEFD8E0DEBFCDBFCF
:1001000012E0A0E0B1E0E6EFF7E202C005900D9248
:10011000A238B107D9F724E0A2E8B2E001C01D92ED
:10012000A337B207E1F710E0C9E7D0E004C0219798
:10013000FE010E942612C837D107C9F70E94590D47
:100140000C94EE130C940000CF93DF93C091F20255
:10015000D091F302E881F9810480F581E02DCE0190
:100160000995892BB9F3E881F9810680F781E02DA3
:10017000CE01DF91CF9109941F93CF93DF93182F76
:10018000C091F202D091F3028A3041F4E881F98102
:100190000190F081E02D6DE0CE010995E881F981B3
:1001A0000190F081E02D612FCE01099521E030E032
:1001B000019711F420E030E0C901DF91CF911F9148
:1001C00008950895DC011696ED91FC91179712960B
:1001D0008C91481B477081E090E001C0880F4A95E0
:1001E000EAF7E60FF11D3081222311F0832B02C0C4
:1001F0008095832380830895FB014181DC01129661
:100200002C911297421768F013962C91139724178C
:1002100040F0608115962C91621718F424810C949B
:10022000E2000895FC0180819281980F92832181E0
:10023000921760F494819F5F94839381890F821752
:1002400010F08FEF820F838381E0089580E008959E
:10025000FC0112828081815083831482089580E0A2
:100260000895FC01E60FF11D849190E0982F8827F6
:100270003196E4918E0F911D08952EE93FE000978D
:1002800029F0F9013197F1F70197F9CF089510920C
:10029000830210928202089580939F021092B90007
:1002A00084FF02C08CE001C088E48093B8000C9405
:1002B0004701DB011496ED91FC91159720E030E0A9
:1002C00065E00994DB011496ED91FC91159720E00F
:1002D00030E062E00994DB011496ED91FC911597F2
:1002E00020E030E063E00994CF92DF92EF92FF923A
:1002F0000F931F93CF93DF938C017B016A0180E002
:10030000F601C49181110BC0CF3F09F44CC04C2FB2
:10031000B701C8010E945901811143C049C0CF3FB4
:1003200011F44FEFF5CFCE3F09F444C0C03FC8F5FC
:10033000C03E38F04C2F4F70B701C8010E946201D7
:1003400030C0C03D38F04C2F4F70B701C8010E943B
:100350006B0127C0C03CF8F0D7011496ED91FC91D9
:10036000159720E030E040E064E0C8010995C295AF
:10037000C07FCE5FD0E0CE010E943D01D701149630
:10038000ED91FC91159720E030E041E064E0C80178
:100390000995CE0104C0C7FD04C08C2F90E00E94D7
:1003A0003D0180E001C081E0BFEFCB1ADB0AA8CF9E
:1003B00080E001C081E0DF91CF911F910F91FF900C
:1003C000EF90DF90CF9008958F929F92AF92BF925F
:1003D000CF92DF92FF920F931F93CF93DF9300D0C2
:1003E000CDB7DEB76C018B01F42E490120E1421735
:1003F00009F467C0241700F13AE0431729F18FE0B0
:10040000481369C041E0C6010E946B0140E0B80199
:10041000C6010E94620141E8B801C6010E9459016B
:10042000F4014081B801C6010E94590140E0B801C1
:10043000C6010E946B0108C1A1E14A1709F444C03A
:10044000B5E14B1791F047C0DB011496ED91FC919B
:10045000159720E030E042E061E0099544E850E083
:10046000B801C6010E94740136C0FB01A280B380AE
:100470004CE750E00E947401D50114964C91406BFA
:10048000B801C6010E94590141E0B801C6010E94AD
:100490006201F50126813781D8011496ED91FC9116
:1004A0001597D50115964C9166E0C6010995811105
:1004B00002C080E0CAC040E0B801C6010E946B01E2
:1004C0000AC043E750E002C048E650E0B801C60168
:1004D0000E947401B9C0D80112960D911C91139716
:1004E000B2E3FB1609F474C0BF15B8F0E5E1FE16DF
:1004F00009F47BC0F7E1FF1609F48DC024E1F21284
:10050000A3C0D8011696ED91FC91179715968C9182
:100510009F01280F311DC90160C036E4F31609F4AC
:100520008AC087E4F81609F48AC0ABE3FA128CC0DB
:10053000F40181819381913029F0933031F4482F77
:10054000885004C048E0480F01C0482F21E0D8017E
:1005500013963C91381708F420E031E0F8015281FD
:10056000451708F430E051E0481708F050E0822FBA
:10057000852B382319F4252309F466C0D40112967B
:10058000FC90913051F030F0923049F0933051F4BA
:100590002FEF09C020E031E007C021E004C020E0D7
:1005A0003FEF02C020E030E0F7FE08C0B401C80110
:1005B0002A8339830E94FC0039812A81F4018081D9
:1005C000830F80838181820F8183FF0C69F73CC098
:1005D000B401C8010E94FC0037C01192E817F90766
:1005E000E1F7C8010E9428012FC0C8010E94120132
:1005F000882309F45ECFD8011696ED91FC911797E8
:1006000015968C919F01280F311DC9011192E81791
:10061000F907E1F719C0D4011C92F8018281119603
:100620008C9311978581815012968C9312978381B8
:1006300013968C9309C0D80115968C9103C0D801EC
:1006400011968C91F401808381E00F900F90DF91DF
:10065000CF911F910F91FF90DF90CF90BF90AF90FF
:100660009F908F90089508950C942D1308950895E8
:100670000C942D13DC01ED91FC9136972081318192
:10068000820F931F0C9438030C942D13CF92DF929A
:10069000EF92FF920F931F93CF93DF93EC016B01C7
:1006A000EC80FD8086E090E0E114F10431F50E94D9
:1006B00098128C01DC011D921C9282E090E00E9455
:1006C0009812F60120813181DC012D933C93F801D1
:1006D0009583848319830883EA81FB8111830083D6
:1006E000D80111961C921E921396FC93EE931297CA
:1006F00081E090E09D838C832DC00E9498128C0134
:10070000FC011182108282E090E00E949812D601D2
:100710002D913C91FC0131832083D80115969C9347
:100720008E931497EA81FB818081918111969C932D
:100730008E931396FC93EE931297A081B18113963A
:100740001C930E93129711830083BFEFEB1AFB0AE1
:10075000FD82EC82DF91CF911F910F91FF90EF907E
:10076000DF90CF900895CF93DF9300D0CDB7DEB761
:100770007A836983BE016F5F7F4F09960E944603AB
:100780000F900F90DF91CF910895CF93DF9300D01A
:10079000CDB7DEB77A836983BE016F5F7F4F0B965B
:1007A0000E9446030F900F90DF91CF910895CF9252
:1007B000DF92EF92FF920F931F93CF93DF93EC01A1
:1007C0006B01E884F98486E090E0E114F10421F5FE
:1007D0000E9498128C01DC011D921C9282E090E034
:1007E0000E949812FC01D182C082D80115969C9378
:1007F0008E9314971D830C83EE81FF8111830083F8
:1008000011961C921E921396FC93EE93129781E020
:1008100090E09987888729C00E9498128C01FC017A
:100820001182108282E090E00E949812DC01CD9249
:10083000DC92F80195838483EE81FF818081918130
:10084000D80111969C938E931396FC93EE93129776
:10085000A081B18113961C930E931297118300838C
:10086000BFEFEB1AFB0AF986E886DF91CF911F9163
:100870000F91FF90EF90DF90CF900895FB012081C2
:100880003181FC0131832083FB0142815381F901D5
:10089000369720813181FC01E20FF31F51834083A1
:1008A00008950895FB0120813181FC01318320836B
:1008B000FB0142815381F901369720813181FC018E
:1008C000E20FF31F5183408308950895DB01ED91FA
:1008D000FC9109940B96FC01849108950A96FC0101
:1008E0008491089568E00C94310166E00C94310124
:1008F000FC01849108950E947804882321F08230BD
:1009000011F083E0089586E008959091830291119B
:1009100004C0809383026093820208951F93CF9353
:10092000DF9300D0CDB7DEB720ED37E03A832983DF
:100930009091BC00982399F429813A81232B51F49A
:1009400080919F02182F127081FD09C081E00E94E2
:10095000850406C029813A8121503109E7CF11E091
:10096000812F0F900F90DF91CF911F91089584E90F
:100970008093BC0064E080E10C948E04CF9380935C
:10098000BB0084E88093BC0063E080E80E948E0492
:10099000C82F882389F080919F02C82FC27081FDE3
:1009A0000AC08091B900887F883229F063E082E034
:1009B0000E94850401C0C1E08C2FCF910895CF9390
:1009C000DF93FC0123A5222379F0EC010E949B0C0C
:1009D000811102C080E009C08EA1811180E40E94D3
:1009E000BE048823B9F31BA681E0DF91CF9108955F
:1009F0000F931F93CF93C42F89016330C1F050F43C
:100A0000613081F0623009F048C0FC0146A321E06A
:100A100023A743C0663011F1673079F1653009F0E2
:100A20003CC00EC0FC0186A50E944C0136C0FC01F2
:100A300016A221E023A7411130C00E94B7042DC0A7
:100A40000E94DF04811104C00E94B70480E026C028
:100A50008C2F0E94BE04811120C0F6CF0E94DF04BB
:100A6000882391F3CC23C9F0F80181918F010E9472
:100A7000BE04882349F3C150F5CF0E94DF048823C8
:100A800019F3CC2351F0F80184910E94BE0488230D
:100A900029F00F5F1F4FC150F4CF81E0CF911F911C
:100AA0000F910895EF92FF920F931F93CF93DF93CF
:100AB0001F92CDB7DEB7DC011696ED90FC9017972C
:100AC000F70107811085D70119968D919C911A978E
:100AD00008171907A9F0D8011496ED91FC91159704
:100AE00080819181DC01ED91FC910480F581E02D04
:100AF000BE016F5F7F4F0995F80102811381E3CF3B
:100B00000F90DF91CF911F910F91FF90EF9008957B
:100B1000CB0108957F928F929F92AF92BF92CF9216
:100B2000DF92EF92FF920F931F93CF93DF93EC012D
:100B300049015A018B01C12CD12C7601C814D9046A
:100B4000EA04FB0484F5F80171908F018F8580FF22
:100B50000BC0E881F9810084F185E02D20E144E0BB
:100B600060E070E0CE010995EB85FC858D859E8562
:100B7000E817F90738F470828B859C8501969C876D
:100B80008B870BC0E881F981672D70E0028CF38DB3
:100B9000E02DCE010995019649F02FEFC21AD20A35
:100BA000E20AF20ACBCFB401C50102C0B601C70107
:100BB000DF91CF911F910F91FF90EF90DF90CF9039
:100BC000BF90AF909F908F907F900895CF93DF93C9
:100BD000EC01E881F9810288F389E02D09958F3FC6
:100BE0002FEF920731F02D813E812F5F3F4F3E83E3
:100BF0002D83DF91CF9108958FEF9FEF089560E0EF
:100C000070E0CB01089580E090E00895CB01089555
:100C1000CF93DF93EC0188899989DC01ED91FC91F8
:100C20000480F581E02D0995892BA9F3888999899C
:100C3000DC01ED91FC910680F781E02DDF91CF91F1
:100C40000994CF93DF93EC0188899989DC01ED91B8
:100C5000FC910480F581E02D0995892BA9F3888901
:100C60009989DC01ED91FC910084F185E02DDF9103
:100C7000CF910994AF92BF92CF92DF92EF92FF9201
:100C80000F931F93CF93DF9300D000D0CDB7DEB783
:100C90008C015B01C12CD12C7601F80180899189EE
:100CA000DC01ED91FC910680F781E02D29833A83E8
:100CB0004B835C83099529813A814B815C818F3F0D
:100CC00071F0C216D306E406F5064CF4D5018D93F7
:100CD0005D01BFEFCB1ADB0AEB0AFB0ADECFC701CF
:100CE000B6010F900F900F900F90DF91CF911F9151
:100CF0000F91FF90EF90DF90CF90BF90AF9008954D
:100D0000DC0150968D919C915197DC01ED91FC9105
:100D10000480F581E02D099480E090E0089580E062
:100D200090E0089580E090E0089580E090E00895DC
:100D300008952F923F924F925F926F927F928F927F
:100D40009F92AF92BF92CF92DF92EF92FF920F935A
:100D50001F93CF93DF931F92CDB7DEB71C01A62E52
:100D6000DC01DC96BC90DC97DB96EC906C01B4E087
:100D7000CB0ED11CDC015996ED91FC915A97C6011E
:100D80000995F82EF10100851185C8010E947804AB
:100D9000982ED10118968D919C9119970E947B04F1
:100DA000682EB1E09B1203C02FE0922E02C099245E
:100DB0009A94F101808591850E946E04882ED1015C
:100DC00018968D919C9119970E946A04782EF101D2
:100DD000808591850E947204F0E6FA1538F4009738
:100DE00029F0080F191F91E6892E13C0D10118961A
:100DF0008D919C9119970E947504B0E4BA1538F44E
:100E0000009729F0080F191F81E4882E02C00F5E99
:100E10001F4F7A1438F4F101148A178A108E158A3C
:100E2000168A9EC07814B8F3262D30E0F80184911C
:100E30008F3F19F40F5F1F4F5AC08A104FC0D10166
:100E400018968D919C9119970E94780498012F5FB4
:100E50003F4FF801882311F08230E1F48491D101F1
:100E600057968C935797F901249158962C9358973D
:100E7000F8013396E4915496EC935497F801349624
:100E8000E4915596EC935597F8013596E491569672
:100E9000EC9320C08491982F9F709250D101569668
:100EA0009C93569782958F7055968C935597F90120
:100EB0002491822F8F7058968C93589722952F707B
:100EC00057962C935797F8013296E491E295EF707C
:100ED0005496EC930115110579F442C0F80132964D
:100EE000E491E921C9018E0F911D080F191F871484
:100EF00009F491CF83949ACFF101808591850E9466
:100F00007B04D10157963C91579758962C9158974E
:100F100055965C915597B21A56969C915697B91A68
:100F2000FB0C9FEF920F9F0DD8964C91D897DA96B5
:100F30006C916F1518F0941728F402C0941768F09C
:100F40009F1558F4E50E9FEF930F9E0DF10147A9F1
:100F500051AD5E1538F4941738F4F10184893FC01F
:100F600080E03DC0941710F49E15B8F7080F111DCE
:100F7000395F532E5694569456944F2C420E41018D
:100F8000F0E28F0E911C652C712CF41431F35E2D60
:100F900058018A2D801B8515F0F4F5018491D1014B
:100FA00016966D917C91179790965C939097919679
:100FB000FC92919793961C92939792968C9394019E
:100FC0004BE3C60159830E946604BFEFAB1ABB0A0C
:100FD0005981585FDECF060D171DF394D6CFD1018E
:100FE000DB962C91DB97082E000C990B820F911D3C
:100FF000DB968C9381E090E00F90DF91CF911F9171
:101000000F91FF90EF90DF90CF90BF90AF909F90A7
:101010008F907F906F905F904F903F902F900895AA
:101020000C942D130F931F93CF93DF938C01EB013F
:101030006F3F8FEF780719F480E090E00FC06A30BF
:1010400031F46DE0F801808991890E94D20C6C2FF7
:10105000F801808991890E94D20CCE01DF91CF9155
:101060001F910F9108958F929F92BF92CF92DF921E
:10107000EF92FF920F931F93CF93DF9300D000D096
:10108000CDB7DEB78C014B01C12CD12C7601C21635
:10109000D306E406F50644F5F401B1904F01FAE0F9
:1010A000BF120EC06DE0F8018089918929833A83CF
:1010B0004B835C830E94D20C5C814B813A812981F5
:1010C0006B2DF8018089918929833A834B835C8356
:1010D0000E94D20CFFEFCF1ADF0AEF0AFF0A5C81F1
:1010E0004B813A812981D3CFCA01B9010F900F906A
:1010F0000F900F90DF91CF911F910F91FF90EF9084
:10110000DF90CF90BF909F908F90089526E332E0BC
:10111000FC013183208320E432E0358B248B66E4AC
:1011200072E00C945204DC01ED91FC913697208121
:101130003181820F931F0C948608CF93DF93EC01CB
:101140000E948608CE01DF91CF910C942D13DC0113
:10115000ED91FC91369720813181820F931F0C9481
:101160009D082EEB31E0FC013183208328EC31E037
:10117000318F208F6EEC71E00C943E04DC01ED9118
:10118000FC91369720813181820F931F0C94B10816
:10119000CF93DF93EC010E94B108CE01DF91CF9194
:1011A0000C942D13DC01ED91FC9136972081318157
:1011B000820F931F0C94C808DC01ED91FC913697C7
:1011C00020813181820F931F0C943303CF93DF93DF
:1011D000EC010E943303CE01DF91CF910C942D13CB
:1011E000DC01ED91FC91369720813181820F931FB4
:1011F0000C94E608DC01ED91FD918081ED91FD916B
:101200009081ED91FD916C9163708E2309F0646083
:101210009F2309F06860E7E1F9E0E60FF11D6595AD
:1012200065956D936D917D918D919D91099423C0EC
:101230001AC012C016C010C01EC009C014C013C00E
:1012400006C019C009C00DC007C00DC014C062504F
:101250007040804090400BC0615070408040904092
:1012600006C06E5F01C06F5F7F4F8F4F9F4F9E9391
:101270008E937E936E930895CF93DF93EC0186E473
:1012800091E09983888382E591E09B838A838F85AF
:101290009889EB85FC85892BF1F00280F381E02DA4
:1012A000FC87EB870190F081E02D848195810E947D
:1012B0002D13EB85FC8580819181009711F00E94B0
:1012C0002D13EB85FC85118210828F8598890197FB
:1012D000988B8F87DCCF848195810E942D138B851D
:1012E0009C85009701F10E942D131DC00280F3819F
:1012F000E02DFD83EC830190F081E02D84819581C8
:101300000E942D13EC81FD8180819181009711F065
:101310000E942D13EC81FD811182108288859985B0
:1013200001979987888788859985EC81FD81892B2C
:10133000E9F6848195810E942D138C819D8100970F
:1013400021F0DF91CF910C942D13DF91CF9108956F
:10135000CF93DF93EC018CE191E09983888388E25D
:1013600091E09B838A838C859D85E885F985892B0F
:10137000F1F00280F381E02DF987E8870190F08198
:10138000E02D848195810E942D13E885F985808167
:101390009181009711F00E942D13E885F985118243
:1013A00010828C859D8501979D878C87DCCF8481F9
:1013B00095810E942D1388859985009721F0DF91F2
:1013C000CF910C942D13DF91CF9108950895FC01D6
:1013D000918D828D981761F0828DDF01A80FB11D6C
:1013E0005D968C91928D9F5F9F73928F90E0089590
:1013F0008FEF9FEF0895FC01918D828D981731F04A
:10140000828DE80FF11D858D90E008958FEF9FEF9D
:101410000895FC01918D228D892F90E0805C9F4F73
:10142000821B91098F739927089584EF92E00E949F
:10143000090A21E0892B09F420E0822F0895FC019C
:10144000848DDF01A80FB11DA35ABF4F2C91848D4D
:1014500090E001968F739927848FA689B7892C9382
:10146000A089B1898C9180648C93938D848D98131D
:1014700006C00288F389E02D80818F7D80830895E6
:10148000EF92FF920F931F93CF93DF93EC0181E0D4
:10149000888F9B8D8C8D981305C0E889F989808190
:1014A00085FD24C0F62E0B8D10E00F5F1F4F0F73CC
:1014B0001127E02E8C8DE8120CC00FB607FCFACF76
:1014C000E889F989808185FFF5CFCE010E941F0A46
:1014D000F1CF8B8DFE01E80FF11DE35AFF4FF08233
:1014E0000B8FEA89FB898081806207C0EE89FF89C2
:1014F0006083E889F98980818064808381E090E05D
:10150000DF91CF911F910F91FF90EF900895CF93AE
:10151000DF93EC01888D8823C9F0EA89FB898081FB
:1015200085FD05C0A889B9898C9186FD0FC00FB6CD
:1015300007FCF5CF808185FFF2CFA889B9898C910E
:1015400085FFEDCFCE010E941F0AE7CFDF91CF913B
:10155000089580E090E0892B29F00E94150A8111FE
:101560000C94000008953FB7F89480918D029091FB
:101570008E02A0918F02B091900226B5A89B05C063
:101580002F3F19F00196A11DB11D3FBFBA2FA92F02
:10159000982F8827820F911DA11DB11DBC01CD017F
:1015A00042E0660F771F881F991F4A95D1F708956B
:1015B0008F929F92AF92BF92CF92DF92EF92FF9263
:1015C0006B017C010E94B30A4B015C01C114D10480
:1015D000E104F104F1F00E94B30ADC01CB018819A7
:1015E0009909AA09BB09883E9340A105B10570F38A
:1015F00021E0C21AD108E108F10888EE880E83E0E4
:10160000981EA11CB11CC114D104E104F10419F706
:10161000DDCFFF90EF90DF90CF90BF90AF909F9085
:101620008F9008952FB7F8946091890270918A0283
:1016300080918B0290918C022FBF089508950E9493
:101640002C1280918602909187020C94FA08809166
:101650008402909185020C94FA081F920F920FB6A3
:101660000F9211242F933F934F935F936F937F9328
:101670008F939F93AF93BF93EF93FF9384EF92E089
:101680000E941F0AFF91EF91BF91AF919F918F919F
:101690007F916F915F914F913F912F910F900FBE6E
:1016A0000F901F9018951F920F920FB60F92112452
:1016B0002F938F939F93EF93FF93E0910403F09107
:1016C00005038081E0910A03F0910B0382FD12C0B3
:1016D000908180910D038F5F8F7320910E0382178D
:1016E00051F0E0910D03F0E0EC50FD4F958F8093A9
:1016F0000D0301C08081FF91EF919F918F912F91F8
:101700000F900FBE0F901F9018951F920F920FB65B
:101710000F9211242F933F938F939F93AF93BF9377
:101720008091890290918A02A0918B02B0918C02E3
:101730003091880223E0230F2D3720F40196A11D5C
:10174000B11D05C026E8230F0296A11DB11D2093EF
:1017500088028093890290938A02A0938B02B093AF
:101760008C0280918D0290918E02A0918F02B09197
:1017700090020196A11DB11D80938D0290938E025F
:10178000A0938F02B0939002BF91AF919F918F91E0
:101790003F912F910F900FBE0F901F9018951F92A1
:1017A0000F920FB60F9211242F933F934F935F9395
:1017B0006F937F938F939F93AF93BF93EF93FF9319
:1017C000E0910201F09103010995FF91EF91BF9122
:1017D000AF919F918F917F916F915F914F913F91C9
:1017E0002F910F900FBE0F901F9018951F920F9280
:1017F0000FB60F9211242F933F934F935F936F93E4
:101800007F938F939F93AF93BF93EF93FF93E09159
:101810000001F09101010995FF91EF91BF91AF9106
:101820009F918F917F916F915F914F913F912F91F8
:101830000F900FBE0F901F9018958230A1F083304B
:1018400029F5709387026093860281E29BE0909372
:1018500003018093020180916900837F84608093FB
:101860006900E99A11C0709385026093840287E24F
:101870009BE09093010180930001809169008C7F2F
:10188000816080936900E89A81E0089580E008957E
:10189000CF93DF9390E0FC01E254FF4F2491FC01D1
:1018A000E452FF4F84918823C1F090E0880F991F84
:1018B000FC01EC54FF4FC591D491FC01E655FF4F5C
:1018C000A591B4919FB7F8943881822F8095832396
:1018D0008883EC91E22BEC939FBFDF91CF91089529
:1018E000CF92DF92EF92FF920F931F93CF93DF93EC
:1018F0006C017A018B01C0E0D0E0CE15DF0589F0E4
:10190000D8016D918D01D601ED91FC910190F0818E
:10191000E02DC6010995892B11F47E0102C02196A4
:10192000ECCFC701DF91CF911F910F91FF90EF9006
:10193000DF90CF900895CF9384EA8093BC0061E05C
:1019400080E80E948E04882359F08091B900887F36
:10195000883041F0803131F061E082E00E948504FE
:10196000C0E01DC088E78093BB0084E88093BC0082
:1019700062E080E80E948E04882391F380919F02A8
:10198000C82FC27081FD0AC08091B900887F88315C
:1019900029F062E082E00E94850401C0C1E08C2F42
:1019A000CF910895DC01ED91FC910190F081E02D43
:1019B00009946115710579F0FB0101900020E9F7A8
:1019C0003197AF01461B570BDC01ED91FC91028072
:1019D000F381E02D099480E090E008954F925F92AA
:1019E0006F927F92EF92FF920F931F93CF93DF93AB
:1019F000CDB7DEB7A1970FB6F894DEBF0FBECDBF4F
:101A00007C01FA01CB0119A2223008F42AE08E01F0
:101A10000F5D1F4F422E512C612C712CBF01A30171
:101A200092010E94CC13F901CA01015011096A30D8
:101A300014F4605D01C0695CD8016C93232B242BE6
:101A4000252B61F7B801C7010E94D90CA1960FB6EA
:101A5000F894DEBF0FBECDBFDF91CF911F910F91E4
:101A6000FF90EF907F906F905F904F900895089552
:101A70000895CF93DF93EC010E943C09CE01DF91E2
:101A8000CF910C942D1302970C94390D02970C945E
:101A90003C09CF93DF93EC010E94A809CE01DF91AE
:101AA000CF910C942D1302970C94490D02970C942E
:101AB000A809789484B5826084BD84B5816084BDB2
:101AC00085B5826085BD85B5816085BD80916E00DC
:101AD000816080936E00109281008091810082600D
:101AE000809381008091810081608093810080914A
:101AF00080008160809380008091B1008460809339
:101B0000B1008091B00081608093B00080917A0034
:101B1000846080937A0080917A00826080937A005A
:101B200080917A00816080937A0080917A00806849
:101B300080937A001092C1001092E4021092E502A4
:101B40001092E6021092E7021092A2021092A302F3
:101B50001092A4021092A50260ED77E080E090E080
:101B60000E94D80A84EF92E09093E3028093E2020D
:101B7000E0910403F091050382E08083E09100038B
:101B8000F09101031082E0910203F091030380E1E0
:101B9000808310920C03E0910803F091090386E022
:101BA0008083E0910603F091070380818061808348
:101BB000E0910603F0910703808188608083E091C3
:101BC0000603F0910703808180688083E09106031B
:101BD000F091070380818F7D80830E94120B6093B8
:101BE000A2027093A3028093A4029093A5026CE5D5
:101BF00072E08091E2029091E3020E94D90C6AE0C7
:101C000070E080E090E00E94D80A81E08093B60204
:101C100082E090E00E94981228EEE22E22E0F22E5E
:101C2000DC01ED92FC9290939602809395028FE0F6
:101C300090E00E9498128C018CE191E0F801918370
:101C4000808388E291E0938382831586148686E000
:101C500090E00E949812FC0111821082138212827D
:101C600015821482D80119969C938E9318971B960F
:101C70009C938E931A971596FC92EE92149710935C
:101C800094020093930284E190E00E949812EC0188
:101C900086E491E09983888382E591E09B838A833F
:101CA0001986188686E090E00E949812FC01118245
:101CB000108213821282158214829D838C839F83EB
:101CC0008E83188A1F8686E090E00E949812FC019D
:101CD0001182108213821282158214829C878B8754
:101CE0009E878D87FB8AEA8AD0939202C0939102E5
:101CF000B801CE010E94D703E881F9810680F781FF
:101D0000E02D0115110521F0B8016E5F7F4F02C073
:101D100060E070E0CE01099584EF882E99249394B9
:101D2000A12CB12C0E94120B672B682B692B41F45C
:101D30000E94120B623071058105910508F40AC1F9
:101D40000E94120B60939B0270939C0280939D02F1
:101D500090939E020091970210919802209199020F
:101D600030919A02601771078207930740F46093DD
:101D70009702709398028093990290939A0200912F
:101D80009702109198022091990230919A026B016A
:101D90007C01C01AD10AE20AF30A970186010A3FC0
:101DA00011052105310508F4D5C0609397027093A1
:101DB00098028093990290939A028092AE02909238
:101DC000AF02A092B002B092B1021092B202109291
:101DD000B3021092B4021092B5028091A6029091C3
:101DE000A702A091A802B091A9028093AA029093A1
:101DF000AB02A093AC02B093AD020E94120B6093B1
:101E0000A6027093A7028093A8029093A9020E9451
:101E1000120B6093A2027093A3028093A40290938A
:101E2000A5020E94120B6B017C016EE672E08091AC
:101E3000E2029091E3020E94D90C2AE041E050E0D6
:101E400060E070E08091E2029091E3020E94EE0C6B
:101E500065E772E08091E2029091E3020E94D90C62
:101E60002AE0B701A6018091E2029091E3020E946C
:101E7000EE0C67E772E08091E2029091E3020E942B
:101E8000D90C8091A6029091A702A091A802B091CE
:101E9000A902B701A601481B590B6A0B7B0B2AE06C
:101EA0008091E2029091E3020E94EE0C67E772E0FB
:101EB0008091E2029091E3020E94D90C4091A60227
:101EC0005091A7026091A8027091A9028091AA0284
:101ED0009091AB02A091AC02B091AD02481B590B9E
:101EE0006A0B7B0B2AE08091E2029091E3020E9450
:101EF000EE0C69E772E08091E2029091E3020E94A9
:101F0000D90C0E94120BAB01BC012AE08091E202C5
:101F10009091E3020E94EE0CC091E202D091E302A4
:101F20006BE772E0CE010E94D90C6BE672E0CE0145
:101F30000E94D90C65E070E080E090E00E94D80A31
:101F40000E94120B6093A6027093A7028093A802CE
:101F50009093A9020E94A90AE5CE81E194E00E9433
:101F6000B1088FE394E00C948608CF92DF92EF9251
:101F7000FF920F931F93CF93DF931F92CDB7DEB7DE
:101F800084EF92E01092F7021092F60248EE53E0CE
:101F900060E070E04093F8025093F9026093FA0217
:101FA0007093FB0228E931E03093F5022093F402AC
:101FB00025EC30E0309301032093000324EC30E063
:101FC000309303032093020320EC30E030930503A9
:101FD0002093040321EC30E03093070320930603A1
:101FE00022EC30E0309309032093080326EC30E024
:101FF00030930B0320930A0310920D0310920E03EB
:1020000010920F03109210031092A6021092A702D2
:102010001092A8021092A9021092AA021092AB028A
:102020001092AC021092AD021092AE021092AF026A
:102030001092B0021092B1021092B2021092B3024A
:102040001092B4021092B50261E270E070935704EE
:1020500060935604109258041092590410925A0436
:1020600046E0C42ED12CE12CF12CC0925B04D0921E
:102070005C04E0925D04F0925E0410925F041092A2
:102080006004109261041092620440E24093630481
:1020900010926504109264041092680421E434E004
:1020A000309367042093660426E332E030934004C3
:1020B00020933F0420E432E03093540420935304EF
:1020C0001092450410924404109247041092460462
:1020D000109249041092480410924B0410924A0442
:1020E00010924D0410924C0410924F0410924E0422
:1020F00024E132E03093420420934104909352044F
:102100008093510450E15093500470932D046093D8
:102110002C0410922E0410922F0410923004C092BE
:102120003104D0923204E0923304F09234041092DD
:1021300035041092360410923704109238044093FC
:10214000390410923B0410923A0410923E0410920B
:10215000130410921404109215041092160447E10F
:1021600054E050933D0440933C044EEB51E05093B7
:1021700012044093110448EC51E050932A04409318
:10218000290410921B0410921A0410921D0410923C
:102190001C0410921F0410921E041092210410922D
:1021A000200410922304109222041092250410920D
:1021B00024043093180420931704909328048093E8
:1021C000270428E0209326049093F3028093F202E0
:1021D00064EA70E08CEB90E00E94311282E090E0C3
:1021E0009093ED028093EC0283E090E09093EF02F5
:1021F0008093EE0287E090E09093F1028093F002EA
:102200008EE390E00E9498128C01DC0113961C92E0
:102210001E92129780E592E011969C938E93DB9626
:102220001C92DB97DC961C92DC97DD961C92780161
:10223000B4E0EB0EF11CF8011186108613861286AD
:10224000158681E0848782E28687138A128AB79690
:10225000C801C5962FEF2193E817F907E1F781E050
:10226000D80194968C9394972FE231E05A963C9340
:102270002E9359975B968C935B975C961C925C9718
:102280005D961C925D9780E45E968C935E975F9658
:102290001C925F9781EE90E0D6969C938E93D59793
:1022A0008CE091E017969C938E93169780E1D296DE
:1022B0008C9320E030E04AE06CE071E0C7010E94BE
:1022C0006604D82ED801D596ED91FC91D69783E07F
:1022D0000995D801D596ED91FC91D69780E00995A6
:1022E000DD20A1F1F801668177819E012F5F3F4FCC
:1022F00046E4C7010E9466048981D80114968C9334
:10230000149716966D917C9117979E012F5F3F4F02
:1023100047E4C7010E9466048981F80185836681CC
:10232000778120E030E048E4C7010E946604D801CC
:102330001F968C931F9716966D917C911797980115
:10234000295C3F4F47E1C7010E94660488E592E09F
:10235000F801918380831093E9020093E8028CE0F6
:1023600090E00E9498128C01E090EC02F090ED0257
:10237000C090EE02D090EF028C2D0E94480C8E2D62
:102380000E94480CC6019927FC01E452FF4FE491DA
:10239000F0E0EE0FFF1FEE52FF4FA591B491F80150
:1023A000B183A083FC01E254FF4F2491F801248300
:1023B000C7019927FC01E452FF4FE491F0E0EE0FD2
:1023C000FF1FEE52FF4F45915491F8015383428312
:1023D000FC01E254FF4F8491F80185831782108637
:1023E000118612868BE39FE10197F1F78C912823E8
:1023F00091E009F490E0DA012C91F80185818223C3
:1024000009F09260D80116969C93B8018C2D0E9419
:102410001D0CF8018387B8018E2D0E941D0CD80178
:102420001B962C911B9790E0820F911D1B968C930D
:102430001093EB020093EA020F90DF91CF911F916E
:102440000F91FF90EF90DF90CF900895EE0FFF1F58
:102450000590F491E02D099481E090E0F8940C94BB
:10246000EE130F931F93CF93DF93009731F4611511
:10247000710519F480E090E03AC08B01EC016EE048
:1024800070E081E090E00E947C12FC01892B91F3C6
:1024900080E883830115110571F01387028781E8B5
:1024A00083838091690490916A04892B21F4F093CD
:1024B0006A04E09369042097C9F0D187C0878381BB
:1024C0008260838380916B0490916C04892B71F4FA
:1024D000F0936C04E0936B0480916D0490916E0412
:1024E000892B21F4F0936E04E0936D04CF01DF910A
:1024F000CF911F910F9108950F931F93CF93DF9367
:10250000869F8001879F100D969F100D1124C80192
:102510000E949812EC01009729F0A80160E070E099
:102520000E94C513CE01DF91CF911F910F910895A5
:10253000CF93DF938230910510F482E090E0E09138
:102540007104F091720420E030E0C0E0D0E03097F8
:1025500011F14081518148175907C0F048175907B8
:1025600061F482819381209719F09B838A832BC029
:10257000909372048093710426C02115310519F0DF
:102580004217530718F49A01BE01DF01EF010280E0
:10259000F381E02DDCCF2115310509F1281B390B22
:1025A0002430310590F412968D919C91139761150A
:1025B000710521F0FB019383828304C09093720420
:1025C00080937104FD01329644C0FD01E20FF31FB8
:1025D00081939193225031092D933C933AC02091DD
:1025E0006F0430917004232B41F420911401309139
:1025F00015013093700420936F04209112013091E3
:1026000013012115310541F42DB73EB74091160154
:1026100050911701241B350BE0916F04F091700469
:10262000E217F307A0F42E1B3F0B2817390778F0A9
:10263000AC014E5F5F4F2417350748F04E0F5F1F08
:102640005093700440936F048193919302C0E0E033
:10265000F0E0CF01DF91CF9108950F931F93CF93B7
:10266000DF93009709F48CC0FC0132971382128229
:1026700000917104109172040115110581F42081FB
:102680003181820F931F20916F04309170042817BD
:10269000390779F5F0937004E0936F0471C0D801A5
:1026A00040E050E0AE17BF0750F412962D913C91D8
:1026B0001397AD012115310509F1D901F3CF9D0122
:1026C000DA013383228360817181860F971F82171D
:1026D000930769F4EC0128813981260F371F2E5F9B
:1026E0003F4F318320838A819B8193838283452B53
:1026F00029F4F0937204E093710442C01396FC93A2
:10270000EE931297ED01499159919E01240F351FC7
:10271000E217F30771F480819181840F951F02966F
:1027200011969C938E938281938113969C938E93A2
:102730001297E0E0F0E0D80112968D919C911397EA
:10274000009719F0F8018C01F6CF8D919C919801BA
:102750002E5F3F4F820F931F20916F0430917004C2
:102760002817390769F4309729F4109272041092EF
:10277000710402C0138212821093700400936F04DC
:10278000DF91CF911F910F910895DC0101C06D93EE
:1027900041505040E0F70895A1E21A2EAA1BBB1B3E
:1027A000FD010DC0AA1FBB1FEE1FFF1FA217B3071D
:1027B000E407F50720F0A21BB30BE40BF50B661F33
:1027C000771F881F991F1A9469F7609570958095F7
:1027D00090959B01AC01BD01CF01089510E0C9E7C0
:1027E000D0E004C0FE010E9426122196CA37D1070C
:0627F000C9F7F894FFCFC9
:1027F6001E0B1E0B0840000000809103E40104013B
:10280600F80400007304800000000000A809490DC8
:102816005205380DFEFF0000560D530D370D000012
:102826000000000000001F0B000000000000000078
:102836001F0B000000003C09390DD703C503FEFF3E
:102846000000460D430DB303000000000000000029
:102856001F0B00000000000000001F0B1800000006
:10286600000000000000E8FFE8FF00000000000094
:1028760014000000000000000000ECFFECFF000068
:102886000000000000000000400A700C090AE70979
:10289600FB09870A0600000000003303E608FAFF7A
:1028A600FAFF0000DC08F008180000000000B1087C
:1028B600C808E8FFE8FF0000BE08D208BE017201A2
:1028C6007C01C80100000000E6091008980695067C
:1028D60092068F068C060306FF05FC05E60506062E
:1028E6008A05880502000000000036033803FEFF53
:1028F600FEFF000037033A030000000065044403AE
:1029060000000000510434039806950692068F06CF
:102916008C0680063A0621060806060633081208C3
:1029260014000000000086089D08ECFFECFF000084
:102936009308A708360286019001400200000000B5
:102946009906700C000000009906700C564D445014
:10295600565F317C315F564D4450560D0A00564D38
:102966004450455F003A323A007C005F564D445071
:0229760045001A
:107800000C94343C0C94513C0C94513C0C94513CE1
:107810000C94513C0C94513C0C94513C0C94513CB4
:107820000C94513C0C94513C0C94513C0C94513CA4
:107830000C94513C0C94513C0C94513C0C94513C94
:107840000C94513C0C94513C0C94513C0C94513C84
:107850000C94513C0C94513C0C94513C0C94513C74
:107860000C94513C0C94513C11241FBECFEFD8E036
:10787000DEBFCDBF11E0A0E0B1E0ECE9FFE702C060
:1078800005900D92A230B107D9F712E0A2E0B1E065
:1078900001C01D92AD30B107E1F70E942D3D0C945F
:1078A000CC3F0C94003C982F959595959595959582
:1078B000905D8F708A307CF0282F295A8091C0000B
:1078C00085FFFCCF9093C6008091C00085FFFCCF60
:1078D0002093C6000895282F205DF0CF982F809127
:1078E000C00085FFFCCF9093C6000895EF92FF92F1
:1078F0000F931F93EE24FF2487018091C00087FD22
:1079000017C00894E11CF11C011D111D81E4E8164B
:1079100082E4F8068FE0080780E0180770F3E09132
:107920000401F091050109958091C00087FFE9CF1E
:107930008091C6001F910F91FF90EF9008950E94D3
:10794000763C982F8091C00085FFFCCF9093C600B5
:1079500091362CF490330CF09053892F089597555D
:10796000892F08951F930E949F3C182F0E949F3CCF
:107970001295107F810F1F9108951F93182F882350
:1079800021F00E94763C1150E1F71F9108951F935A
:10799000182F0E94763C803249F0809103018F5F5E
:1079A000809303018530C1F01F9108958091C0003C
:1079B00085FFFCCF84E18093C6008091C00085FFE5
:1079C000FCCF1093C6008091C00085FFFCCF80E102
:1079D0008093C6001F910895E0910401F091050184
:1079E00009951F9108950E94763C803241F0809164
:1079F00003018F5F80930301853081F008958091AA
:107A0000C00085FFFCCF84E18093C6008091C00058
:107A100085FFFCCF80E18093C6000895E0910401CA
:107A2000F09105010995089540E951E08823A1F0FE
:107A30002D9A28EE33E0FA013197F1F721503040CA
:107A4000D1F72D9828EE33E0FA013197F1F7215064
:107A50003040D1F7815061F708953F924F925F9285
:107A60006F927F928F929F92AF92BF92CF92DF924E
:107A7000EF92FF920F931F93CF93DF93000080E16B
:107A80008093C4001092C50088E18093C10086E015
:107A90008093C2005098589A259A81E00E94143D24
:107AA00024E1F22E9EE1E92E85E9D82E0FE0C02ECA
:107AB00010E1B12EAA24A394B1E49B2EA6E58A2E50
:107AC000F2E57F2EE0E26E2E79E4572E63E5462E36
:107AD00050E5352E0E94763C8033B1F18133B9F107
:107AE000803409F46FC0813409F476C0823409F41B
:107AF00085C0853409F488C0803531F1823521F1A3
:107B0000813511F1853509F485C0863509F48DC0BC
:107B1000843609F496C0843709F403C1853709F423
:107B200072C1863709F466C0809103018F5F80932C
:107B30000301853079F6E0910401F0910501099582
:107B40000E94763C803351F60E94F33CC3CF0E94E2
:107B5000763C803249F78091C00085FFFCCFF092DF
:107B6000C6008091C00085FFFCCF9092C600809136
:107B7000C00085FFFCCF8092C6008091C00085FFC9
:107B8000FCCF7092C6008091C00085FFFCCF609250
:107B9000C6008091C00085FFFCCF5092C600809146
:107BA000C00085FFFCCF4092C6008091C00085FFD9
:107BB000FCCF3092C6008091C00085FFFCCFB09210
:107BC000C60088CF0E94763C863808F4BDCF0E945C
:107BD000763C0E94F33C7ECF0E94763C803809F4CC
:107BE0009CC0813809F40BC1823809F43CC1883942
:107BF00009F48FC080E00E94C73C6CCF84E10E94F2
:107C0000BD3C0E94F33C66CF85E00E94BD3C0E94D3
:107C1000F33C60CF0E94763C809306010E94763C44
:107C2000809307010E94F33C55CF0E94763C80333D
:107C300009F41DC183E00E94BD3C80E00E94C73C66
:107C400049CF0E94763C809309020E94763C809343
:107C5000080280910C028E7F80930C020E94763C79
:107C6000853409F415C18091080290910902892B8D
:107C700089F000E010E00E94763CF801E85FFE4FDA
:107C800080830F5F1F4F80910802909109020817AF
:107C9000190788F30E94763C803209F045CF809125
:107CA0000C0280FF01C16091060170910701660F0F
:107CB000771F7093070160930601A0910802B091AD
:107CC00009021097C9F0E8E0F1E09B01AD014E0F09
:107CD0005F1FF999FECF32BD21BD819180BDFA9A17
:107CE000F99A2F5F3F4FE417F50799F76A0F7B1F4B
:107CF00070930701609306018091C00085FFFCCF5F
:107D0000F092C6008091C00085FFFCCFB092C60003
:107D1000E1CE83E00E94C73CDDCE82E00E94C73CFA
:107D2000D9CE0E94763C809309020E94763C8093D3
:107D300008028091060190910701880F991F909386
:107D40000701809306010E94763C853409F4A6C0A1
:107D500080910C028E7F80930C020E94763C8032D0
:107D600009F0B8CE8091C00085FFFCCFF092C6002C
:107D7000609108027091090261157105B9F140E046
:107D800050E080910C02A82FA170B82FB27011C0E2
:107D9000BB2309F45CC0E0910601F0910701319624
:107DA000F0930701E09306014F5F5F4F46175707B7
:107DB000E8F4AA2369F3F999FECF209106013091E6
:107DC000070132BD21BDF89A90B58091C00085FFB2
:107DD000FCCF9093C6002F5F3F4F30930701209355
:107DE00006014F5F5F4F4617570718F38091C00099
:107DF00085FDE5CE8091C00085FFF8CFE0CE81E023
:107E00000E94C73C67CE0E94763C803209F08CCE3F
:107E10008091C00085FFFCCFF092C6008091C00029
:107E200085FFFCCFE092C6008091C00085FFFCCFAB
:107E3000D092C6008091C00085FFFCCFC092C600E2
:107E40008091C00085FFFCCFB092C60043CEE09188
:107E50000601F091070194918091C00085FFFCCF4D
:107E60009093C6009CCF80E10E94C73C33CE0E9415
:107E7000763C0E94763C182F0E94763C112309F430
:107E800083C0113009F484C08FE00E94C73C22CE29
:107E900080910C02816080930C02E5CE80910C02EF
:107EA000816080930C0259CF809107018823880F4D
:107EB000880B8A2180930B02809106019091070123
:107EC000880F991F90930701809306018091080203
:107ED00080FF09C080910802909109020196909359
:107EE000090280930802F894F999FECF1127E091D6
:107EF0000601F0910701C8E0D1E08091080290915D
:107F00000902103091F40091570001700130D9F34B
:107F100003E000935700E89500915700017001308D
:107F2000D9F301E100935700E89509901990009169
:107F3000570001700130D9F301E000935700E89534
:107F40001395103498F011270091570001700130FB
:107F5000D9F305E000935700E895009157000170B0
:107F60000130D9F301E100935700E895329602976A
:107F700009F0C7CF103011F00296E5CF112480919F
:107F8000C00085FFB9CEBCCE8EE10E94C73CA2CD19
:0C7F900085E90E94C73C9ECDF894FFCF0D
:027F9C00800063
:040000030000780081
:00000001FF