:100000000C947A000C940D0A0C94E6090C94A2004E
:100010000C94A2000C94A2000C94A2000C94A200D8
:100020000C94A2000C94A2000C94A2000C94A200C8
:100030000C94A2000C94A2000C94A2000C94A200B8
:100040000C949C090C94A2000C946A090C94440929
:100050000C94A2000C94A2000C94A2000C94A20098
:100060000C94A2000C94A200FFE0FFD1AFFF32FF7E
:10007000D0FFFEFFE0FFD1AEFFD0FFFEFFE0FFD1DB
:100080001002FFFEFFD0FFE0FFC1FFD1AED580A878
:100090003FD300408D142002A1C8DA1281CFD9F1DC
:1000A000DB402EA4A6AFFFD0FFFE0000000025001D
:1000B00028002B0000000000240027002A00010275
:1000C00004081020408001020408102001020408E6
:1000D000102000000000230026002900040404046E
:1000E00004040404020202020202030303030303E2
:1000F000270D1F0D11241FBECFEFD8E0DEBFCDBFEF
:1001000012E0A0E0B1E0EAEDF2E202C005900D924B
:10011000AE32B107D9F724E0AEE2B2E001C01D92E1
:10012000A931B207E1F710E0C9E7D0E004C0219798
:10013000FE010E94980FC837D107C9F70E944E0BE5
:100140000C9460110C940000CB0108957F928F9263
:100150009F92AF92BF92CF92DF92EF92FF920F9356
:100160001F93CF93DF93EC0149015A018B01C12CFE
:10017000D12C7601C814D904EA04FB0484F5F801F3
:1001800071908F018F8580FF0BC0E881F981008419
:10019000F185E02D20E144E060E070E0CE010995BA
:1001A000EB85FC858D859E85E817F90738F470820C
:1001B0008B859C8501969C878B870BC0E881F98194
:1001C000672D70E0028CF38DE02DCE01099501962C
:1001D00049F02FEFC21AD20AE20AF20ACBCFB401D9
:1001E000C50102C0B601C701DF91CF911F910F91E8
:1001F000FF90EF90DF90CF90BF90AF909F908F9047
:100200007F900895CF93DF93EC01E881F981028814
:10021000F389E02D09958F3F2FEF920731F02D8163
:100220003E812F5F3F4F3E832D83DF91CF91089515
:100230008FEF9FEF089560E070E0CB01089580E0BC
:1002400090E00895CB010895CF93DF93EC01888966
:100250009989DC01ED91FC910480F581E02D0995EF
:10026000892BA9F388899989DC01ED91FC9106809D
:10027000F781E02DDF91CF910994CF93DF93EC01CB
:1002800088899989DC01ED91FC910480F581E02D4C
:100290000995892BA9F388899989DC01ED91FC9155
:1002A0000084F185E02DDF91CF910994AF92BF9248
:1002B000CF92DF92EF92FF920F931F93CF93DF9332
:1002C00000D000D0CDB7DEB78C015B01C12CD12CA2
:1002D0007601F80180899189DC01ED91FC9106801D
:1002E000F781E02D29833A834B835C83099529812B
:1002F0003A814B815C818F3F71F0C216D306E406D0
:10030000F5064CF4D5018D935D01BFEFCB1ADB0AE6
:10031000EB0AFB0ADECFC701B6010F900F900F90DA
:100320000F90DF91CF911F910F91FF90EF90DF9091
:10033000CF90BF90AF900895DC0150968D919C9125
:100340005197DC01ED91FC910480F581E02D099439
:1003500080E090E0089580E090E0089580E090E0F3
:10036000089580E090E008950895CF93DF93C091C1
:100370008E02D0918F02E881F9810480F581E02D11
:10038000CE010995892BB9F3E881F9810680F781BF
:10039000E02DCE01DF91CF9109941F93CF93DF938E
:1003A000182FC0918E02D0918F028A3041F4E881DB
:1003B000F9810190F081E02D6DE0CE010995E88191
:1003C000F9810190F081E02D612FCE01099521E0A6
:1003D00030E0019711F420E030E0C901DF91CF91C6
:1003E0001F9108950895DC011696ED91FC911797E1
:1003F00012968C91481B477081E090E001C0880FF5
:100400004A95EAF7E60FF11D3081222311F0832B84
:1004100002C08095832380830895FB014181DC0124
:1004200012962C911297421768F013962C911397FD
:10043000241740F0608115962C91621718F42481DE
:100440000C94F3010895FC0180819281980F9283AE
:100450002181921760F494819F5F94839381890F27
:10046000821710F08FEF820F838381E0089580E080
:100470000895FC0112828081815083831482089543
:1004800080E008950B96FC01849108950A96FC0182
:1004900084910895FC01849108950E944A02882362
:1004A00021F0823011F083E0089586E00895FC0188
:1004B000E60FF11D849190E0982F88273196E49102
:1004C0008E0F911D089568E00C94570266E00C941D
:1004D00057022EE93FE0009729F0F9013197F1F733
:1004E0000197F9CF089510922F0210922E020895CD
:1004F000809345021092B90084FF02C08CE001C0D5
:1005000088E48093B8000C947302DB011496ED919B
:10051000FC91159720E030E065E00994DB0114962A
:10052000ED91FC91159720E030E062E00994DB0149
:100530001496ED91FC91159720E030E063E009946A
:10054000CF92DF92EF92FF920F931F93CF93DF939F
:100550008C017B016A0180E0F601C49181110BC01E
:10056000CF3F09F44CC04C2FB701C8010E9485024F
:10057000811143C049C0CF3F11F44FEFF5CFCE3FBB
:1005800009F444C0C03FC8F5C03E38F04C2F4F704E
:10059000B701C8010E948E0230C0C03D38F04C2F18
:1005A0004F70B701C8010E94970227C0C03CF8F005
:1005B000D7011496ED91FC91159720E030E040E0D2
:1005C00064E0C8010995C295C07FCE5FD0E0CE013E
:1005D0000E946902D7011496ED91FC91159720E0D5
:1005E00030E041E064E0C8010995CE0104C0C7FDD8
:1005F00004C08C2F90E00E94690280E001C081E07D
:10060000BFEFCB1ADB0AA8CF80E001C081E0DF9109
:10061000CF911F910F91FF90EF90DF90CF900895B1
:100620008F929F92AF92BF92CF92DF92FF920F93E1
:100630001F93CF93DF9300D0CDB7DEB76C018B0152
:10064000F42E490120E1421709F467C0241700F194
:100650003AE0431729F18FE0481369C041E0C60131
:100660000E94970240E0B801C6010E948E0241E854
:10067000B801C6010E948502F4014081B801C6019B
:100680000E94850240E0B801C6010E94970208C19D
:10069000A1E14A1709F444C0B5E14B1791F047C0F6
:1006A000DB011496ED91FC91159720E030E042E0DB
:1006B00061E0099544E850E0B801C6010E94A0023B
:1006C00036C0FB01A280B3804CE750E00E94A0023C
:1006D000D50114964C91406BB801C6010E94850269
:1006E00041E0B801C6010E948E02F50126813781E2
:1006F000D8011496ED91FC911597D50115964C9162
:1007000066E0C6010995811102C080E0CAC040E0E0
:10071000B801C6010E9497020AC043E750E002C038
:1007200048E650E0B801C6010E94A002B9C0D80155
:1007300012960D911C911397B2E3FB1609F474C045
:10074000BF15B8F0E5E1FE1609F47BC0F7E1FF162E
:1007500009F48DC024E1F212A3C0D8011696ED91E0
:10076000FC91179715968C919F01280F311DC90197
:1007700060C036E4F31609F48AC087E4F81609F479
:100780008AC0ABE3FA128CC0F4018181938191306D
:1007900029F0933031F4482F885004C048E0480FC6
:1007A00001C0482F21E0D80113963C91381708F476
:1007B00020E031E0F8015281451708F430E051E0C3
:1007C000481708F050E0822F852B382319F4252391
:1007D00009F466C0D4011296FC90913051F030F0CB
:1007E000923049F0933051F42FEF09C020E031E00E
:1007F00007C021E004C020E03FEF02C020E030E06D
:10080000F7FE08C0B401C8012A8339830E940D0293
:1008100039812A81F4018081830F80838181820F55
:100820008183FF0C69F73CC0B401C8010E940D022E
:1008300037C01192E817F907E1F7C8010E943902A1
:100840002FC0C8010E942302882309F45ECFD8017B
:100850001696ED91FC91179715968C919F01280F94
:10086000311DC9011192E817F907E1F719C0D40148
:100870001C92F801828111968C9311978581815089
:1008800012968C931297838113968C9309C0D8018A
:1008900015968C9103C0D80111968C91F401808338
:1008A00081E00F900F90DF91CF911F910F91FF90FA
:1008B000DF90CF90BF90AF909F908F9008950F934F
:1008C0001F93CF93DF938C01EB016F3F8FEF78077E
:1008D00019F480E090E00FC06A3031F46DE0F80167
:1008E000808991890E94E90A6C2FF8018089918999
:1008F0000E94E90ACE01DF91CF911F910F910895D7
:100900008F929F92BF92CF92DF92EF92FF920F93BE
:100910001F93CF93DF9300D000D0CDB7DEB78C010B
:100920004B01C12CD12C7601C216D306E406F50684
:1009300044F5F401B1904F01FAE0BF120EC06DE032
:10094000F8018089918929833A834B835C830E94D3
:10095000E90A5C814B813A8129816B2DF8018089FC
:10096000918929833A834B835C830E94E90AFFEFD4
:10097000CF1ADF0AEF0AFF0A5C814B813A81298195
:10098000D3CFCA01B9010F900F900F900F90DF9154
:10099000CF911F910F91FF90EF90DF90CF90BF907C
:1009A0009F908F9008950C949F10089508950C9433
:1009B0009F10DC01ED91FC91369720813181820FEF
:1009C000931F0C94D704FB0120813181FC013183FA
:1009D0002083FB0142815381F901369720813181C7
:1009E000FC01E20FF31F5183408308952AE631E0B2
:1009F000FC013183208324E731E0318F208F6AE7C7
:100A000071E00C94E304DC01ED91FC9136972081B8
:100A10003181820F931F0C94F604CF93DF93EC0186
:100A20000E94F604CE01DF91CF910C949F10DC015F
:100A3000ED91FC91369720813181820F931F0C94A8
:100A40000D050C949F10089508950C949F10DC01DF
:100A5000ED91FC91369720813181820F931F0C9488
:100A60002505FB0120813181FC0131832083FB01BD
:100A700042815381F901369720813181FC01E20FD7
:100A8000F31F51834083089522EE31E0FC0131834E
:100A900020832CEE31E0358B248B62EF71E00C94D7
:100AA0003105DC01ED91FC91369720813181820F77
:100AB000931F0C944405CF93DF93EC010E944405EF
:100AC000CE01DF91CF910C949F10DC01ED91FC9150
:100AD000369720813181820F931F0C945B050C9413
:100AE0009F10DC01ED91FD918081ED91FD91908150
:100AF000ED91FD916C9163708E2309F064609F23EA
:100B000009F06860EEE8F5E0E60FF11D6595659582
:100B10006D936D917D918D919D91099423C01AC023
:100B200012C016C010C01EC009C014C013C006C039
:100B300019C009C00DC007C00DC014C0625070407C
:100B4000804090400BC0615070408040904006C093
:100B50006E5F01C06F5F7F4F8F4F9F4F9E938E934D
:100B60007E936E930895089508950895DB01ED91A5
:100B7000FC9109942F923F924F925F926F927F92D5
:100B80008F929F92AF92BF92CF92DF92EF92FF929D
:100B90000F931F93CF93DF931F92CDB7DEB71C0146
:100BA000A62EDC01DC96BC90DC97DB96EC906C0109
:100BB000B4E0CB0ED11CDC015996ED91FC915A9713
:100BC000C6010995F82EF10100851185C8010E9422
:100BD0004A02982ED10118968D919C9119970E94E6
:100BE0004D02682EB1E09B1203C02FE0922E02C08E
:100BF00099249A94F101808591850E944602882E5D
:100C0000D10118968D919C9119970E944202782EDD
:100C1000F101808591850E946302F0E6FA1538F4AF
:100C2000009729F0080F191F91E6892E13C0D101F2
:100C300018968D919C9119970E946602B0E4BA159E
:100C400038F4009729F0080F191F81E4882E02C09C
:100C50000F5E1F4F7A1438F4F101148A178A108E30
:100C6000158A168A9EC07814B8F3262D30E0F80154
:100C700084918F3F19F40F5F1F4F5AC08A104FC0E5
:100C8000D10118968D919C9119970E944A02980162
:100C90002F5F3F4FF801882311F08230E1F48491F7
:100CA000D10157968C935797F901249158962C931C
:100CB0005897F8013396E4915496EC935497F801C1
:100CC0003496E4915596EC935597F8013596E49156
:100CD0005696EC9320C08491982F9F709250D1012A
:100CE00056969C93569782958F7055968C935597F0
:100CF000F9012491822F8F7058968C9358972295E2
:100D00002F7057962C935797F8013296E491E295FD
:100D1000EF705496EC930115110579F442C0F80177
:100D20003296E491E921C9018E0F911D080F191F18
:100D3000871409F491CF83949ACFF101808591852E
:100D40000E944D02D10157963C91579758962C918D
:100D5000589755965C915597B21A56969C9156970E
:100D6000B91AFB0C9FEF920F9F0DD8964C91D89714
:100D7000DA966C916F1518F0941728F402C0941746
:100D800068F09F1558F4E50E9FEF930F9E0DF1014B
:100D900047A951AD5E1538F4941738F4F1018489F0
:100DA0003FC080E03DC0941710F49E15B8F7080FBF
:100DB000111D395F532E5694569456944F2C420E63
:100DC0004101F0E28F0E911C652C712CF41431F36B
:100DD0005E2D58018A2D801B8515F0F4F501849154
:100DE000D10116966D917C91179790965C93909790
:100DF0009196FC92919793961C92939792968C93CE
:100E000094014BE3C60159830E94B605BFEFAB1AAC
:100E1000BB0A5981585FDECF060D171DF394D6CF5C
:100E2000D101DB962C91DB97082E000C990B820FD9
:100E3000911DDB968C9381E090E00F90DF91CF9134
:100E40001F910F91FF90EF90DF90CF90BF90AF90E8
:100E50009F908F907F906F905F904F903F902F90DA
:100E6000089590912F02911104C080932F026093F6
:100E70002E0208951F93CF93DF9300D0CDB7DEB736
:100E800020ED37E03A8329839091BC00982399F4B0
:100E900029813A81232B51F480914502182F127039
:100EA00081FD09C081E00E94310706C029813A8195
:100EB00021503109E7CF11E0812F0F900F90DF9182
:100EC000CF911F91089584E98093BC0064E080E194
:100ED0000C943A07CF938093BB0084E88093BC00C6
:100EE00063E080E80E943A07C82F882389F0809148
:100EF0004502C82FC27081FD0AC08091B900887F69
:100F0000883229F063E082E00E94310701C0C1E02D
:100F10008C2FCF910895CF93DF93FC0123A522233B
:100F200079F0EC010E94B20A811102C080E009C090
:100F30008EA1811180E40E946A078823B9F31BA661
:100F400081E0DF91CF9108950F931F93CF93C42F2A
:100F500089016330C1F050F4613081F0623009F0F2
:100F600048C0FC0146A321E023A743C0663011F12D
:100F7000673079F1653009F03CC00EC0FC0186A5F0
:100F80000E94780236C0FC0116A221E023A741117D
:100F900030C00E9463072DC00E948B07811104C0DE
:100FA0000E94630780E026C08C2F0E946A0781118F
:100FB00020C0F6CF0E948B07882391F3CC23C9F081
:100FC000F80181918F010E946A07882349F3C1507B
:100FD000F5CF0E948B07882319F3CC2351F0F80139
:100FE00084910E946A07882329F00F5F1F4FC15028
:100FF000F4CF81E0CF911F910F910895FC01918D65
:10100000828D981761F0828DDF01A80FB11D5D966A
:101010008C91928D9F5F9F73928F90E008958FEFD8
:101020009FEF0895FC01918D828D981731F0828D8C
:10103000E80FF11D858D90E008958FEF9FEF0895E3
:10104000FC01918D228D892F90E0805C9F4F821B47
:1010500091098F739927089580E992E00E942008F2
:1010600021E0892B09F420E0822F0895FC01848D72
:10107000DF01A80FB11DA35ABF4F2C91848D90E0C2
:1010800001968F739927848FA689B7892C93A0899D
:10109000B1898C9180648C93938D848D981306C054
:1010A0000288F389E02D80818F7D80830895EF92FF
:1010B000FF920F931F93CF93DF93EC0181E0888F12
:1010C0009B8D8C8D981305C0E889F989808185FDF9
:1010D00024C0F62E0B8D10E00F5F1F4F0F731127EA
:1010E000E02E8C8DE8120CC00FB607FCFACFE88911
:1010F000F989808185FFF5CFCE010E943608F1CFB6
:101100008B8DFE01E80FF11DE35AFF4FF0820B8F2C
:10111000EA89FB898081806207C0EE89FF8960834C
:10112000E889F98980818064808381E090E0DF91A3
:10113000CF911F910F91FF90EF900895CF93DF9380
:10114000EC01888D8823C9F0EA89FB89808185FDBF
:1011500005C0A889B9898C9186FD0FC00FB607FC20
:10116000F5CF808185FFF2CFA889B9898C9185FF61
:10117000EDCFCE010E943608E7CFDF91CF910895E1
:1011800080E090E0892B29F00E942C0881110C94BA
:10119000000008953FB7F8948091390290913A0287
:1011A000A0913B02B0913C0226B5A89B05C02F3F01
:1011B00019F00196A11DB11D3FBFBA2FA92F982F7D
:1011C0008827820F911DA11DB11DBC01CD0142E0F8
:1011D000660F771F881F991F4A95D1F708958F9240
:1011E0009F92AF92BF92CF92DF92EF92FF926B01EC
:1011F0007C010E94CA084B015C01C114D104E104C6
:10120000F104F1F00E94CA08DC01CB0188199909A8
:10121000AA09BB09883E9340A105B10570F321E0FE
:10122000C21AD108E108F10888EE880E83E0981E02
:10123000A11CB11CC114D104E104F10419F7DDCFE4
:10124000FF90EF90DF90CF90BF90AF909F908F90E6
:1012500008952FB7F894609135027091360280910D
:101260003702909138022FBF089508950E949E0F73
:1012700080913202909133020C947105809130027A
:10128000909131020C9471051F920F920FB60F923C
:1012900011242F933F934F935F936F937F938F937B
:1012A0009F93AF93BF93EF93FF9380E992E00E94E7
:1012B0003608FF91EF91BF91AF919F918F917F91F0
:1012C0006F915F914F913F912F910F900FBE0F90B3
:1012D0001F9018951F920F920FB60F9211242F9303
:1012E0008F939F93EF93FF93E091A002F091A1025F
:1012F0008081E091A602F091A70282FD12C0908148
:101300008091A9028F5F8F732091AA02821751F0FA
:10131000E091A902F0E0E057FD4F958F8093A9027C
:1013200001C08081FF91EF919F918F912F910F903C
:101330000FBE0F901F9018951F920F920FB60F922D
:1013400011242F933F938F939F93AF93BF938091DB
:10135000350290913602A0913702B0913802309157
:10136000340223E0230F2D3720F40196A11DB11D77
:1013700005C026E8230F0296A11DB11D209334025B
:101380008093350290933602A0933702B0933802CF
:101390008091390290913A02A0913B02B0913C02B7
:1013A0000196A11DB11D8093390290933A02A0933A
:1013B0003B02B0933C02BF91AF919F918F913F91BF
:1013C0002F910F900FBE0F901F9018951F920F92A4
:1013D0000FB60F9211242F933F934F935F936F9308
:1013E0007F938F939F93AF93BF93EF93FF93E0917E
:1013F0000201F09103010995FF91EF91BF91AF9127
:101400009F918F917F916F915F914F913F912F911C
:101410000F900FBE0F901F9018951F920F920FB64E
:101420000F9211242F933F934F935F936F937F936A
:101430008F939F93AF93BF93EF93FF93E09100013E
:10144000F09101010995FF91EF91BF91AF919F91AB
:101450008F917F916F915F914F913F912F910F905D
:101460000FBE0F901F9018958230A1F0833029F5A0
:10147000709333026093320288E399E09093030102
:101480008093020180916900837F8460809369006A
:10149000E99A11C070933102609330028EE399E0B3
:1014A0009093010180930001809169008C7F81609D
:1014B00080936900E89A81E0089580E00895CF93D1
:1014C000DF9390E0FC01E254FF4F2491FC01E452D1
:1014D000FF4F84918823C1F090E0880F991FFC0191
:1014E000EC54FF4FC591D491FC01E655FF4FA591F7
:1014F000B4919FB7F8943881822F80958323888395
:10150000EC91E22BEC939FBFDF91CF910895CF92A6
:10151000DF92EF92FF920F931F93CF93DF936C01B3
:101520007A018B01C0E0D0E0CE15DF0589F0D8014B
:101530006D918D01D601ED91FC910190F081E02D2E
:10154000C6010995892B11F47E0102C02196ECCFCA
:10155000C701DF91CF911F910F91FF90EF90DF9026
:10156000CF900895CF9384EA8093BC0061E080E837
:101570000E943A07882359F08091B900887F88300B
:1015800041F0803131F061E082E00E943107C0E03B
:101590001DC088E78093BB0084E88093BC0062E0B4
:1015A00080E80E943A07882391F380914502C82F72
:1015B000C27081FD0AC08091B900887F883129F00E
:1015C00062E082E00E94310701C0C1E08C2FCF9120
:1015D0000895DC01ED91FC910190F081E02D0994DA
:1015E0006115710579F0FB0101900020E9F7319751
:1015F000AF01461B570BDC01ED91FC910280F3819A
:10160000E02D099480E090E008954F925F926F92F0
:101610007F92EF92FF920F931F93CF93DF93CDB7FB
:10162000DEB7A1970FB6F894DEBF0FBECDBF7C0129
:10163000FA01CB0119A2223008F42AE08E010F5DD5
:101640001F4F422E512C612C712CBF01A30192011E
:101650000E943E11F901CA01015011096A3014F4C7
:10166000605D01C0695CD8016C93232B242B252B72
:1016700061F7B801C7010E94F00AA1960FB6F8946D
:10168000DEBF0FBECDBFDF91CF911F910F91FF90B5
:10169000EF907F906F905F904F900895789484B50D
:1016A000826084BD84B5816084BD85B5826085BD5E
:1016B00085B5816085BD80916E00816080936E00EC
:1016C00010928100809181008260809381008091DE
:1016D000810081608093810080918000816080938F
:1016E00080008091B10084608093B1008091B0004F
:1016F00081608093B00080917A00846080937A004A
:1017000080917A00826080937A0080917A00816073
:1017100080937A0080917A00806880937A0010929A
:10172000C10010928A0210928B0210928C021092C9
:101730008D02109248021092490210924A021092B1
:101740004B0260ED77E080E090E00E94EF0880E9D6
:1017500092E09093890280938802E091A002F09138
:10176000A10282E08083E0919C02F0919D021082B0
:10177000E0919E02F0919F0280E180831092A80286
:10178000E091A402F091A50286E08083E091A2029C
:10179000F091A302808180618083E091A202F091A8
:1017A000A302808188608083E091A202F091A3026D
:1017B000808180688083E091A202F091A302808101
:1017C0008F7D80830E9429096093480270934902AB
:1017D00080934A0290934B0268E072E08091880205
:1017E000909189020E94F00A6AE070E080E090E047
:1017F0000E94EF0881E080935C0284EF882E992498
:101800009394A12CB12C0E942909672B682B692B7A
:1018100041F40E942909623071058105910508F49F
:101820000BC10E9429096093410270934202809388
:10183000430290934402C0903D02D0903E02E0905B
:101840003F02F09040026C157D058E059F0540F427
:1018500060933D0270933E0280933F02909340025A
:10186000C0903D02D0903E02E0903F02F0904002D6
:101870009B01AC012C193D094E095F0969017A01F0
:101880003AEFC316D104E104F10408F4D5C0609323
:101890003D0270933E0280933F02909340028092FB
:1018A000540290925502A0925602B09257021092A2
:1018B00058021092590210925A0210925B028091C3
:1018C0004C0290914D02A0914E02B0914F02809334
:1018D000500290935102A0935202B09353020E947F
:1018E000290960934C0270934D0280934E029093AD
:1018F0004F020E9429096093480270934902809325
:101900004A0290934B020E9429096B017C016AE113
:1019100072E080918802909189020E94F00A2AE088
:1019200041E050E060E070E080918802909189028F
:101930000E94050B61E272E0809188029091890219
:101940000E94F00A2AE0B701A601809188029091D6
:1019500089020E94050B63E272E0809188029091F7
:1019600089020E94F00A80914C0290914D02A09150
:101970004E02B0914F02B701A601481B590B6A0BEA
:101980007B0B2AE080918802909189020E94050BCE
:1019900063E272E080918802909189020E94F00ACD
:1019A00040914C0250914D0260914E0270914F0255
:1019B0008091500290915102A0915202B091530235
:1019C000481B590B6A0B7B0B2AE08091880290918F
:1019D00089020E94050B65E272E080918802909175
:1019E00089020E94F00A0E942909AB01BC012AE089
:1019F00080918802909189020E94050BE0908802F4
:101A0000F090890267E272E0C7010E94F00A67E184
:101A100072E0C7010E94F00A65E070E080E090E0AB
:101A20000E94EF080E94290960934C0270934D02B6
:101A300080934E0290934F020E94C008E4CE87EB41
:101A400093E00E94F60485EE93E00C944405CF9257
:101A5000DF92EF92FF920F931F93CF93DF931F922A
:101A6000CDB7DEB780E992E0109293021092920215
:101A700048EE53E060E070E040939402509395028A
:101A8000609396027093970224E431E030939102C0
:101A90002093900225EC30E030939D0220939C022D
:101AA00024EC30E030939F0220939E0220EC30E043
:101AB0003093A1022093A00221EC30E03093A302E6
:101AC0002093A20222EC30E03093A5022093A402DE
:101AD00026EC30E03093A7022093A6021092A902D0
:101AE0001092AA021092AB021092AC0210924C0219
:101AF00010924D0210924E0210924F02109250021C
:101B000010925102109252021092530210925402FB
:101B100010925502109256021092570210925802DB
:101B20001092590210925A0210925B0261E270E028
:101B30007093FD036093FC031092FE031092FF0369
:101B40001092000446E0C42ED12CE12CF12CC0925E
:101B50000104D0920204E0920304F0920404109273
:101B6000050410920604109207041092080440E243
:101B70004093090410920B0410920A0410920E0470
:101B800027EE33E030930D0420930C0422EE31E075
:101B90003093E6032093E5032CEE31E03093FA0313
:101BA0002093F9031092EB031092EA031092ED03D5
:101BB0001092EC031092EF031092EE031092F103D7
:101BC0001092F0031092F3031092F2031092F503B7
:101BD0001092F40320EC31E03093E8032093E70304
:101BE0009093F8038093F70350E15093F6037093BA
:101BF000D3036093D2031092D4031092D5031092B2
:101C0000D603C092D703D092D803E092D903F092C2
:101C1000DA031092DB031092DC031092DD031092C2
:101C2000DE034093DF031092E1031092E003109271
:101C3000E4031092B9031092BA031092BB031092FE
:101C4000BC034DEB53E05093E3034093E2034AE6B9
:101C500051E05093B8034093B70344E751E05093E9
:101C6000D0034093CF031092C1031092C00310928F
:101C7000C3031092C2031092C5031092C4031092C2
:101C8000C7031092C6031092C9031092C8031092A2
:101C9000CB031092CA033093BE032093BD039093ED
:101CA000CE038093CD0328E02093CC0390938F0242
:101CB00080938E0265EB71E08DEC91E00E94A30FA2
:101CC00082E090E09093B2038093B10383E090E0D0
:101CD0009093B4038093B30387E090E09093B603AE
:101CE0008093B5038EE390E00E940A108C01DC0122
:101CF00013961C921E9212978CEF91E011969C9372
:101D00008E93DB961C92DB97DC961C92DC97DD961B
:101D10001C927801B4E0EB0EF11CF80111861086DC
:101D200013861286158681E0848782E28687138A6D
:101D3000128AB796C801C5962FEF2193E817F907C5
:101D4000E1F781E0D80194968C93949720E432E0F7
:101D50005A963C932E9359975B968C935B975C961F
:101D60001C925C975D961C925D9780E45E968C93C6
:101D70005E975F961C925F9782EF91E0D6969C9358
:101D80008E93D5978CE091E017969C938E9316973F
:101D900080E1D2968C9320E030E04AE06CE071E084
:101DA000C7010E94B605D82ED801D596ED91FC91B9
:101DB000D69783E00995D801D596ED91FC91D697F9
:101DC00080E00995DD20A1F1F801668177819E010F
:101DD0002F5F3F4F46E4C7010E94B6058981D801B5
:101DE00014968C93149716966D917C9117979E017B
:101DF0002F5F3F4F47E4C7010E94B6058981F80174
:101E000085836681778120E030E048E4C7010E9445
:101E1000B605D8011F968C931F9716966D917C91ED
:101E200017979801295C3F4F47E1C7010E94B6050B
:101E300084E092E0F801918380831093AE030093D5
:101E4000AD038CE090E00E940A108C01E090B10399
:101E5000F090B203C090B303D090B4038C2D0E94D5
:101E60005F0A8E2D0E945F0AC6019927FC01E45289
:101E7000FF4FE491F0E0EE0FFF1FEE52FF4FA591F0
:101E8000B491F801B183A083FC01E254FF4F249187
:101E9000F8012483C7019927FC01E452FF4FE49124
:101EA000F0E0EE0FFF1FEE52FF4F45915491F80105
:101EB00053834283FC01E254FF4F8491F8018583F0
:101EC00017821086118612868BE39FE10197F1F746
:101ED0008C91282391E009F490E0DA012C91F8012B
:101EE0008581822309F09260D80116969C93B801EF
:101EF0008C2D0E94340AF8018387B8018E2D0E9430
:101F0000340AD8011B962C911B9790E0820F911DEB
:101F10001B968C931093B0030093AF030F90DF9147
:101F2000CF911F910F91FF90EF90DF90CF90089588
:101F3000EE0FFF1F0590F491E02D099481E090E0F1
:101F4000F8940C9460110F931F93CF93DF93009735
:101F500031F46115710519F480E090E03AC08B010D
:101F6000EC016EE070E081E090E00E94EE0FFC0179
:101F7000892B91F380E883830115110571F0138794
:101F8000028781E8838380910F0490911004892B4C
:101F900021F4F0931004E0930F042097C9F0D18747
:101FA000C0878381826083838091110490911204A1
:101FB000892B71F4F0931204E093110480911304BF
:101FC00090911404892B21F4F0931404E0931304EA
:101FD000CF01DF91CF911F910F9108950F931F9320
:101FE000CF93DF93869F8001879F100D969F100DE2
:101FF0001124C8010E940A10EC01009729F0A801E1
:1020000060E070E00E943711CE01DF91CF911F9107
:102010000F910895CF93DF938230910510F482E001
:1020200090E0E0911704F091180420E030E0C0E067
:10203000D0E0309711F14081518148175907C0F025
:102040004817590761F482819381209719F09B8387
:102050008A832BC0909318048093170426C02115FF
:10206000310519F04217530718F49A01BE01DF0138
:10207000EF010280F381E02DDCCF2115310509F15C
:10208000281B390B2430310590F412968D919C91C8
:1020900013976115710521F0FB019383828304C0BE
:1020A0009093180480931704FD01329644C0FD01FB
:1020B000E20FF31F81939193225031092D933C93AA
:1020C0003AC02091150430911604232B41F420913D
:1020D00014013091150130931604209315042091BA
:1020E0001201309113012115310541F42DB73EB78E
:1020F0004091160150911701241B350BE0911504F6
:10210000F0911604E217F307A0F42E1B3F0B2817DB
:10211000390778F0AC014E5F5F4F2417350748F060
:102120004E0F5F1F509316044093150481939193B3
:1021300002C0E0E0F0E0CF01DF91CF9108950F936E
:102140001F93CF93DF93009709F48CC0FC01329763
:1021500013821282009117041091180401151105C1
:1021600081F420813181820F931F209115043091D9
:1021700016042817390779F5F0931604E09315042F
:1021800071C0D80140E050E0AE17BF0750F412967E
:102190002D913C911397AD012115310509F1D9011C
:1021A000F3CF9D01DA013383228360817181860F31
:1021B000971F8217930769F4EC0128813981260F54
:1021C000371F2E5F3F4F318320838A819B8193830A
:1021D0008283452B29F4F0931804E093170442C03E
:1021E0001396FC93EE931297ED01499159919E013C
:1021F000240F351FE217F30771F480819181840F5A
:10220000951F029611969C938E93828193811396CB
:102210009C938E931297E0E0F0E0D80112968D9196
:102220009C911397009719F0F8018C01F6CF8D91CE
:102230009C9198012E5F3F4F820F931F20911504B0
:10224000309116042817390769F4309729F4109251
:1022500018041092170402C01382128210931604FD
:1022600000931504DF91CF911F910F910895DC0128
:1022700001C06D9341505040E0F70895A1E21A2E3D
:10228000AA1BBB1BFD010DC0AA1FBB1FEE1FFF1F1A
:10229000A217B307E407F50720F0A21BB30BE40B6A
:1022A000F50B661F771F881F991F1A9469F76095B1
:1022B0007095809590959B01AC01BD01CF0108956B
:1022C00010E0C9E7D0E004C0FE010E94980F2196FB
:0A22D000CA37D107C9F7F894FFCF11
:1022DA00350935090840000000802D031003040168
:1022EA00A407000019048000180000000000000084
:1022FA000000E8FFE8FF00000000000014000000F2
:10230A00000000000000ECFFECFF000000000000ED
:10231A00000000005708870A2008FE0712089E08D6
:10232A00060000000000D504D704FAFFFAFF0000F7
:10233A00D604D904180000000000F6040D05E8FFD1
:10234A00E8FF0000030517056A011E012801740150
:10235A0000000000B305D304B401B101AE01AB0122
:10236A00A8011F011B01180102012201A600A400F5
:10237A0002000000000023052505FEFFFEFF000005
:10238A002405270500000000B5056F0500000000C0
:10239A00B4052105B401B101AE01AB01A8019C014C
:1023AA0056013D012401220180045F04140000004B
:1023BA00000044055B05ECFFECFF000051056505D4
:1023CA00E20132013C01EC0100000000BA05870A73
:1023DA0000000000BA05870A564D4450565F317C0A
:1023EA00315F564D4450560D0A00564D4450455FD4
:0E23FA00003A323A007C005F564D44504500D8
:107800000C94343C0C94513C0C94513C0C94513CE1
:107810000C94513C0C94513C0C94513C0C94513CB4
:107820000C94513C0C94513C0C94513C0C94513CA4
:107830000C94513C0C94513C0C94513C0C94513C94
:107840000C94513C0C94513C0C94513C0C94513C84
:107850000C94513C0C94513C0C94513C0C94513C74
:107860000C94513C0C94513C11241FBECFEFD8E036
:10787000DEBFCDBF11E0A0E0B1E0ECE9FFE702C060
:1078800005900D92A230B107D9F712E0A2E0B1E065
:1078900001C01D92AD30B107E1F70E942D3D0C945F
:1078A000CC3F0C94003C982F959595959595959582
:1078B000905D8F708A307CF0282F295A8091C0000B
:1078C00085FFFCCF9093C6008091C00085FFFCCF60
:1078D0002093C6000895282F205DF0CF982F809127
:1078E000C00085FFFCCF9093C6000895EF92FF92F1
:1078F0000F931F93EE24FF2487018091C00087FD22
:1079000017C00894E11CF11C011D111D81E4E8164B
:1079100082E4F8068FE0080780E0180770F3E09132
:107920000401F091050109958091C00087FFE9CF1E
:107930008091C6001F910F91FF90EF9008950E94D3
:10794000763C982F8091C00085FFFCCF9093C600B5
:1079500091362CF490330CF09053892F089597555D
:10796000892F08951F930E949F3C182F0E949F3CCF
:107970001295107F810F1F9108951F93182F882350
:1079800021F00E94763C1150E1F71F9108951F935A
:10799000182F0E94763C803249F0809103018F5F5E
:1079A000809303018530C1F01F9108958091C0003C
:1079B00085FFFCCF84E18093C6008091C00085FFE5
:1079C000FCCF1093C6008091C00085FFFCCF80E102
:1079D0008093C6001F910895E0910401F091050184
:1079E00009951F9108950E94763C803241F0809164
:1079F00003018F5F80930301853081F008958091AA
:107A0000C00085FFFCCF84E18093C6008091C00058
:107A100085FFFCCF80E18093C6000895E0910401CA
:107A2000F09105010995089540E951E08823A1F0FE
:107A30002D9A28EE33E0FA013197F1F721503040CA
:107A4000D1F72D9828EE33E0FA013197F1F7215064
:107A50003040D1F7815061F708953F924F925F9285
:107A60006F927F928F929F92AF92BF92CF92DF924E
:107A7000EF92FF920F931F93CF93DF93000080E16B
:107A80008093C4001092C50088E18093C10086E015
:107A90008093C2005098589A259A81E00E94143D24
:107AA00024E1F22E9EE1E92E85E9D82E0FE0C02ECA
:107AB00010E1B12EAA24A394B1E49B2EA6E58A2E50
:107AC000F2E57F2EE0E26E2E79E4572E63E5462E36
:107AD00050E5352E0E94763C8033B1F18133B9F107
:107AE000803409F46FC0813409F476C0823409F41B
:107AF00085C0853409F488C0803531F1823521F1A3
:107B0000813511F1853509F485C0863509F48DC0BC
:107B1000843609F496C0843709F403C1853709F423
:107B200072C1863709F466C0809103018F5F80932C
:107B30000301853079F6E0910401F0910501099582
:107B40000E94763C803351F60E94F33CC3CF0E94E2
:107B5000763C803249F78091C00085FFFCCFF092DF
:107B6000C6008091C00085FFFCCF9092C600809136
:107B7000C00085FFFCCF8092C6008091C00085FFC9
:107B8000FCCF7092C6008091C00085FFFCCF609250
:107B9000C6008091C00085FFFCCF5092C600809146
:107BA000C00085FFFCCF4092C6008091C00085FFD9
:107BB000FCCF3092C6008091C00085FFFCCFB09210
:107BC000C60088CF0E94763C863808F4BDCF0E945C
:107BD000763C0E94F33C7ECF0E94763C803809F4CC
:107BE0009CC0813809F40BC1823809F43CC1883942
:107BF00009F48FC080E00E94C73C6CCF84E10E94F2
:107C0000BD3C0E94F33C66CF85E00E94BD3C0E94D3
:107C1000F33C60CF0E94763C809306010E94763C44
:107C2000809307010E94F33C55CF0E94763C80333D
:107C300009F41DC183E00E94BD3C80E00E94C73C66
:107C400049CF0E94763C809309020E94763C809343
:107C5000080280910C028E7F80930C020E94763C79
:107C6000853409F415C18091080290910902892B8D
:107C700089F000E010E00E94763CF801E85FFE4FDA
:107C800080830F5F1F4F80910802909109020817AF
:107C9000190788F30E94763C803209F045CF809125
:107CA0000C0280FF01C16091060170910701660F0F
:107CB000771F7093070160930601A0910802B091AD
:107CC00009021097C9F0E8E0F1E09B01AD014E0F09
:107CD0005F1FF999FECF32BD21BD819180BDFA9A17
:107CE000F99A2F5F3F4FE417F50799F76A0F7B1F4B
:107CF00070930701609306018091C00085FFFCCF5F
:107D0000F092C6008091C00085FFFCCFB092C60003
:107D1000E1CE83E00E94C73CDDCE82E00E94C73CFA
:107D2000D9CE0E94763C809309020E94763C8093D3
:107D300008028091060190910701880F991F909386
:107D40000701809306010E94763C853409F4A6C0A1
:107D500080910C028E7F80930C020E94763C8032D0
:107D600009F0B8CE8091C00085FFFCCFF092C6002C
:107D7000609108027091090261157105B9F140E046
:107D800050E080910C02A82FA170B82FB27011C0E2
:107D9000BB2309F45CC0E0910601F0910701319624
:107DA000F0930701E09306014F5F5F4F46175707B7
:107DB000E8F4AA2369F3F999FECF209106013091E6
:107DC000070132BD21BDF89A90B58091C00085FFB2
:107DD000FCCF9093C6002F5F3F4F30930701209355
:107DE00006014F5F5F4F4617570718F38091C00099
:107DF00085FDE5CE8091C00085FFF8CFE0CE81E023
:107E00000E94C73C67CE0E94763C803209F08CCE3F
:107E10008091C00085FFFCCFF092C6008091C00029
:107E200085FFFCCFE092C6008091C00085FFFCCFAB
:107E3000D092C6008091C00085FFFCCFC092C600E2
:107E40008091C00085FFFCCFB092C60043CEE09188
:107E50000601F091070194918091C00085FFFCCF4D
:107E60009093C6009CCF80E10E94C73C33CE0E9415
:107E7000763C0E94763C182F0E94763C112309F430
:107E800083C0113009F484C08FE00E94C73C22CE29
:107E900080910C02816080930C02E5CE80910C02EF
:107EA000816080930C0259CF809107018823880F4D
:107EB000880B8A2180930B02809106019091070123
:107EC000880F991F90930701809306018091080203
:107ED00080FF09C080910802909109020196909359
:107EE000090280930802F894F999FECF1127E091D6
:107EF0000601F0910701C8E0D1E08091080290915D
:107F00000902103091F40091570001700130D9F34B
:107F100003E000935700E89500915700017001308D
:107F2000D9F301E100935700E89509901990009169
:107F3000570001700130D9F301E000935700E89534
:107F40001395103498F011270091570001700130FB
:107F5000D9F305E000935700E895009157000170B0
:107F60000130D9F301E100935700E895329602976A
:107F700009F0C7CF103011F00296E5CF112480919F
:107F8000C00085FFB9CEBCCE8EE10E94C73CA2CD19
:0C7F900085E90E94C73C9ECDF894FFCF0D
:027F9C00800063
:040000030000780081
:00000001FF