:100000000C947A000C9493060C946C060C94A20049
:100010000C94A2000C94A2000C94A2000C94A200D8
:100020000C94A2000C94A2000C94A2000C94A200C8
:100030000C94A2000C94A2000C94A2000C94A200B8
:100040000C9422060C94A2000C94F0050C94CA05A2
:100050000C94A2000C94A2000C94A2000C94A20098
:100060000C94A2000C94A200FFE0FFD1AFFF32FF7E
:10007000D0FFFEFFE0FFD1AEFFD0FFFEFFE0FFD1DB
:100080001002FFFEFFD0FFE0FFC1FFD1AED580A878
:100090003FD300408D142002A1C8DA1281CFD9F1DC
:1000A000DB402EA4A6AFFFD0FFFE0000000025001D
:1000B00028002B0000000000240027002A00010275
:1000C00004081020408001020408102001020408E6
:1000D000102000000000230026002900040404046E
:1000E00004040404020202020202030303030303E2
:1000F0008D0A850A11241FBECFEFD8E0DEBFCDBF29
:1001000012E0A0E0B1E0EEEAFDE102C005900D9240
:10011000A830B107D9F723E0A8E0B2E001C01D92F2
:10012000A33AB207E1F710E0C9E7D0E004C0219795
:10013000FE010E94240DC837D107C9F70E94DE0CCA
:100140000C94CA0E0C9400000895DC01ED91FD9111
:100150008081ED91FD919081ED91FD916C916370A5
:100160008E2309F064609F2309F06860E2ECF0E000
:10017000E60FF11D659565956D936D917D918D915E
:100180009D91099423C01AC012C016C010C01EC091
:1001900009C014C013C006C019C009C00DC007C0F3
:1001A0000DC014C062507040804090400BC0615040
:1001B00070408040904006C06E5F01C06F5F7F4F0F
:1001C0008F4F9F4F9E938E937E936E930895809151
:1001D0000C0290910D020C94A50080910A0290915E
:1001E0000B020C94A500CB0108957F928F929F92F1
:1001F000AF92BF92CF92DF92EF92FF920F931F9335
:10020000CF93DF93EC0149015A018B01C12CD12C12
:100210007601C814D904EA04FB0484F5F80171904E
:100220008F018F8580FF0BC0E881F9810084F18503
:10023000E02D20E144E060E070E0CE010995EB851F
:10024000FC858D859E85E817F90738F470828B85CB
:100250009C8501969C878B870BC0E881F981672D6F
:1002600070E0028CF38DE02DCE010995019649F0E6
:100270002FEFC21AD20AE20AF20ACBCFB401C501AB
:1002800002C0B601C701DF91CF911F910F91FF907E
:10029000EF90DF90CF90BF90AF909F908F907F9026
:1002A0000895CF93DF93EC01E881F9810288F38907
:1002B000E02D09958F3F2FEF920731F02D813E8180
:1002C0002F5F3F4F3E832D83DF91CF9108958FEFB6
:1002D0009FEF089560E070E0CB01089580E090E02A
:1002E0000895CB010895CF93DF93EC018889998914
:1002F000DC01ED91FC910480F581E02D0995892BBD
:10030000A9F388899989DC01ED91FC910680F78138
:10031000E02DDF91CF910994CF93DF93EC01888991
:100320009989DC01ED91FC910480F581E02D09951E
:10033000892BA9F388899989DC01ED91FC910084CE
:10034000F185E02DDF91CF910994AF92BF92CF92CA
:10035000DF92EF92FF920F931F93CF93DF9300D022
:1003600000D0CDB7DEB78C015B01C12CD12C76015A
:10037000F80180899189DC01ED91FC910680F7817B
:10038000E02D29833A834B835C83099529813A8147
:100390004B815C818F3F71F0C216D306E406F506EF
:1003A0004CF4D5018D935D01BFEFCB1ADB0AEB0A4C
:1003B000FB0ADECFC701B6010F900F900F900F9090
:1003C000DF91CF911F910F91FF90EF90DF90CF9031
:1003D000BF90AF900895DC0150968D919C915197FC
:1003E000DC01ED91FC910480F581E02D099480E021
:1003F00090E0089580E090E0089580E090E0089516
:1004000080E090E008950895CF93DF93C0911802A3
:10041000D0911902E881F9810480F581E02DCE01A7
:100420000995892BB9F3E881F9810680F781E02DE0
:10043000CE01DF91CF9109941F93CF93DF93182FB3
:10044000C0911802D09119028A3041F4E881F981F3
:100450000190F081E02D6DE0CE010995E881F981F0
:100460000190F081E02D612FCE01099521E030E06F
:10047000019711F420E030E0C901DF91CF911F9185
:1004800008950895DC011696ED91FC911797129648
:100490008C91481B477081E090E001C0880F4A951D
:1004A000EAF7E60FF11D3081222311F0832B02C001
:1004B0008095832380830895FB014181DC0112969E
:1004C0002C911297421768F013962C9113972417CA
:1004D00040F0608115962C91621718F424810C94D9
:1004E00042020895FC0180819281980F92832181BC
:1004F000921760F494819F5F94839381890F821790
:1005000010F08FEF820F838381E0089580E00895DB
:10051000FC0112828081815083831482089580E0DF
:1005200008950B96FC01849108950A96FC0184912C
:100530000895FC01849108950E949902882321F076
:10054000823011F083E0089586E00895FC01E60F03
:10055000F11D849190E0982F88273196E4918E0FB9
:10056000911D089568E00C94A60266E00C94A60222
:100570002EE93FE0009729F0F9013197F1F7019753
:10058000F9CF0895109209021092080208958093FD
:1005900017021092B90084FF02C08CE001C088E409
:1005A0008093B8000C94C202DB011496ED91FC918B
:1005B000159720E030E065E00994DB011496ED9199
:1005C000FC91159720E030E062E00994DB0114967D
:1005D000ED91FC91159720E030E063E00994CF9213
:1005E000DF92EF92FF920F931F93CF93DF938C01D3
:1005F0007B016A0180E0F601C49181110BC0CF3FFD
:1006000009F44CC04C2FB701C8010E94D4028111DB
:1006100043C049C0CF3F11F44FEFF5CFCE3F09F4AF
:1006200044C0C03FC8F5C03E38F04C2F4F70B701F2
:10063000C8010E94DD0230C0C03D38F04C2F4F7021
:10064000B701C8010E94E60227C0C03CF8F0D701FC
:100650001496ED91FC91159720E030E040E064E0C5
:10066000C8010995C295C07FCE5FD0E0CE010E943F
:10067000B802D7011496ED91FC91159720E030E077
:1006800041E064E0C8010995CE0104C0C7FD04C083
:100690008C2F90E00E94B80280E001C081E0BFEFA3
:1006A000CB1ADB0AA8CF80E001C081E0DF91CF91B7
:1006B0001F910F91FF90EF90DF90CF9008958F9250
:1006C0009F92AF92BF92CF92DF92FF920F931F93B0
:1006D000CF93DF9300D0CDB7DEB76C018B01F42E42
:1006E000490120E1421709F467C0241700F13AE0FC
:1006F000431729F18FE0481369C041E0C6010E9409
:10070000E60240E0B801C6010E94DD0241E8B801FE
:10071000C6010E94D402F4014081B801C6010E94C2
:10072000D40240E0B801C6010E94E60208C1A1E17E
:100730004A1709F444C0B5E14B1791F047C0DB01FB
:100740001496ED91FC91159720E030E042E061E0D5
:10075000099544E850E0B801C6010E94EF0236C096
:10076000FB01A280B3804CE750E00E94EF02D5016C
:1007700014964C91406BB801C6010E94D40241E02E
:10078000B801C6010E94DD02F50126813781D8013A
:100790001496ED91FC911597D50115964C9166E054
:1007A000C6010995811102C080E0CAC040E0B801CD
:1007B000C6010E94E6020AC043E750E002C048E6D4
:1007C00050E0B801C6010E94EF02B9C0D8011296EC
:1007D0000D911C911397B2E3FB1609F474C0BF1579
:1007E000B8F0E5E1FE1609F47BC0F7E1FF1609F465
:1007F0008DC024E1F212A3C0D8011696ED91FC91B0
:10080000179715968C919F01280F311DC90160C063
:1008100036E4F31609F48AC087E4F81609F48AC0AE
:10082000ABE3FA128CC0F40181819381913029F0FD
:10083000933031F4482F885004C048E0480F01C07D
:10084000482F21E0D80113963C91381708F420E096
:1008500031E0F8015281451708F430E051E04817C3
:1008600008F050E0822F852B382319F4252309F452
:1008700066C0D4011296FC90913051F030F0923065
:1008800049F0933051F42FEF09C020E031E007C068
:1008900021E004C020E03FEF02C020E030E0F7FE9E
:1008A00008C0B401C8012A8339830E945C023981DF
:1008B0002A81F4018081830F80838181820F81836B
:1008C000FF0C69F73CC0B401C8010E945C0237C04C
:1008D0001192E817F907E1F7C8010E9488022FC0BA
:1008E000C8010E947202882309F45ECFD8011696CF
:1008F000ED91FC91179715968C919F01280F311D52
:10090000C9011192E817F907E1F719C0D4011C9247
:10091000F801828111968C931197858181501296EE
:100920008C931297838113968C9309C0D8011596E6
:100930008C9103C0D80111968C91F401808381E0E1
:100940000F900F90DF91CF911F910F91FF90DF904B
:10095000CF90BF90AF909F908F9008958AE192E0E2
:100960000E947A0921E0892B09F420E0822F089562
:100970000F931F93CF93DF938C01EB016F3F8FEFAA
:10098000780719F480E090E00FC06A3031F46DE030
:10099000F801808991890E947E0A6C2FF801808974
:1009A00091890E947E0ACE01DF91CF911F910F9114
:1009B00008958F929F92BF92CF92DF92EF92FF9213
:1009C0000F931F93CF93DF9300D000D0CDB7DEB746
:1009D0008C014B01C12CD12C7601C216D306E40642
:1009E000F50644F5F401B1904F01FAE0BF120EC0D4
:1009F0006DE0F8018089918929833A834B835C8378
:100A00000E947E0A5C814B813A8129816B2DF8011D
:100A10008089918929833A834B835C830E947E0A73
:100A2000FFEFCF1ADF0AEF0AFF0A5C814B813A81A0
:100A30002981D3CFCA01B9010F900F900F900F9069
:100A4000DF91CF911F910F91FF90EF90DF90CF90AA
:100A5000BF909F908F9008950C942B0E0C942B0EAA
:100A6000089508950C942B0EDC01ED91FC913697BE
:100A700020813181820F931F0C943205FB0120816C
:100A80003181FC0131832083FB0142815381F901D3
:100A9000369720813181FC01E20FF31F518340839F
:100AA00008952AE631E0FC013183208324E731E018
:100AB000318F208F6AE771E00C943E05DC01ED91E7
:100AC000FC91369720813181820F931F0C94510540
:100AD000CF93DF93EC010E945105CE01DF91CF91BE
:100AE0000C942B0EDC01ED91FC9136972081318125
:100AF000820F931F0C946805089508950C942B0E93
:100B0000DC01ED91FC91369720813181820F931F9A
:100B10000C947E05FB0120813181FC01318320830F
:100B2000FB0142815381F901369720813181FC011B
:100B3000E20FF31F51834083089522EE31E0FC0160
:100B4000318320832CEE31E0358B248B62EF71E012
:100B50000C948A05DC01ED91FC913697208131815E
:100B6000820F931F0C949D05CF93DF93EC010E949D
:100B70009D05CE01DF91CF910C942B0EDC01ED9100
:100B8000FC91369720813181820F931F0C94B4051C
:100B90000C942B0E1F920F920FB60F9211242F93CD
:100BA0003F934F935F936F937F938F939F93AF93F5
:100BB000BF93EF93FF938AE192E00E94F409FF91C3
:100BC000EF91BF91AF919F918F917F916F915F91C5
:100BD0004F913F912F910F900FBE0F901F9018953E
:100BE0001F920F920FB60F9211242F938F939F9302
:100BF000EF93FF93E0912A02F0912B028081E09124
:100C00003002F091310282FD12C090818091330256
:100C10008F5F8F7320913402821751F0E09133027D
:100C2000F0E0E65EFD4F958F8093330201C0808136
:100C3000FF91EF919F918F912F910F900FBE0F9089
:100C40001F9018951F920F920FB60F9211242F9399
:100C50003F938F939F93AF93BF9380911302909193
:100C60001402A0911502B09116023091120223E0F5
:100C7000230F2D3720F40196A11DB11D05C026E8D4
:100C8000230F0296A11DB11D20931202809313021F
:100C900090931402A0931502B093160280910E0255
:100CA00090910F02A0911002B09111020196A11D26
:100CB000B11D80930E0290930F02A0931002B09387
:100CC0001102BF91AF919F918F913F912F910F9002
:100CD0000FBE0F901F9018951F920F920FB60F9294
:100CE00011242F933F934F935F936F937F938F9331
:100CF0009F93AF93BF93EF93FF93E0910201F09125
:100D000003010995FF91EF91BF91AF919F918F9151
:100D10007F916F915F914F913F912F910F900FBEF7
:100D20000F901F9018951F920F920FB60F921124DB
:100D30002F933F934F935F936F937F938F939F93E3
:100D4000AF93BF93EF93FF93E0910001F091010106
:100D50000995FF91EF91BF91AF919F918F917F91F5
:100D60006F915F914F913F912F910F900FBE0F9018
:100D70001F9018958230A1F0833029F570930D02F1
:100D800060930C0287EE90E0909303018093020140
:100D900080916900837F846080936900E99A11C023
:100DA00070930B0260930A028DEE90E09093010124
:100DB00080930001809169008C7F8160809369003D
:100DC000E89A81E0089580E00895089508950895CF
:100DD000DB01ED91FC9109942F923F924F925F922B
:100DE0006F927F928F929F92AF92BF92CF92DF923B
:100DF000EF92FF920F931F93CF93DF931F92CDB784
:100E0000DEB71C01A62EDC01DC96BC90DC97DB96DD
:100E1000EC906C01B4E0CB0ED11CDC015996ED9145
:100E2000FC915A97C6010995F82EF10100851185AC
:100E3000C8010E949902982ED10118968D919C911B
:100E400019970E949C02682EB1E09B1203C02FE00C
:100E5000922E02C099249A94F101808591850E9476
:100E60009502882ED10118968D919C9119970E9418
:100E70009102782EF101808591850E94B202F0E600
:100E8000FA1538F4009729F0080F191F91E6892EFA
:100E900013C0D10118968D919C9119970E94B502AB
:100EA000B0E4BA1538F4009729F0080F191F81E44F
:100EB000882E02C00F5E1F4F7A1438F4F101148A95
:100EC000178A108E158A168A9EC07814B8F3262DBC
:100ED00030E0F80184918F3F19F40F5F1F4F5AC023
:100EE0008A104FC0D10118968D919C9119970E943C
:100EF000990298012F5F3F4FF801882311F082304B
:100F0000E1F48491D10157968C935797F90124917C
:100F100058962C935897F8013396E4915496EC9395
:100F20005497F8013496E4915596EC935597F8014F
:100F30003596E4915696EC9320C08491982F9F703B
:100F40009250D10156969C93569782958F705596E4
:100F50008C935597F9012491822F8F7058968C931A
:100F6000589722952F7057962C935797F8013296E1
:100F7000E491E295EF705496EC930115110579F424
:100F800042C0F8013296E491E921C9018E0F911D0A
:100F9000080F191F871409F491CF83949ACFF10198
:100FA000808591850E949C02D10157963C9157976C
:100FB00058962C91589755965C915597B21A56961B
:100FC0009C915697B91AFB0C9FEF920F9F0DD896E4
:100FD0004C91D897DA966C916F1518F0941728F405
:100FE00002C0941768F09F1558F4E50E9FEF930F19
:100FF0009E0DF10147A951AD5E1538F4941738F4F0
:10100000F10184893FC080E03DC0941710F49E1523
:10101000B8F7080F111D395F532E56945694569405
:101020004F2C420E4101F0E28F0E911C652C712C69
:10103000F41431F35E2D58018A2D801B8515F0F4D0
:10104000F5018491D10116966D917C911797909638
:101050005C9390979196FC92919793961C9293979C
:1010600092968C9394014BE3C60159830E94E80643
:10107000BFEFAB1ABB0A5981585FDECF060D171DB3
:10108000F394D6CFD101DB962C91DB97082E000C80
:10109000990B820F911DDB968C9381E090E00F906D
:1010A000DF91CF911F910F91FF90EF90DF90CF9044
:1010B000BF90AF909F908F907F906F905F904F9078
:1010C0003F902F90089590910902911104C0809350
:1010D00009026093080208951F93CF93DF9300D015
:1010E000CDB7DEB720ED37E03A8329839091BC007D
:1010F000982399F429813A81232B51F48091170286
:10110000182F127081FD09C081E00E94630806C09B
:1011100029813A8121503109E7CF11E0812F0F90C9
:101120000F90DF91CF911F91089584E98093BC00C7
:1011300064E080E10C946C08CF938093BB0084E85A
:101140008093BC0063E080E80E946C08C82F88236D
:1011500089F080911702C82FC27081FD0AC080916A
:10116000B900887F883229F063E082E00E9463083A
:1011700001C0C1E08C2FCF910895CF93DF93FC0184
:1011800023A5222379F0EC010E94BD09811102C040
:1011900080E009C08EA1811180E40E949C08882310
:1011A000B9F31BA681E0DF91CF9108950F931F93B0
:1011B000CF93C42F89016330C1F050F4613081F0C6
:1011C000623009F048C0FC0146A321E023A743C0D8
:1011D000663011F1673079F1653009F03CC00EC01E
:1011E000FC0186A50E94C70236C0FC0116A221E0C0
:1011F00023A7411130C00E9495082DC00E94BD0850
:10120000811104C00E94950880E026C08C2F0E94A6
:101210009C08811120C0F6CF0E94BD08882391F35D
:10122000CC23C9F0F80181918F010E949C0888238A
:1012300049F3C150F5CF0E94BD08882319F3CC2390
:1012400051F0F80184910E949C08882329F00F5FD7
:101250001F4FC150F4CF81E0CF911F910F9108959E
:10126000CF93DF9390E0FC01E254FF4F2491FC0107
:10127000E452FF4F84918823C1F090E0880F991FBA
:10128000FC01EC54FF4FC591D491FC01E655FF4F92
:10129000A591B4919FB7F8943881822F80958323CC
:1012A0008883EC91E22BEC939FBFDF91CF9108955F
:1012B000FC01918D828D981761F0828DDF01A80F5E
:1012C000B11D5D968C91928D9F5F9F73928F90E080
:1012D00008958FEF9FEF0895FC01918D828D9817EF
:1012E00031F0828DE80FF11D858D90E008958FEF2C
:1012F0009FEF0895FC01918D228D892F90E0805CF5
:101300009F4F821B91098F739927089580E090E089
:10131000892B29F00E94AE0481110C9400000895DD
:10132000CF92DF92EF92FF920F931F93CF93DF93B1
:101330006C017A018B01C0E0D0E0CE15DF0589F0A9
:10134000D8016D918D01D601ED91FC910190F08154
:10135000E02DC6010995892B11F47E0102C021966A
:10136000ECCFC701DF91CF911F910F91FF90EF90CC
:10137000DF90CF9008950E942A0DCF9384EA809346
:10138000BC0061E080E80E946C08882359F08091DD
:10139000B900887F883041F0803131F061E082E02F
:1013A0000E946308C0E01DC088E78093BB0084E80A
:1013B0008093BC0062E080E80E946C08882391F36F
:1013C00080911702C82FC27081FD0AC08091B900B8
:1013D000887F883129F062E082E00E94630801C0C2
:1013E000C1E08C2FCF910895FC01848DDF01A80FFF
:1013F000B11DA35ABF4F2C91848D90E001968F733D
:101400009927848FA689B7892C93A089B1898C915B
:1014100080648C93938D848D981306C00288F38921
:10142000E02D80818F7D80830895EF92FF920F934E
:101430001F93CF93DF93EC0181E0888F9B8D8C8D80
:10144000981305C0E889F989808185FD24C0F62EAE
:101450000B8D10E00F5F1F4F0F731127E02E8C8D47
:10146000E8120CC00FB607FCFACFE889F989808131
:1014700085FFF5CFCE010E94F409F1CF8B8DFE01DF
:10148000E80FF11DE35AFF4FF0820B8FEA89FB89C9
:101490008081806207C0EE89FF896083E889F989CD
:1014A00080818064808381E090E0DF91CF911F9103
:1014B0000F91FF90EF900895CF93DF93EC01888D0B
:1014C0008823C9F0EA89FB89808185FD05C0A88948
:1014D000B9898C9186FD0FC00FB607FCF5CF8081CE
:1014E00085FFF2CFA889B9898C9185FFEDCFCE0118
:1014F0000E94F409E7CFDF91CF910895DC01ED91CF
:10150000FC910190F081E02D099481E493E00E9428
:1015100051058FE693E00C949D05CF92DF92EF92F8
:10152000FF920F931F93CF93DF931F92CDB7DEB738
:101530008AE192E010921D0210921C0248EE53E0E4
:1015400060E070E040931E0250931F0260932002FF
:101550007093210224E431E030931B0220931A029D
:1015600025EC30E0309327022093260224EC30E073
:10157000309329022093280220EC30E030932B0294
:1015800020932A0221EC30E030932D0220932C028C
:1015900022EC30E030932F0220932E0226EC30E034
:1015A00030933102209330021092330210923402B1
:1015B000109235021092360261E270E07093870358
:1015C00060938603109288031092890310928A0315
:1015D00046E0C42ED12CE12CF12CC0928B03D0928A
:1015E0008C03E0928D03F0928E0310928F03109281
:1015F0009003109291031092920340E24093930360
:1016000010929503109294031092980321E733E00F
:10161000309397032093960322EE31E030937003CA
:1016200020936F032CEE31E03093840320938303E7
:101630001092750310927403109277031092760340
:10164000109279031092780310927B0310927A0320
:1016500010927D0310927C0310927F0310927E0300
:1016600020EC31E030937203209371039093820356
:101670008093810350E15093800370935D036093E6
:101680005C0310925E0310925F0310926003C0929D
:101690006103D0926203E0926303F09264031092BC
:1016A00065031092660310926703109268034093DB
:1016B000690310926B0310926A0310926E031092EA
:1016C000430310924403109245031092460347E4EB
:1016D00053E050936D0340936C034AE651E05093FE
:1016E00042034093410344E751E050935A0340932F
:1016F000590310924B0310924A0310924D0310921B
:101700004C0310924F0310924E031092510310920B
:1017100050031092530310925203109255031092EB
:1017200054033093480320934703909358038093C6
:10173000570328E0209356039093190280931802D0
:1017400064E072E08CE192E00E942F0D82E090E074
:1017500090933C0380933B0383E090E090933E039F
:1017600080933D0387E090E09093400380933F0394
:101770008EE390E00E94960D8C01DC0113961C9282
:101780001E9212978CEF91E011969C938E93DB96AC
:101790001C92DB97DC961C92DC97DD961C927801FC
:1017A000B4E0EB0EF11CF801118610861386128648
:1017B000158681E0848782E28687138A128AB7962B
:1017C000C801C5962FEF2193E817F907E1F781E0EB
:1017D000D80194968C9394972FE832E05A963C93D4
:1017E0002E9359975B968C935B975C961C925C97B3
:1017F0005D961C925D9780E45E968C935E975F96F3
:101800001C925F9781E492E0D6969C938E93D59735
:101810008CE091E017969C938E93169780E1D29678
:101820008C9320E030E04AE06CE071E0C7010E9458
:10183000E806D82ED801D596ED91FC91D69783E095
:101840000995D801D596ED91FC91D69780E0099540
:10185000DD20A1F1F801668177819E012F5F3F4F66
:1018600046E4C7010E94E8068981D80114968C934A
:10187000149716966D917C9117979E012F5F3F4F9D
:1018800047E4C7010E94E8068981F80185836681E3
:10189000778120E030E048E4C7010E94E806D801E3
:1018A0001F968C931F9716966D917C9117979801B0
:1018B000295C3F4F47E1C7010E94E80684E092E0BF
:1018C000F8019183808310933803009337038CE0F1
:1018D00090E00E94960D8C01E0903B03F0903C0359
:1018E000C0903D03D0903E038C2D0E9430098E2D78
:1018F0000E943009C6019927FC01E452FF4FE49190
:10190000F0E0EE0FFF1FEE52FF4FA591B491F801EA
:10191000B183A083FC01E254FF4F2491F80124839A
:10192000C7019927FC01E452FF4FE491F0E0EE0F6C
:10193000FF1FEE52FF4F45915491F80153834283AC
:10194000FC01E254FF4F8491F801858317821086D1
:10195000118612868BE39FE10197F1F78C91282382
:1019600091E009F490E0DA012C91F801858182235D
:1019700009F09260D80116969C93B8018C2D0E94B4
:10198000BA06F8018387B8018E2D0E94BA06D801E5
:101990001B962C911B9790E0820F911D1B968C93A8
:1019A00010933A03009339030F90DF91CF911F9169
:1019B0000F91FF90EF90DF90CF900895789484B5C9
:1019C000826084BD84B5816084BD85B5826085BD3B
:1019D00085B5816085BD80916E00816080936E00C9
:1019E00010928100809181008260809381008091BB
:1019F000810081608093810080918000816080936C
:101A000080008091B10084608093B1008091B0002B
:101A100081608093B00080917A00846080937A0026
:101A200080917A00826080937A0080917A00816050
:101A300080937A0080917A00806880937A00109277
:101A4000C1000E948609FDCFEE0FFF1F0590F491A3
:101A5000E02D099481E090E0F8940C94CA0E0F9365
:101A60001F93CF93DF93009731F46115710519F43B
:101A700080E090E03AC08B01EC016EE070E081E024
:101A800090E00E947A0DFC01892B91F380E883831A
:101A90000115110571F01387028781E88383809116
:101AA000990390919A03892B21F4F0939A03E09380
:101AB00099032097C9F0D187C0878381826083838F
:101AC00080919B0390919C03892B71F4F0939C036C
:101AD000E0939B0380919D0390919E03892B21F4B9
:101AE000F0939E03E0939D03CF01DF91CF911F916F
:101AF0000F9108950F931F93CF93DF93869F8001DB
:101B0000879F100D969F100D1124C8010E94960DFD
:101B1000EC01009729F0A80160E070E00E94C30E7C
:101B2000CE01DF91CF911F910F910895CF93DF9355
:101B30008230910510F482E090E0E091A103F091F1
:101B4000A20320E030E0C0E0D0E0309711F1408106
:101B5000518148175907C0F04817590761F482812D
:101B60009381209719F09B838A832BC09093A203C3
:101B70008093A10326C02115310519F042175307A0
:101B800018F49A01BE01DF01EF010280F381E02D1C
:101B9000DCCF2115310509F1281B390B2430310523
:101BA00090F412968D919C9113976115710521F017
:101BB000FB019383828304C09093A2038093A103CB
:101BC000FD01329644C0FD01E20FF31F8193919312
:101BD000225031092D933C933AC020919F033091BC
:101BE000A003232B41F4209114013091150130936F
:101BF000A00320939F03209112013091130121151E
:101C0000310541F42DB73EB74091160150911701AF
:101C1000241B350BE0919F03F091A003E217F3071B
:101C2000A0F42E1B3F0B2817390778F0AC014E5F4C
:101C30005F4F2417350748F04E0F5F1F5093A003E6
:101C400040939F038193919302C0E0E0F0E0CF01C5
:101C5000DF91CF9108950F931F93CF93DF93009758
:101C600009F48CC0FC013297138212820091A10307
:101C70001091A2030115110581F420813181820F99
:101C8000931F20919F033091A0032817390779F5FE
:101C9000F093A003E0939F0371C0D80140E050E0AF
:101CA000AE17BF0750F412962D913C911397AD01DA
:101CB0002115310509F1D901F3CF9D01DA013383F3
:101CC000228360817181860F971F8217930769F4C1
:101CD000EC0128813981260F371F2E5F3F4F31835A
:101CE00020838A819B8193838283452B29F4F093FF
:101CF000A203E093A10342C01396FC93EE931297C4
:101D0000ED01499159919E01240F351FE217F30708
:101D100071F480819181840F951F029611969C9396
:101D20008E938281938113969C938E931297E0E019
:101D3000F0E0D80112968D919C911397009719F0BD
:101D4000F8018C01F6CF8D919C9198012E5F3F4F49
:101D5000820F931F20919F033091A003281739070A
:101D600069F4309729F41092A2031092A10302C0E3
:101D7000138212821093A00300939F03DF91CF91EF
:101D80001F910F910895DC0101C06D9341505040A7
:101D9000E0F7089510E0C9E7D0E004C0FE010E941A
:0E1DA000240D2196CA37D107C9F7F894FFCF5A
:101DAE00A400A400084000000080B7025F030401F5
:101DBE00D6080000A30380001800000000000000F9
:101DCE000000E8FFE8FF0000000000001400000023
:101DDE00000000000000ECFFECFF0000000000001F
:101DEE0000000000150A90097A0958096C095C0A6E
:101DFE0006000000000030053205FAFFFAFF000071
:101E0E003105340518000000000051056805E8FF93
:101E1E00E8FF00005E0572056A011E0128017401CB
:101E2E0000000000E5062E0503020002FD01FA0186
:101E3E00F7016E016A01670151017101F500F300AE
:101E4E000200000000007C057E05FEFFFEFF000084
:101E5E007D05800500000000E706C80500000000B3
:101E6E00E6062C0503020002FD01FA01F701EB0163
:101E7E00A5018C0173017101D904B804140000008E
:101E8E0000009D05B405ECFFECFF0000AA05BE05A1
:101E9E00E20132013C01EC0100000000EC06900969
:081EAE0000000000EC069009A1
:00000001FF
